:100000000C9421010C9449010C9449010C94490170
:100010000C9449010C9449010C9449010C94490138
:100020000C9449010C9449010C94760D0C94DF0D4D
:100030000C9483050C9449010C9449010C944901DA
:100040000C9449010C9449010C9449010C94490108
:100050000C9449010C9449010C9449010C948E0AAA
:100060000C9449010C9449010C9449010C944901E8
:100070000C9449010C9449010C9449010C944901D8
:100080000C942E100C9449010C9449010C944901D4
:100090000C94D80A0C9449010C9449010C94490120
:1000A0000C9449010C9449010C94490155085808D5
:1000B00047084B0851087908790879085C086008F6
:1000C00064086A086E087908740808000000BE9287
:1000D0002449123EABAAAA2ABECDCCCC4C3E00008D
:1000E0000080BEABAAAAAA3E00000000BF0000002C
:1000F000803F0000000000084178D3BB4387D11344
:100100003D190E3CC3BD4282AD2B3E68EC8276BEEB
:10011000D98FE1A93E4C80EFFFBE01C4FF7F3F00B5
:100120000000000000000000240027002A002D002D
:1001300030000408020110408040102040804080C0
:10014000080204018040201002011080102040406D
:100150002000000000250028002B002E00310004A4
:10016000040404040304050202020204030202025E
:100170000206060606060604040202020404070636
:1001800005040100080A0B0C0D0900000000230003
:10019000260029002C002F000000000200090F009B
:1001A00000030401000C000000000000000000003B
:1001B00000000000000000080B000202020100091C
:1001C00004000001020200000524001001052401C2
:1001D000010104240206052406000107058103101D
:1001E000004009040100020A000000070502024065
:1001F0000000070583024000000403090441646114
:100200006672756974004369726375697420506C15
:10021000617967726F756E64001201000200000060
:10022000409A23118000010102030112010002EF34
:100230000201409A231180000101020301002E1ADD
:100240002A1A11241FBECFEFDAE0DEBFCDBF25E0B2
:10025000A4E8B1E001C01D92A734B207E1F711E0B4
:10026000A0E0B1E0E6E2FFE302C005900D92A43801
:10027000B107D9F711E0C0E2D1E004C02197FE0137
:100280000E94481BCF31D107C9F70E948B130C94F1
:10029000861F0C94000090913102809130029817D3
:1002A00050F4E92FF0E0EE5CFD4F208130E09F5FDD
:1002B0009093310202C02FEF3FEFC9010895809162
:1002C000300290E020913102821B91090895CF9273
:1002D000DF92EF92FF920F931F93CF93DF937C01F6
:1002E0008A0180919202882389F0EB016B01C40E90
:1002F000D51ECC15DD05F1F06991D701ED91FC918A
:100300000190F081E02DC7010995F3CF842F413290
:1003100088F490919102943069F44093FB01FB01C1
:100320002BED31E0D9019A2F921B981718F4919177
:100330009D93F9CFC801DF91CF911F910F91FF904D
:10034000EF90DF90CF900895209192022223C9F080
:100350002091B502203240F021E030E0FC013383EF
:10036000228380E090E0089580919302E82FF0E0EE
:10037000EC56FD4F60838F5F809393028093B502AC
:1003800009C080919102843029F481E08093FB01BF
:100390006093DB0181E090E008950895EF92FF9271
:1003A0000F931F93CF93DF93EC019091DA019F5F3E
:1003B000292F27702093DA0190FF02C090E801C036
:1003C00090E021FD9064247009F0906220E1290FF3
:1003D000FE013C967E018FE0E80EF11C00E011E08A
:1003E0006191662331F070E0C8010E94341B6F5F99
:1003F00001C060E0DF0114976C93322F369F030E2B
:1004000030E0311D1124CF010797311103C0EC01F9
:10041000188203C03150EC013883662311F061501B
:100420006C93EE15FF05E1F6DF91CF911F910F91CF
:10043000FF90EF90089580E991E00895209A089543
:100440000F931F93CF93DF93CDB7DEB762970FB6AD
:10045000F894DEBF0FBECDBF8C01F901DC011C9604
:100460008C917A8369835C834B835E834D83908117
:100470009D8791819E8792819F87813029F4CE014B
:1004800001960E94CE0106C01C861B861A8619861C
:1004900018861F8283E0888B1A8A198AD801ED9109
:1004A000FC910484F585E02DBE016F5F7F4FC8018C
:1004B000099562960FB6F894DEBF0FBECDBFDF91EF
:1004C000CF911F910F9108950F931F93CF93DF93B7
:1004D000CDB7DEB762970FB6F894DEBF0FBECDBFC3
:1004E0008C01F901DC011C968C917A8369835C8311
:1004F0004B835E834D8390819D8791819E879281FE
:100500009F87813029F4CE0101960E94CE0106C05A
:100510001C861B861A86198618861F82188A1A8AD4
:10052000198AD801ED91FC910484F585E02DBE0176
:100530006F5F7F4FC801099562960FB6F894DEBFD2
:100540000FBECDBFDF91CF911F910F91089580E035
:1005500090E00895FC01858596850895CF93DF93FB
:1005600000D000D000D0CDB7DEB7AB011C821D8219
:100570001E82DC01ED91FC910190F081E02D198249
:100580001A821B829E012F5F3F4FBE016C5F7F4F1F
:10059000099526960FB6F894DEBF0FBECDBFDF914A
:1005A000CF9108950C947F1E0F931F93CF93DF93E9
:1005B0008C01EB0188E2FB0111928A95E9F74BE08F
:1005C00050E06DE771E0CE010E941C1F1B8641E0E8
:1005D00050E060E070E04C875D876E877F87F801B0
:1005E00085899689A789B08D888B998BAA8BBB8BBF
:1005F0004C8B5D8B6E8B7F8B1CA21DA21EA21FA23B
:10060000188E198E1A8E1B8E1C8E1D8E1E8E1F8E9E
:1006100018A219A21AA21BA2DF91CF911F910F91CC
:1006200008954F925F926F927F928F92AF92BF9296
:10063000CF92DF92EF92FF920F931F93CF93DF93AE
:100640003C01EB010E949809F30127853089621B68
:10065000730B6A307105B0F3F894E881F98155B1F4
:10066000516085B18E7F85B96A859F81262F291BB0
:10067000922F2F83BF844A805B807D85FC84EE842B
:100680007F5FF394E3943E814885A984CB841181F4
:10069000D20120E0C32F022F322F318111278894FD
:1006A0003111390F08F43FEF9195889470FD130FC5
:1006B0001795889471FD130F1795889472FD130F89
:1006C0001795889473FD130F1795889474FD130F75
:1006D0001795889475FD130F1795889476FD130F61
:1006E0001795889477FD130F17958894232F711110
:1006F000212F960F122F002C55B917FF85B9308185
:100700002227889485B931113C0F55B916FF85B958
:1007100008F43FEFC195889485B9F0FC230F55B9D3
:1007200015FF85B927958894F1FC230F85B9279586
:10073000889455B914FF85B9F2FC230F2795889446
:1007400085B9F3FC230F55B913FF85B92795889414
:10075000F4FC230F85B92795889455B912FF85B904
:10076000F5FC230F2795889485B9F6FC230F55B91E
:1007700011FF85B927958894F7FC230F85B9279534
:10078000889455B910FF85B9132FF110122FCA0D97
:1007900085B900C055B917FF85B9328122278894E1
:1007A00085B93111340F55B916FF85B908F43FEFFB
:1007B000EB0DF11D85B9E0FC230F55B915FF85B987
:1007C00027958894E1FC230F85B92795889455B91E
:1007D00014FF85B9E2FC230F2795889485B9E3FCC3
:1007E000230F55B913FF85B927958894E4FC230F8F
:1007F00085B92795889455B912FF85B9E5FC230F73
:100800002795889485B9E6FC230F55B911FF85B962
:1008100027958894E7FC230F85B92795889455B9C7
:1008200010FF85B9132FE110122F419585B94C0D9A
:10083000002C55B917FF85B931812227889485B9D5
:100840003111390F55B916FF85B908F43FEF91956D
:10085000889485B970FD230F55B915FF85B9279583
:10086000889471FD230F85B92795889455B914FF95
:1008700085B972FD230F2795889485B973FD230FE1
:1008800055B913FF85B92795889474FD230F85B951
:100890002795889455B912FF85B975FD230F2795C3
:1008A000889485B976FD230F55B911FF85B9279531
:1008B000889477FD230F85B92795889455B910FF43
:1008C00085B9132F7111122F960F85B9119709F061
:1008D00013CF20EF30E0D2010E944E1BDC01CB0190
:1008E000F3E0B695A79597958795FA95D1F720E00F
:1008F00030E069014AE9449EC12C549EC00CD11CD1
:100900001124E12CF12CCC0CDD1CEE1CFF1C8C0DF9
:100910009D1DAE1DBF1D893E43E09407A105B10595
:1009200088F1885E9340A109B10942E0B695A79588
:10093000979587954A95D1F747E0849F212D949FFD
:10094000200D311D11246091D90170E0860F971F91
:10095000820F931F4091FC015091FD016091FE01B7
:100960007091FF01292F3327420F531F611D711D05
:100970004093FC015093FD016093FE017093FF01D1
:100980008093D90178940E949809F301708B67874E
:10099000DF91CF911F910F91FF90EF90DF90CF905B
:1009A000BF90AF908F907F906F905F904F90089521
:1009B0002F923F925F926F927F928F929F92AF920F
:1009C000BF92CF92DF92EF92FF920F931F93CF933C
:1009D000DF933C01FB01D80126173707D0F46C9157
:1009E00011969C91119712968C911297EA01788139
:1009F0007C93798111967C9311977A8112967C93DE
:100A00001297688399838A839E2F8F2FF901292F4C
:100A1000382FEA012880312C8C9190E082199309BB
:100A20009695982F882797958795E980F12C1196B0
:100A3000AC901197B12CAE18BF08B694BA2CAA246A
:100A4000B794A794CA80D12C12960C9110E00C197F
:100A50001D091695102F002717950795A9014E1B04
:100A60005F0B19F0542E452F03C05524539440E0DA
:100A7000652D742F0E94341B4B01C501652D742F09
:100A80000E94341B5B01C801652D742F0E94341B2A
:100A9000880C991CAA0CBB1C660F771FD22DCC2783
:100AA000FE2CEE24DC2CCC24CF01880F991F8E0F56
:100AB0009F1F0296680E791E2E173F0790F0D301F4
:100AC0001297DC931196FC92D301DC92C80DD91DCC
:100AD000EA0CFB1CC60ED71E3196B3E06B0E711CE0
:100AE000EBCFDF91CF911F910F91FF90EF90DF90AF
:100AF000CF90BF90AF909F908F907F906F905F90BE
:100B00003F902F9008951F920F920FB60F921124CD
:100B10000F900FBE0F901F9018950F931F93CF93B8
:100B2000DF93EC01162F042F81E090E099838883F6
:100B30008CE291E09F838E8380EE93E9A4E0B0E0A5
:100B400088879987AA87BB8780E29EE4A0E0B0E00F
:100B50008C879D87AE87BF876F3120F08FEF9FEF27
:100B6000998388830F3120F08EEF9FEF99838883DC
:100B700061E0812F0E94310960E0802F0E943109DD
:100B800060E0812F0E940109612F70E0FB01EE5CA3
:100B9000FE4FE491E88FFB01E15AFE4FE491F0E053
:100BA000EE0FFF1FE657FE4F859194919A8F898F24
:100BB000402F50E0FA01EE5CFE4FE491EB8FFA011A
:100BC000E15AFE4FE491F0E0EE0FFF1FE657FE4FB3
:100BD000859194919D8F8C8F8FEF9FEFAFEFBFE04A
:100BE0008A839B83AC83BD830E94820A688B798B46
:100BF0008A8B9B8BDF91CF911F910F910895CF939B
:100C0000DF93EC0188859985009711F00E947F1E83
:100C10008E8187FD05C060E0DF91CF910C94310992
:100C2000DF91CF910895CF92DF92EF92FF920F93D1
:100C30001F93CF93DF93FC01258D2F3F39F46EBDB9
:100C400000000DB407FEFDCF8EB52BC0D62F8C0152
:100C500087E0E82EF12CC0E0CC24C394D12CCC0F3B
:100C600060E0F801858D0E940109B6010E2C01C0DB
:100C7000660F0A94EAF76D23F801838D0E9401093B
:100C800061E0F801858D0E940109F801848D0E94C0
:100C9000D808892B09F0C160F1E0EF1AF108F8F6E5
:100CA0008C2FDF91CF911F910F91FF90EF90DF90EC
:100CB000CF90089508958CBD9DBD08951F93CF9347
:100CC000DF93EC01162F8A8D8F3FF1F4898D91E02F
:100CD000909392028093B402109293021092B50204
:100CE00088E393E00E94A4010E94E912898D61E0EB
:100CF00070E0082E000C990B0E94060D88E393E02B
:100D00000E944B01182F19C08D8D8F3F21F481E572
:100D100090E00E945B0660E08A8D0E940109612FCD
:100D20006068CE010E94130660E0CE010E941306A7
:100D3000182F61E08A8D0E940109812FDF91CF91E8
:100D40001F9108958F929F92AF92BF92CF92DF92A0
:100D5000EF92FF920F931F93CF93DF93EC018B01E0
:100D600084E2FB0111928A95E9F784E290E0A0E029
:100D7000B0E0FB0180839183A283B3838D899E8938
:100D8000AF89B88D84839583A683B78381E090E093
:100D9000A0E0B0E080879187A287B387108A118A8C
:100DA000128A138A8A8D8F3F09F053C0898D91E092
:100DB000909392028093B402109293021092B50223
:100DC00068EA88E393E00E94A4010E94E912898DF9
:100DD00066E070E0082E000C990B0E94060D88E377
:100DE00093E00E944B019C838B8388E393E00E94F5
:100DF0004B0120E030E0382F8B819C81282B392B50
:100E00003C832B8388E393E00E944B019E838D8378
:100E100088E393E00E944B0120E030E0382F8D8181
:100E20009E81282B392B3E832D8388E393E00E94FB
:100E30004B0198878F8388E393E00E944B0120E069
:100E400030E0382F8F819885282B392B38872F83D6
:100E500043C08D8D8F3F21F481E590E00E945B06B9
:100E600060E08A8D0E94010968EECE010E9413069F
:100E70006FEFCE010E94130690E09C838B836FEF8F
:100E8000CE010E9413062B813C81382B3C832B839F
:100E90006FEFCE010E94130690E09E838D836FEF6B
:100EA000CE010E9413062D813E81382B3E832D8377
:100EB0006FEFCE010E94130690E098878F836FEF4B
:100EC000CE010E9413062F813885382B38872F8357
:100ED00061E08A8D0E94010963E2CE010E945E06F4
:100EE00090E024E0959587952A95E1F783709927FE
:100EF0008330910599F08230910551F08130910550
:100F000051F061E070E0892B59F46CEF7FE308C089
:100F100060E070E105C06EEF7FE102C065E575E05D
:100F200080E090E00E946A1C6B017C016B817C81F7
:100F3000072E000C880B990B0E946C1CA7019601D0
:100F40000E94C21B4B015C0169877A878B879C8753
:100F50006D817E81072E000C880B990B0E946C1C02
:100F6000A70196010E94C21B6D877E878F87988B91
:100F70006F817885072E000C880B990B0E946C1CE2
:100F8000A70196010E94C21B698B7A8B8B8B9C8B6D
:100F90002AE038EE4CE151E4C501B4010E94481D3D
:100FA000F801648B758B868B978B2AE038EE4CE1C9
:100FB00051E46D857E858F8598890E94481DF801D2
:100FC000608F718F828F938F2AE038EE4CE151E46D
:100FD00069897A898B899C890E94481DF801648FF0
:100FE000758F868F978F80E0DF91CF911F910F9142
:100FF000FF90EF90DF90CF90BF90AF909F908F9039
:1010000008950895CF93DF931F92CDB7DEB769831C
:10101000DC01ED91FC910280F381E02D41E050E094
:10102000BE016F5F7F4F09950F90DF91CF910895BB
:1010300083E08093E9008091F200882319F08AE32D
:101040008093E8000895FC018485958597FD0BC089
:101050009FB7F89482E08093E9008091F2009FBFEF
:1010600090E0019608959FB7F89482E08093E9009C
:101070008091F2009FBF90E0089590E0FC013197CD
:10108000EF30F105B0F5EA5AFF4F0C94481B809100
:1010900080008F7703C0809180008F7D80938000D7
:1010A000089580918000877FF9CF84B58F7702C043
:1010B00084B58F7D84BD0895809190008F7707C09F
:1010C000809190008F7D03C080919000877F8093F6
:1010D000900008958091C0008F7703C08091C00078
:1010E0008F7D8093C00008958091C200877F809398
:1010F000C200089585ED8093BC008091BC0084FD02
:10110000FCCF1092910208950895E09131028091F0
:101110003002E81730F4F0E0EE5CFD4F808190E0A3
:1011200008958FEF9FEF0895CF93DF931F92CDB770
:10113000DEB7FC018485958597FD05C02FEF3FEF55
:10114000358724870BC0CE0101960E944D0D019773
:1011500019F4898190E002C08FEF9FEF0F90DF912B
:10116000CF9108950F931F93CF93DF931F92CDB725
:10117000DEB78C01FC018485958597FF0EC0CE01FA
:1011800001960E944D0D019719F4298130E002C0AB
:101190002FEF3FEFF80135872487F8018485958587
:1011A0000F90DF91CF911F910F9108950E94171F0B
:1011B000CF93DF93282F30E0F901E856FE4F84915A
:1011C000F901EE5CFE4FD491F901E15AFE4FC49152
:1011D000CC2391F081110E943D08EC2FF0E0EE0F3E
:1011E000FF1FE657FE4FA591B491EC91ED2381E0EE
:1011F00090E021F480E002C080E090E0DF91CF91A8
:1012000008951F93CF93DF93282F30E0F901E8561C
:10121000FE4F8491F901EE5CFE4FD491F901E15A41
:10122000FE4FC491CC23C9F0162F81110E943D08B6
:10123000EC2FF0E0EE0FFF1FEF5AFE4FA591B49197
:101240008FB7F894111105C09C91ED2FE095E9231B
:1012500002C0EC91ED2BEC938FBFDF91CF911F91EA
:101260000895CF93DF9390E0FC01EE5CFE4F249154
:10127000FC01E15AFE4F8491882361F190E0880FD0
:10128000991FFC01EC5DFE4FC591D491FC01EF5A12
:10129000FE4FA591B491611109C09FB7F894888160
:1012A000209582238883EC912E230BC0623061F459
:1012B0009FB7F8943881822F809583238883EC919F
:1012C0002E2B2C939FBF06C08FB7F894E8812E2B4E
:1012D00028838FBFDF91CF910895823108F082512A
:1012E000E82FF0E0E258FE4FE49180917B00E3FBB1
:1012F000222720F930E095E0220F331F9A95E1F77D
:101300008F7D282B20937B00E770E064E0937C00C6
:1013100080917A00806480937A0080917A0086FDC3
:10132000FCCF809178002091790090E0922B089575
:101330003FB7F8948091270290912802A09129024A
:10134000B0912A0226B5A89B05C02F3F19F001963F
:10135000A11DB11D3FBFBA2FA92F982F8827820F3B
:10136000911DA11DB11DBC01CD0143E0660F771F8A
:10137000881F991F4A95D1F708958F929F92AF9237
:10138000BF92CF92DF92EF92FF926B017C010E949D
:1013900098094B015C01C114D104E104F104F1F09E
:1013A0000E949809DC01CB0188199909AA09BB0997
:1013B000883E9340A105B10570F321E0C21AD1081F
:1013C000E108F10888EE880E83E0981EA11CB11C8C
:1013D000C114D104E104F10419F7DDCFFF90EF90BF
:1013E000DF90CF90BF90AF909F908F9008958F9295
:1013F0009F92AF92BF92CF92DF92EF92FF920F93A4
:101400001F93CF93DF935C016B018A0180910D01E3
:10141000882309F45DC080912F02882309F458C005
:1014200080912D0280FF05C08091E0008260809352
:10143000E000E8018AEFF82E93E0E92E2FE3822EF8
:101440003AE3932E209709F43DC08FB7F894E092C9
:10145000E9009091E80095FF06C09091F200282DD8
:10146000291B922F01C090E08FBF91110AC0FA94FE
:10147000FF2071F161E070E080E090E00E94BD0922
:10148000E1CF292F30E0C217D3070CF49C2F8FB780
:10149000F894E092E9002091E80025FF11C0292F7F
:1014A00030E0C21BD30BF601915020F041914093E4
:1014B000F100FACFC20ED31E9091E80095FF12C042
:1014C0008FBFC0CF84E680932E021016110644F021
:1014D00081E090E0F5019383828380E090E005C095
:1014E000C80103C09092E800EBCFDF91CF911F912C
:1014F0000F91FF90EF90DF90CF90BF90AF909F90B3
:101500008F9008952FB7F8946091FC017091FD01C0
:101510008091FE019091FF012FBF08951F920F92BD
:101520000FB60F9211242F933F938F939F93AF93F6
:10153000BF938091FC019091FD01A091FE01B091BB
:10154000FF013091260226E0230F2D3720F402966A
:10155000A11DB11D05C029E8230F0396A11DB11DD2
:10156000209326028093FC019093FD01A093FE013D
:10157000B093FF018091270290912802A091290247
:10158000B0912A020196A11DB11D8093270290936C
:101590002802A0932902B0932A02BF91AF919F9194
:1015A0008F913F912F910F900FBE0F901F90189524
:1015B0001F920F920FB60F9211242F933F934F93C8
:1015C0005F936F937F938F939F93AF93BF93EF93AB
:1015D000FF938091B900887F803609F49CC068F53C
:1015E000883209F45BC090F4803109F454C038F4B7
:1015F000882309F4F3C0883009F44DC0F3C0883162
:1016000009F44CC0803209F45DC0ECC0803409F4A8
:1016100068C048F4803309F455C0883309F0E2C04B
:1016200080938F02D5C0803509F44FC0883509F406
:101630005DC0883409F0D6C0D3C0883909F4C4C06D
:10164000A8F4883709F467C038F4883609F463C011
:10165000803709F460C0C6C0883809F4B5C0803945
:1016600009F45FC0803809F0BDC05BC0803B09F45D
:1016700083C038F4803A09F466C0883A09F47CC023
:10168000B1C0803C09F4A4C0883C09F4A1C0883BE7
:1016900009F487C0A7C080916C0210C090918E029F
:1016A00080918D02981770F5E0918E0281E08E0F87
:1016B00080938E02F0E0E359FD4F80818093BB0060
:1016C00085EC83C080938F028BC0E0918E0281E015
:1016D0008E0F80938E028091BB00F0E0E359FD4FA6
:1016E000808390918E0280918D026BC0E0918E027A
:1016F00081E08E0F80938E028091BB00F0E0E35971
:10170000FD4F80838091900281116AC081E08093B7
:101710006B0284EA5EC083E08093910210922502FE
:10172000CFCF80912502803208F04EC0E091250293
:1017300081E08E0F809325028091BB00F0E0EB5F8B
:10174000FD4F8083BDCF80912502803230F4E0913F
:101750002502F0E0EB5FFD4F10820E947A08609155
:10176000250270E0E0910302F091040285E092E02E
:101770000995109225022CC084E08093910210926A
:1017800002021092FB01E0910002F0910102099522
:101790008091FB01811105C081E08093FB011092D3
:1017A000DB01E091020281E08E0F80930202F0E003
:1017B000E552FE4F80818093BB00909102028091A0
:1017C000FB01981708F47CCF85E88093BC000AC021
:1017D00085EC8093BC001092910204C010928F029D
:1017E0000E947A08FF91EF91BF91AF919F918F91E5
:1017F0007F916F915F914F913F912F910F900FBE0D
:101800000F901F9018958091620281110DC082E0A7
:1018100080935E0284E080935F02109261021092D6
:10182000600281E0809362028EE592E0089540912B
:101830005C0250915D0220915A0230915B02421786
:101840005307B4F49091E8009570E1F39091E800AB
:1018500092FD19C08093F10080915C0290915D022D
:1018600001968F739927892B19F48EEF8093E800E6
:1018700080915C0290915D02019690935D0280934D
:101880005C0281E0089580E00895CF92DF92EF92AC
:10189000FF920F931F93CF93DF931F92CDB7DEB7C5
:1018A000182F062FE42E862F880F8E5F99830E94B3
:1018B000170C83E00E94170CF12EC12E9981D92EAE
:1018C0008C2D8F19801798F4F601E7FE02C08491E1
:1018D00001C080810E94170C182F80E00E94170C15
:1018E0008123FFEFCF1ADF0A8111EACF01C081E027
:1018F0000F90DF91CF911F910F91FF90EF90DF90AC
:10190000CF900895DF92EF92FF920F931F93CF93A2
:10191000DF93D82E8A017B01E40EF51EEB01CE1574
:10192000DF0571F0D7FE03C0FE01849101C08881FC
:101930000E94170C21968111F2CF8FEF9FEF01C00B
:10194000C801DF91CF911F910F91FF90EF90DF9031
:1019500008950F931F93CF93DF931F92CDB7DEB7F8
:1019600082E0898342E450E067EB71E080E80E9406
:10197000820C0E94030CDC0112960D911C911397AE
:101980000115110569F0D801ED91FC910280F381F8
:10199000E02DBE016F5F7F4FC801099597FF07C01B
:1019A00089810F90DF91CF911F910F910895F801D8
:1019B00000851185E5CFCF92DF92EF92FF920F93D2
:1019C0001F93CF93DF936C017A018B01C0E0D0E0CD
:1019D000CE15DF0589F0D8016D918D01D601ED910D
:1019E000FC910190F081E02DC6010995892B11F43D
:1019F0007E0102C02196ECCFC701DF91CF911F91EC
:101A00000F91FF90EF90DF90CF9008959091910209
:101A10009111FCCF613208F060E291E09093910265
:101A2000909390022FEF20938F0210928E02260F38
:101A300020938D0290936C0290916C02880F892BF9
:101A400080936C0280916B02813041F410926B02A2
:101A500080916C028093BB0085EC01C085EE809381
:101A6000BC00809191028130E1F380918E02861753
:101A700010F460918E02ADE6B2E022E332E0F901AB
:101A80008E2F821B861718F48D918193F9CF1092B7
:101A9000310260933002862F0895FC0180912F025D
:101AA000811103C08FEF9FEF08959FB7F89482E0F4
:101AB0008093E9002091F20030E01216130614F42E
:101AC00021E030E02115310551F084E680936A026F
:101AD0008091F10080838091F200882319F09FBFEC
:101AE000C90108958BE68093E800F9CF1F920F9209
:101AF0000FB60F9211248F939F938091E1009091E4
:101B0000E100937F9093E10083FF0FC01092E90002
:101B100091E09093EB001092EC0092E39093ED0033
:101B200010922F0298E09093F00082FF1CC093E087
:101B30009093E9009091F200992319F09AE3909321
:101B4000E80090912E02992329F090912E02915055
:101B500090932E0290916A02992329F090916A0243
:101B6000915090936A0284FF10C08091E2008E7EB3
:101B700081608093E2008091E1008F7E8093E1009C
:101B800080912D028E7E806111C080FF11C08091F6
:101B9000E2008E7E80618093E2008091E1008E7E83
:101BA0008093E10080912D028E7E816080932D02D2
:101BB0009F918F910F900FBE0F901F9018951F92BD
:101BC0000F920FB60F921124CF92DF92EF92FF92F5
:101BD0000F931F932F933F934F935F936F937F9335
:101BE0008F939F93AF93BF93EF93FF93CF93DF9325
:101BF000CDB7DEB76C97DEBFCDBF1092E900809104
:101C0000E80083FF0CC2FE017596DE2ECF2E88E021
:101C10008E0F8E1729F09091F10090833196F9CFB5
:101C200084E680936A0282EF8093E8008D8987FFC3
:101C300005C09091E80090FFFCCF03C09EEF909309
:101C4000E800982F907609F0C5C09E892F89188DDD
:101C500091110CC0803829F480912C028093F100FE
:101C600002C01092F1001092F1004EC1422F50E0DC
:101C7000512B913051F4811147C14130510509F088
:101C800043C180912C028D7F0BC0933061F4811190
:101C90003BC14130510509F037C180912C0282606F
:101CA00080932C0231C1953041F48091E80080FF8F
:101CB000FCCF20682093E30027C1963009F05EC076
:101CC000EB8CFC8C1092E90010925D0210925C0289
:101CD000123091F510925B0210925A020E94A90CE8
:101CE00099E0BE016F5F7F4FDB01E92F1D92EA95FE
:101CF000E9F799831A8391E09E8390EA98879AEF97
:101D0000998720915C0230915D02275F3F4F3C83B1
:101D10002B838D831092E90010925D0210925C0279
:101D2000F0925B02E0925A0249E050E080E00E94AB
:101D3000820C0E94A90CE8C0F0925B02E0925A0269
:101D40000E94030CDC011296ED90FC901397E114B5
:101D5000F10409F4C7C0D701ED91FC910480F5812D
:101D6000E02D6D2D7C2DC7010995009719F00CF021
:101D7000CBC0CEC0F701E084F184E9CF973009F4FD
:101D8000C7C0983021F481E08093F100BDC0993044
:101D900009F0BAC0837009F0BBC0EBE3F1E081E069
:101DA00021E036E39081992361F08093E90020934C
:101DB000EB0091919093EC003093ED008F5F8730B2
:101DC00089F78EE78093EA001092EA008F8980936A
:101DD0002F029AC08B8D9C8D1092E90010925D02AB
:101DE00010925C0290935B0280935A02898D81115C
:101DF0005FC08E899D89913A59F4813209F088C07B
:101E000047E050E066E071E080E00E94820C7CC018
:101E1000913209F07DC0833289F4888D90E0982F4B
:101E200088272F89822BA0E0B0E080930201909355
:101E30000301A0930401B093050166C08032B1F4A0
:101E40008091E80082FFFCCFE6E0F1E087E08E0FB2
:101E50008E1729F09091F10090833196F9CF84E6A6
:101E600080936A028BEF8093E80006C0823209F00B
:101E70004BC08F8980930D0180912B02882319F02C
:101E8000EEEFFAE002C0E0E0F8E080910601909108
:101E90000701A0910801B0910901803B9440A10580
:101EA000B10509F0A0C080910D0180FF83C09BC0E7
:101EB0000E94030CDC0112960D911C9113970115E1
:101EC000110531F1D801ED91FC910190F081E02DE7
:101ED0006D2D7C2DC8010995811116C0F801008572
:101EE0001185EDCF1130C1F0133091F48F89882323
:101EF00009F455C08230E9F440E862E186E092E0FE
:101F00000E94450C882321F08EEF8093E80087C063
:101F100081E28093EB0083C08B8D9C8D089711F438
:101F20001093590280915902811136C069E172E023
:101F300038C0813029F440E868E08DEF91E0E0CFCF
:101F4000833031F70E94030CDC011296ED90FC9077
:101F500013978E010F5F1F4F6801E114F10479F0B0
:101F6000D701ED91FC910680F781E02DB801C70102
:101F70000995080F111DF701E084F184EECFD80117
:101F80001C92F60101900020E9F73197BF016C190E
:101F90007D0940E0C601B4CF6BE272E002C069EF98
:101FA00071E06115710509F4B3CFFB01449150E074
:101FB00080E82BCFEE3F2AE0F20731F0808191815B
:101FC0009093FF0A8093FE0A87E797E791838083C7
:101FD0009BE088E10FB6F894A895809360000FBE4F
:101FE0009093600091CF0FB6F894A895809160000F
:101FF000886180936000109260000FBEA895EE3F4C
:102000008AE0F80739F08091FE0A9091FF0A9183E7
:1020100080837ACF1092FF0A1092FE0A75CF6C96D9
:102020000FB6F894DEBF0FBECDBFDF91CF91FF9109
:10203000EF91BF91AF919F918F917F916F915F9140
:102040004F913F912F911F910F91FF90EF90DF9053
:10205000CF900F900FBE0F901F9018951F920F9268
:102060000FB60F9211242F933F938F939F93AF93AB
:10207000BF93EF93FF938091550290915602A091E8
:102080005702B0915802E0915202F0915302892B0D
:102090008A2B8B2B31F18091540290818927808388
:1020A0008091550290915602A0915702B09158022A
:1020B000181619061A061B062CF5809155029091E8
:1020C0005602A0915702B09158020197A109B10997
:1020D0008093550290935602A0935702B0935802F2
:1020E00011C0809171008D7F809371009091540296
:1020F0008081282F30E0892F90E080959095822371
:1021000093238083FF91EF91BF91AF919F918F9126
:102110003F912F910F900FBE0F901F901895FB01CC
:10212000DC014C9111965C91342F3F71330F330FCA
:10213000832F880F35E5282F239F020E20E0211DD5
:102140001124642F6074942F907247FD21C0611197
:102150000BC0911104C0822F8095422F11C045E51C
:10216000420F30E02BEA33C091110DC0382F4AEAFC
:10217000349F030E30E0311D11248BEA831B420F84
:10218000282F30E024C080E0422F4095322F0EC02F
:10219000611111C091110CC0382F2AEA329F030E31
:1021A00030E0311D11244BEA431B3B5A20E00FC0A5
:1021B000322F30950BC0911104C085E5820F3BEAA8
:1021C00003C08AEA820F90E0321B282F40E05F3F75
:1021D00011F15523E9F0222321F0259F020E20E082
:1021E000211D442321F0459F040E40E0411D33236F
:1021F00021F0359F030E30E0311D11245095559F7D
:10220000050E50E0511D1124250F450F350F03C059
:102210003FEF4FEF2FEF208341833283089520E378
:1022200030E048EB52E0FC01DA0120FF05C002C0BB
:1022300001900D9201900D922250D0F73040C0F7DE
:10224000CA0108953F924F925F926F927F928F9250
:102250009F92AF92BF92CF92DF92EF92FF920F9335
:102260001F93CF93DF9300D01F92CDB7DEB7F82E28
:102270008091470390914803A0914903B0914A038C
:10228000892B8A2B8B2BE9F00E94980900918704F7
:10229000109188042091890430918A04DC01CB01DB
:1022A000801B910BA20BB30B0091470310914803C5
:1022B0002091490330914A0380179107A207B30781
:1022C000B8F20E9498096093870470938804809301
:1022D000890490938A04E0914F03F0915003309762
:1022E00059F040914B0350914C0360914D03709114
:1022F0004E038F2D0995F82E0091B6021091B7026A
:102300004F2C512C612C712C0115110509F461C061
:10231000D8011C96EC901C97809145039091460340
:102320008436910510F41C961C92D801ED91FC9115
:10233000A280B38019821A821B82F11014C0F801A6
:1023400045855685628173819E012F5F3F4FC8018D
:10235000F5010995D8011C96EC921C9714960D91E5
:102360001C911597D1CFF8013996CE0101966C01D9
:1023700048019CE0890E911CDF0113973C9021914C
:10238000332001F12223F1F0822F90E0A0E0B0E0B1
:102390009C01AD012F5F3F4F4F4F5F4FC301B20113
:1023A0000E94101B9B01AC01832D90E0A0E0B0E0E7
:1023B000BC01CD016F5F7F4F8F4F9F4F0E94101B5D
:1023C000D6018C93BFEFCB1ADB0AE815F905A1F60D
:1023D000B6CF80918504909186048C010F5F1F4FCA
:1023E000109386040093850449979CF10E94820A09
:1023F0004B015C0188EE93E0089FB001099F700DCE
:10240000189F700D1124072E000C880B990BC0909B
:102410008104D0908204E0908304F0908404A501AC
:1024200094012C193D094E095F090E94551F3093F4
:1024300046032093450310928604109285040E945F
:10244000820A609381047093820480938304909342
:1024500084040F900F900F90DF91CF911F910F91F7
:10246000FF90EF90DF90CF90BF90AF909F908F90B4
:102470007F906F905F904F903F900895BC010097C0
:1024800091F0FC0101900020E9F73197AF01481B62
:10249000590BE091E802F091E9020280F381E02D0E
:1024A00088EE92E0099480E090E008958F929F92E8
:1024B000AF92BF920F931F93CF93DF93CDB7DEB749
:1024C000A1970FB6F894DEBF0FBECDBF19A2423060
:1024D00008F44AE08E010F5D1F4F842E912CA12C31
:1024E000B12CA50194010E94551FE62FB901CA0124
:1024F00001501109EA3014F4E05D01C0E95CD80133
:10250000EC93232B242B252B61F7C8010E943E124C
:10251000A1960FB6F894DEBF0FBECDBFDF91CF916D
:102520001F910F91BF90AF909F908F90089582E17F
:102530000E946D09BC01990F880B990B0E946C1CBD
:102540009B01AC0160EF78E18CE19BE40E94C21B2F
:1025500020E030E44CE156E40E94551B20E030E4DA
:102560004CE156E40E94C21B0E94001D20E030EEA8
:1025700046E755E40E94C21B2FE03FEC4BE55BE3CE
:102580000E94561B9B01AC0160E070E080E89FE375
:102590000E94C21B23E333E948E853E40E94551B21
:1025A00026E636E646EE5FE30E94481D20E030E076
:1025B00040E052E40E94561B089520E0DC0160FFD9
:1025C00003C001C02D932D936250E0F77040D0F707
:1025D00008952091B5029091B402213208F046C0CE
:1025E000809191028111FCCF32E03093910231E071
:1025F000309390023FEF30938F0210928E0220931F
:102600008D02A4E9B2E04DE652E0FA013E2F341B00
:10261000321718F43D913193F9CF10926C0220914A
:102620006C02990F922B90936C0290916B029130F7
:1026300041F410926B0290916C029093BB0095EC68
:1026400001C095EE9093BC00909191029230E1F31D
:1026500090918F029F3F79F080918F02803241F0FC
:1026600080918F02803331F084E005C081E003C0A7
:1026700082E001C083E0109293021092B5021092A2
:1026800092020895CF93DF93C82FD62F80918203B3
:102690008F3FC9F48091810391E0909392028093DF
:1026A000B402109293021092B5026C2F88E393E06B
:1026B0000E94A4016D2F88E393E00E94A401DF91A2
:1026C000CF910C94E912809185038F3F21F481E52D
:1026D00090E00E945B0660E0809182030E94010905
:1026E0006C2F6F7788E693E00E9413066D2F88E6C3
:1026F00093E00E94130661E0809182030E94010929
:10270000809185038F3F21F4DF91CF910C945A067D
:10271000DF91CF910895CF93DF93CDB7DEB7C35448
:10272000D1090FB6F894DEBF0FBECDBF789484B543
:10273000826084BD84B5816084BD85B5826085BDBD
:1027400085B5816085BD80916E00816080936E004B
:10275000109281008091810082608093810080913D
:1027600081008160809381008091800081608093EE
:10277000800080919100826080939100809191000F
:10278000816080939100809190008160809390009F
:102790008091C10084608093C1008091C1008260FB
:1027A0008093C1008091C10081608093C1008091BD
:1027B000C30081608093C3008091C00082608093D9
:1027C000C0008091C20081608093C20080917A0035
:1027D000846080937A0080917A00826080937A008E
:1027E00080917A008E7F80937A0080917A00806851
:1027F00080937A0010922F0210922C0210922D02D8
:102800008091D70081608093D70080EA8093D800C0
:1028100089B58F7E89BD89B5826089BD09B400FE06
:10282000FDCF61E070E080E090E00E94BD09809102
:10283000D8008F7C80618093D8008091E000807FF9
:102840008093E0008091E1008E7E8093E1008DE036
:102850008093E200EEEFFFE7859194918B3F9C4DD2
:1028600019F481E080932B0261E08DE00E94310930
:1028700060E085E10E94310960E084E00E94310956
:1028800060E083E10E94310961E085E00E94310946
:1028900061E08EE10E9431091A8218861F86188A2B
:1028A000198A1A8A81E08E878B871C8692E09D8721
:1028B00089838EE190E09E838D830E94EA1D9A8732
:1028C0008987009751F02EE1DC011D922A95E9F7E6
:1028D0008AE090E09C838B8304C01E821D821C8250
:1028E0001B8281E18F838A81882341F061E081E14D
:1028F0000E94310960E081E10E940109E0E7F1E016
:10290000E491F0E0EE0FFF1FEF5AFE4F8591949196
:102910009C8B8B8BE3E4F1E0E491ED8B85E1FE0190
:1029200031967F01A3E5B3E001900D928A95E1F71E
:10293000C7010E94FF058B8180936A038C819D8172
:1029400090936C0380936B038E819F8190936E03B1
:1029500080936D03888599859093700380936F03AE
:102960008A859B85AC85BD858093710390937203A6
:10297000A0937303B09374038E859F85A889B9894A
:102980008093750390937603A0937703B0937803B5
:102990008A899B89AC89BD898093790390937A0356
:1029A000A0937B03B0937C038FEF9FEFDC018093B8
:1029B0007D0390937E03A0937F03B09380038A8D61
:1029C0008093810388E0809382038FEF8093830359
:1029D00080938403809385038091590387FD08C009
:1029E00061E00E94310960E0809159030E94010971
:1029F00081E08093540380915B0390915C03892B69
:102A000009F422C10E9498090091610310916203A8
:102A10002091630330916403DC01CB01801B910B97
:102A2000A20BB30BC297A105B10560F3F894809196
:102A300057039091580398AF8FABE0915B03F091EF
:102A40005C03DF01119680818FAF80915303E09189
:102A50006503F0916603882309F4BBC019AEEB321D
:102A6000F10509F058C09BB180916703982B9EAF88
:102A70009BB1809589238DAF8DAD8AAF8FAD87FFD8
:102A800002C08EAD8AAF5EAD6DAD4FAD3AAD29AD32
:102A90008FA998AD5BB9262F3BB900C046FD252F05
:102AA0006BB900C05BB9362F2BB900C045FD352F7F
:102AB0006BB900C05BB9262F3BB900C044FD252F80
:102AC0006BB900C05BB9362F2BB900C043FD352F61
:102AD0006BB900C05BB9262F3BB900C042FD252F62
:102AE0006BB900C05BB9362F2BB900C041FD352F43
:102AF0006BB900C05BB9262F3BB900C040FD252F44
:102B00006BB901975BB9362F2BB94D9147FD352F26
:102B10006BB901F65AC0B59709F08BC095B1809199
:102B20006703982B9EAF95B1809589238DAF8DADAE
:102B30008AAF8FAD87FF02C08EAD8AAF5EAD6DAD3F
:102B40004FAD3AAD29AD8FA998AD55B9262F35B9FE
:102B500000C046FD252F65B900C055B9362F25B9EF
:102B600000C045FD352F65B900C055B9262F35B9D0
:102B700000C044FD252F65B900C055B9362F25B9D1
:102B800000C043FD352F65B900C055B9262F35B9B2
:102B900000C042FD252F65B900C055B9362F25B9B3
:102BA00000C041FD352F65B900C055B9262F35B994
:102BB00000C040FD252F65B9019755B9362F25B9BD
:102BC0004D9147FD352F65B901F64FAF3AAF29AFAB
:102BD0002EC0908180916703982B9EAF9081809545
:102BE00089238DAF8DAD8CAF88E08BAF5EAD6DADC1
:102BF0004FAD3BAD2CAD8FA998AD508347FD252F30
:102C00002083262F3A9531F0441F608300C000C016
:102C100000C0F3CF6083000038E04D91019769F761
:102C2000F0936603E09365034FAF3BAF2CAF98AFD3
:102C30008FAB78940E94980960936103709362034C
:102C4000809363039093640360915A03653121F18B
:102C500020915B0330915C03615031F070E08FEFA5
:102C600094E10E94201B02C060E070E0F9014091F5
:102C7000570350915803CF01821B930B841795077C
:102C800040F44081469FC001479F900D11249193CD
:102C9000EECF85E180935A0340E06EE1C7010E94C8
:102CA0008D058EE1F701A8E8B3E001900D928A95B9
:102CB000E1F741E06EE1C7010E948D058EE1F70169
:102CC000A6EAB3E001900D928A95E1F742E06EE149
:102CD000C7010E948D058EE1F701A4ECB3E00190DD
:102CE0000D928A95E1F743E06EE1C7010E948D05E0
:102CF0008EE1F701A2EEB3E001900D928A95E1F723
:102D000046E06EE1C7010E948D058EE1F701A0E06B
:102D1000B4E001900D928A95E1F749E06EE1C701B8
:102D20000E948D058EE1F701AEE1B4E001900D92B5
:102D30008A95E1F74AE06EE1C7010E948D058EE1B8
:102D4000F701ACE3B4E001900D928A95E1F74CE015
:102D50006EE1C7010E948D058EE1F701AAE5B4E09E
:102D600001900D928A95E1F788E18093810380912B
:102D700082038F3F41F5109231021092300210927F
:102D800093021092B5021092910281E0809390021A
:102D900010926B0261E082E00E94010961E083E031
:102DA0000E9401098091B9008E7F8093B9008091C3
:102DB000B9008D7F8093B90080E28093B80085E4EC
:102DC0008093BC004EC061E00E94010961E08091E7
:102DD00082030E943109809185038F3F09F034C03E
:102DE0001FB7F89480918401811127C0E0E7F1E0DA
:102DF0008491E3E4F1E09491E82FF0E0EE0FFF1FFF
:102E0000EC5DFE4FA591B491EC91E92321F461E0D2
:102E100081E10E94010961E081E10E9431098CB5E4
:102E200080618CBD8CB580648CBD61E08FE00E94B8
:102E3000310961E080E10E943109809184018F5F56
:102E4000809384011FBF0DC061E00E94310961E0E1
:102E5000809183030E94310960E0809184030E9485
:102E600031096FE088E693E00E945E068333D9F46F
:102E700067E080E20E94421360E288E693E00E94ED
:102E80005E068F70682F606780E20E94421368E8D8
:102E900083E20E94421360E182E20E94421360E8F2
:102EA0008FE10E944213809178048CAB8091790469
:102EB0008DAB80917A048EAB80917E0489AB80913A
:102EC0007F048AAB809180048BAB6E01F1E3CF0E5F
:102ED000D11C8E010C5C1F4F28E030E0A60160E0A1
:102EE00070E0C7010E94D80480917B048CAB809174
:102EF0007C048DAB80917D048EAB8091780489AB8E
:102F0000809179048AAB80917A048BAB2FE030E01A
:102F1000A60168E070E0C7010E94D80428EBE21621
:102F200022E0F20629F020F0C7010E940F1111C023
:102F300080E390E028EE32E0F601D90180FF05C081
:102F400002C002900E9202900E928250D0F79040F2
:102F5000C0F768EB7BE080E090E00E94BD098091C3
:102F60009801811145C010928A01109289018FEF5A
:102F700080938D0180938E0180938F0180939001C7
:102F8000809391018093920181E08093930110924C
:102F900095011092940110928C0110928B018091F6
:102FA000B6029091B702892B31F487E891E09093B3
:102FB000B7028093B602E0918501F09186013097C7
:102FC00021F087E891E09583848387E891E09093EE
:102FD00086018093850110929701109296018CE2F0
:102FE00091E0909388018093870181E0809398011C
:102FF000E0918701F09188010480F581E02D87E858
:1030000091E0099587EA91E090938A018093890184
:103010008AE090E09093950180939401E09187017C
:10302000F09188010284F385E02D87E891E009950D
:10303000009729F19C0140E050E060E472E48FE0E9
:1030400090E00E942B1F722F632F00914703109175
:1030500048032091490330914A03872F962FDA01C4
:1030600080179107A207B30710F4D901C801809314
:10307000470390934803A0934903B0934A0380EB1E
:1030800080938D018FEF80938E0180938F0180E478
:10309000809344030E94820A6093A3017093A40169
:1030A0008093A5019093A60188248A94F3E09F2E33
:1030B000A12CB12CA0ED4A2EA7E05A2E612C712C28
:1030C00005E018E085E10E94D808892B09F05BC073
:1030D0002090B6023090B70221143104B1F0D10132
:1030E00012968D919C911397009759F01D966D91B2
:1030F0007C911E97AB01440F551F640F751F0E94F2
:10310000DD12F10124803580E7CF809144030E94D5
:103110002211F89484B7877F84BF80916000886112
:1031200080936000F6E0F09360008091600080641E
:1031300080936000789483B7817F846083BF83B776
:10314000816083BF889583B78E7F83BF83B78E7F6F
:1031500083BF80915103909152038F3F2FEF9207CD
:1031600009F4B0CF83FF02C028E201C028E08770D5
:10317000822B38E10FB6F894A895309360000FBE0B
:10318000809360009FCF47EA51E0A9EAB1E0FA01DD
:10319000208135EF239F020E20E0211D2083FD01B9
:1031A0002291239F020E20E0211D20832C91239F3A
:1031B000020E20E0211D2C9311244D5F5F4F1396CA
:1031C000F1E0453C5F0719F70E94820A2091A301B4
:1031D0003091A4014091A5015091A601DC01CB01E1
:1031E000821B930BA40BB50B8B389240A105B10544
:1031F00008F4B7C087E10E946D099C01AFEFB0E011
:103200000E94771FA50194010E942B1F2A303105CF
:103210004105510554F019013FEF2316310441F0E7
:103220003CF022242A94312C03C04AE0242E312C75
:103230000E9497122092440320E030E048EC52E4D0
:103240000E94481D0E94341C9B01AC0128553B4143
:1032500041095109A0EFB0E00E944A1FA301920169
:103260000E942B1F422F42954F702F70E42FEE0FBC
:10327000E40FF0E0E854FD4F8081918132812223F8
:1032800009F42DC04F3011F0339602C0E8EBF2E0A4
:103290002295207F522F50954081682F659F060E02
:1032A00060E0611D429F040E40E0411D862F840FA7
:1032B0004181692F659F060E60E0611D429F040EEB
:1032C00040E0411D962F940F4281359F030E30E060
:1032D000311D429F040E40E0411D340F11248093A4
:1032E000A0019093A1013093A201E091B602F09168
:1032F000B702309739F08187928733870480F58150
:10330000E02DF7CF8091000190910101809FF001A5
:10331000819FF00D909FF00D1124E75EF94CF09322
:103320000101E09300019F01AAE0B0E00E94771F35
:10333000AC0166277727CA01880F991F480F591FCC
:10334000CA0189559E4F1C01DC018C91811109C075
:1033500011968C911197811104C012968C9188233B
:1033600081F1809144030E9422110E94820A2496D6
:103370006CAF7DAF8EAF9FAF249761E070E080E0CF
:1033800090E00E94BD09809144030E9422110E9496
:10339000820ADC01CB0124962CAD3DAD4EAD5FAD74
:1033A0002497821B930BA40BB50BC297A105B10503
:1033B00020F380E090E0892B09F484CE0E94000085
:1033C00081CEE09F9001E19F300DF09F300D1124E0
:1033D000275E394C632F620F209FC001219F900D03
:1033E000309F900D1124875E994C9093010180933A
:1033F0000001890F89AB3FE7639FC001112480E87A
:10340000890F8AAB8FEF8BABB701C6010E948F107B
:103410003981D1012C91230F08F42FEFF101208382
:103420003A812181230F08F42FEF11962C931197E5
:103430003B8112962C91230F08F42FEF22830E94D8
:10344000820A6093A3017093A4018093A5019093D5
:10345000A60187CF83E593E00C94FF050F931F939C
:10346000CF93DF9300D01F92CDB7DEB71092EB025F
:103470001092EA0248EE53E060E070E04093EC0204
:103480005093ED026093EE027093EF0285E491E0B9
:103490009093E9028093E8028FEF9FEF9093F502FB
:1034A0008093F40210923B0310923A0340933C0342
:1034B00050933D0360933E0370933F0325E531E055
:1034C00030933903209338032FEF20934403109255
:1034D0004603109245031092500310924F034FEF92
:1034E0005FEFBA0140934B0350934C0360934D033D
:1034F00070934E03909352038093510310928D0466
:1035000010928F0410928E041092900410929104E5
:1035100010929204E3E9F4E080E48E0F11928E138E
:10352000FDCF1092D3041092D5041092D404E091F0
:103530003C05F0913D05309709F0099591E0909395
:103540005303109254031092560310925503109295
:103550005803109257038FEF8093590310925A0328
:1035600010925C0310925B0390935D0310925E03D4
:1035700022E020935F039093600310926103109206
:103580006203109263031092640325E631E03093E6
:103590006903209368034FEF5FEFBA0140937D0307
:1035A00050937E0360937F03709380038093820324
:1035B0008093830380938403809385031092870311
:1035C00000E010E040E060E0C80188579C4F0E9496
:1035D0008D05025E1F4F003F1105A1F780EA898328
:1035E0001FEF1A831B836EE774E0CE0101960E94E1
:1035F0008F1019821A831B836BE774E0CE0101964A
:103600000E948F10109378041093790410937A0419
:103610000F900F900F90DF91CF911F910F91089510
:10362000DB018F939F930E944A1FBF91AF91A29F8E
:10363000800D911DA39F900DB29F900D11240895B0
:10364000AA1BBB1B51E107C0AA1FBB1FA617B707C8
:1036500010F0A61BB70B881F991F5A95A9F78095E4
:103660009095BC01CD01089597FB072E16F40094A8
:1036700007D077FD09D00E94201B07FC05D03EF43F
:10368000909581959F4F0895709561957F4F08950E
:10369000EE0FFF1F0590F491E02D09940E94771F13
:1036A000B7FF0895821B930B08955058BB27AA2794
:1036B0000E946D1B0C94BE1C0E94B01C38F00E942E
:1036C000B71C20F039F49F3F19F426F40C94AD1C7C
:1036D0000EF4E095E7FB0C94A71CE92F0E94CF1C89
:1036E00058F3BA17620773078407950720F079F437
:1036F000A6F50C94F11C0EF4E0950B2EBA2FA02D1C
:103700000B01B90190010C01CA01A0011124FF278E
:10371000591B99F0593F50F4503E68F11A16F04089
:10372000A22F232F342F4427585FF3CF4695379588
:103730002795A795F0405395C9F77EF41F16BA0B4D
:10374000620B730B840BBAF09150A1F0FF0FBB1FFB
:10375000661F771F881FC2F70EC0BA0F621F731F44
:10376000841F48F4879577956795B795F7959E3FA1
:1037700008F0B0CF9395880F08F09927EE0F979532
:10378000879508950E94D61B0C94BE1C0E94B71CFE
:1037900058F00E94B01C40F029F45F3F29F00C94CF
:1037A000A71C51110C94F21C0C94AD1C0E94CF1C50
:1037B00068F39923B1F3552391F3951B550BBB2760
:1037C000AA2762177307840738F09F5F5F4F220FA5
:1037D000331F441FAA1FA9F335D00E2E3AF0E0E89C
:1037E00032D091505040E695001CCAF72BD0FE2FE6
:1037F00029D0660F771F881FBB1F2617370748077A
:10380000AB07B0E809F0BB0B802DBF01FF27935831
:103810005F4F3AF09E3F510578F00C94A71C0C9432
:10382000F21C5F3FE4F3983ED4F386957795679555
:10383000B795F7959F5FC9F7880F911D9695879566
:1038400097F90895E1E0660F771F881FBB1F621785
:1038500073078407BA0720F0621B730B840BBA0B43
:10386000EE1F88F7E09508950E943B1C6894B11103
:103870000C94F21C08950E94D71C88F09F5798F072
:10388000B92F9927B751B0F0E1F0660F771F881F65
:10389000991F1AF0BA95C9F714C0B13091F00E947F
:1038A000F11CB1E008950C94F11C672F782F882744
:1038B000B85F39F0B93FCCF3869577956795B395A6
:1038C000D9F73EF490958095709561957F4F8F4F15
:1038D0009F4F0895E89409C097FB3EF4909580951A
:1038E000709561957F4F8F4F9F4F9923A9F0F92FC6
:1038F00096E9BB279395F695879577956795B79544
:10390000F111F8CFFAF4BB0F11F460FF1BC06F5F29
:103910007F4F8F4F9F4F16C0882311F096E911C03B
:10392000772321F09EE8872F762F05C0662371F05C
:1039300096E8862F70E060E02AF09A95660F771F70
:10394000881FDAF7880F9695879597F9089597F964
:103950009F6780E870E060E008959FEF80EC089535
:1039600000240A941616170618060906089500245E
:103970000A9412161306140605060895092E0394D8
:10398000000C11F4882352F0BB0F40F4BF2B11F44C
:1039900060FF04C06F5F7F4F8F4F9F4F089557FDAB
:1039A0009058440F551F59F05F3F71F04795880FAD
:1039B00097FB991F61F09F3F79F087950895121644
:1039C00013061406551FF2CF4695F1DF08C01616F0
:1039D00017061806991FF1CF8695710561050894A1
:1039E0000895E894BB2766277727CB0197F90895B8
:1039F00016F00C94B51D0C94AD1C68940C94A71C87
:103A00000E94D71CA8F39923C1F3AEF3DF93CF93A1
:103A10001F930F93FF92C92FDD2788232AF0219748
:103A2000660F771F881FDAF720E030E040E85FEB91
:103A30009FE3883920F0803E38F021968F770E94EE
:103A4000561BEAECF0E004C00E94561BE7EFF0E0E2
:103A50000E94C31D8B01BE01EC01FB2E6F57710943
:103A60007595771F880B990B0E946C1C28E132E733
:103A700041E35FE30E945B1DAF2D9801AE01FF9013
:103A80000F911F91CF91DF910E946D1B0C94BE1C72
:103A90000E945B1D0C94BE1C0E94B01C38F00E945A
:103AA000B71C20F0952311F00C94A71C0C94AD1CAE
:103AB00011240C94F21C0E94CF1C70F3959FC1F34B
:103AC000950F50E0551F629FF001729FBB27F00DCC
:103AD000B11D639FAA27F00DB11DAA1F649F662721
:103AE000B00DA11D661F829F2227B00DA11D621F70
:103AF000739FB00DA11D621F839FA00D611D221F2A
:103B0000749F3327A00D611D231F849F600D211D0D
:103B1000822F762F6A2F11249F5750409AF0F1F090
:103B200088234AF0EE0FFF1FBB1F661F771F881FF9
:103B300091505040A9F79E3F510580F00C94A71C6E
:103B40000C94F21C5F3FE4F3983ED4F3869577958E
:103B50006795B795F795E7959F5FC1F7FE2B880F9F
:103B6000911D9695879597F908959F3F31F0915053
:103B700020F4879577956795B795880F911D969551
:103B8000879597F90895DF93CF931F930F93FF9233
:103B9000EF92DF927B018C01689406C0DA2EEF0170
:103BA0000E945B1DFE01E894A591259135914591F8
:103BB0005591A6F3EF010E946D1BFE019701A8012C
:103BC000DA9469F7DF90EF90FF900F911F91CF91FA
:103BD000DF910895CF93DF938230910510F482E056
:103BE00090E0E0914505F091460520E030E0C0E02E
:103BF000D0E0309711F14081518148175907C0F04A
:103C00004817590761F482819381209719F09B83AB
:103C10008A832BC0909346058093450526C02115C5
:103C2000310519F04217530718F49A01BE01DF015C
:103C3000EF010280F381E02DDCCF2115310509F180
:103C4000281B390B2430310590F412968D919C91EC
:103C500013976115710521F0FB019383828304C0E2
:103C60009093460580934505FD01329644C0FD01C1
:103C7000E20FF31F81939193225031092D933C93CE
:103C80003AC02091430530914405232B41F4209103
:103C90001001309111013093440520934305209188
:103CA0000E0130910F012115310541F42DB73EB7BA
:103CB0004091120150911301241B350BE0914305F3
:103CC000F0914405E217F307A0F42E1B3F0B2817D1
:103CD000390778F0AC014E5F5F4F2417350748F085
:103CE0004E0F5F1F5093440540934305819391937A
:103CF00002C0E0E0F0E0CF01DF91CF9108950F9393
:103D00001F93CF93DF93009709F48CC0FC01329787
:103D10001382128200914505109146050115110587
:103D200081F420813181820F931F209143053091CE
:103D300044052817390779F5F0934405E0934305C6
:103D400071C0D80140E050E0AE17BF0750F41296A2
:103D50002D913C911397AD012115310509F1D90140
:103D6000F3CF9D01DA013383228360817181860F55
:103D7000971F8217930769F4EC0128813981260F78
:103D8000371F2E5F3F4F318320838A819B8193832E
:103D90008283452B29F4F0934605E093450542C004
:103DA0001396FC93EE931297ED01499159919E0160
:103DB000240F351FE217F30771F480819181840F7E
:103DC000951F029611969C938E93828193811396F0
:103DD0009C938E931297E0E0F0E0D80112968D91BB
:103DE0009C911397009719F0F8018C01F6CF8D91F3
:103DF0009C9198012E5F3F4F820F931F20914305A6
:103E0000309144052817390769F4309729F4109246
:103E100046051092450502C0138212821093440594
:103E200000934305DF91CF911F910F91089581E099
:103E300090E0F8940C94861FFB01DC014150504047
:103E400048F001900D920020C9F701C01D92415029
:103E50005040E0F70895052E97FB1EF400940E9451
:103E6000421F57FD07D00E94551F07FC03D04EF498
:103E70000C94421F50954095309521953F4F4F4FE0
:103E80005F4F089590958095709561957F4F8F4F06
:103E90009F4F08950E94771FA59F900DB49F900D8E
:103EA000A49F800D911D11240895A1E21A2EAA1B32
:103EB000BB1BFD010DC0AA1FBB1FEE1FFF1FA217DA
:103EC000B307E407F50720F0A21BB30BE40BF50BD7
:103ED000661F771F881F991F1A9469F76095709560
:103EE000809590959B01AC01BD01CF010895A29FE3
:103EF000B001B39FC001A39F700D811D1124911DBE
:103F0000B29F700D811D1124911D089511E0C0E232
:103F1000D1E004C0FE010E94481B2196C132D107A6
:063F2000C9F7F894FFCF81
:103F26003905FFFFFFFF00E1000000000000000070
:103F3600470580000100000000000000D608D608F2
:103F4600D608AE02AA02A702000000006402200200
:103F56001E02AE02AA021B02110300C180810000EC
:103F660000000000000208F70923089408B20818A8
:103F76000800000000A40167015F014B0185088469
:103F860008000000000108D202CD01A206D40200FA
:103F960000000000000000CD01D608D6084C4953A9
:043FA6003344480058
:00000001FF
