:100000000C94F8000C9420010C9420010C94200115
:100010000C9420010C9420010C9420010C942001DC
:100020000C9420010C9420010C94F61A0C947D1968
:100030000C943B0D0C9420010C9420010C94200195
:100040000C9420010C9420010C9420010C942001AC
:100050000C9420010C9420010C9420010C949B140E
:100060000C9420010C9420010C9420010C9420018C
:100070000C9420010C9420010C9420010C9420017C
:100080000C94EA160C9420010C9420010C9420018D
:100090000C946E130C9420010C9420010C942001FC
:1000A0000C9420010C9420010C942001ED15F01506
:1000B000DF15E315E915111611161116F415F815CB
:1000C000FC150216061611160C160706050401008B
:1000D000080A0B0C0D090000000200090F000003C4
:1000E0000401000C000000000000000000000000FF
:1000F0000000000000040802011040804010204071
:10010000804080080204018040201002011080100D
:1001100020404020040404040403040502020202F7
:100120000403020202020606060606060404020290
:10013000020404000000002300260029002C002FE8
:100140000000000000250028002B002E00310000D8
:10015000000000240027002A002D003000120100BA
:1001600002EF0201409A23118000010102030112F3
:10017000010002000000409A2311800001010203E7
:1001800001416461667275697400436972637569DF
:100190007420506C617967726F756E640004030996
:1001A00004080B000202020100090400000102021F
:1001B00000000524001001052401010104240206A9
:1001C0000524060001070581031000400904010011
:1001D000020A000000070502024000000705830232
:1001E00040000000BD06340DE5108C12C41CD6067C
:1001F00011241FBECFEFDAE0DEBFCDBF11E0A0E0DB
:10020000B1E0E8E8F1E402C005900D92A637B1072D
:10021000D9F724E0A6E7B1E001C01D92AE32B207E3
:10022000E1F711E0CEEED1E004C02297FE010E947A
:10023000501FC43ED107C9F70E94AD160C94B720D9
:100240000C94000080E991E00895209A089564E1FB
:1002500087EB91E00E949D0568EB7BE080E090E0F9
:100260000E94141580918801811145C010927A0175
:10027000109279018FEF80937D0180937E018093AE
:100280007F0180938001809381018093820181E0CE
:1002900080938301109285011092840110927C0159
:1002A00010927B018091E9029091EA02892B31F44E
:1002B00087E791E09093EA028093E902E091E702F8
:1002C000F091E802309721F087E791E095838483ED
:1002D00087E791E09093E8028093E702109287010C
:1002E0001092860188E291E09093780180937701E3
:1002F00081E08093880120E030E04AE050E060E94E
:1003000071E087E791E00E94AA10FC0180EB8683F0
:100310008FEF8783808780E48093EB020E94E5144F
:100320006093AE017093AF018093B0019093B101DF
:1003300008959F92AF92BF92CF92DF92EF92FF9279
:100340000F931F93CF93DF9300D000D000D0CDB791
:10035000DEB787EB91E00E94B106811112C060E028
:100360008BEE92E00E9444106091EB028BEE92E0E3
:100370000E940C0F68EE73E08BED92E00E94B00DCE
:10038000E8CF4AE06AE070E080E991E00E944A0E1E
:100390000E94E5140091AE011091AF012091B001CF
:1003A0003091B101601B710B820B930B00910C011A
:1003B00010910D0120E030E00617170728073907D4
:1003C00008F086C087EB91E00E94BA06BC0180E08D
:1003D00090E01F921F921F9299249A949F92A12CB1
:1003E000B12C6501EE24EA9413E0F12E00E010E058
:1003F00020E030E0A9010E948B1B0F900F900F901E
:100400000F906A307105810591057CF187EB91E0D1
:100410000E94BA06BC0180E090E01F921F921F92DA
:100420009F9220E030E0A9010E948B1B0F900F905B
:100430000F900F906F3F71058105910509F0BCF495
:1004400087EB91E00E94BA06BC0180E090E01F9229
:100450001F921F929F9220E030E0A9010E948B1B07
:100460000F900F900F900F9003C06AE001C06FEFE4
:100470006093EB0280910E0190910F01E5E0F8E0AE
:100480008E9FA0018F9F500D9E9F500D1124475E9F
:10049000594C50930F0140930E019A01AAE0B0E02D
:1004A0000E94541FAA27BB278C01000F111F080FA1
:1004B000191F00571E4FD8018C91811109C0119648
:1004C0008C911197811104C012968C91882311F19F
:1004D0006091EB028BEE92E00E940C0F40910A01BA
:1004E00050910B0160E070E08BEE92E00E948D0F66
:1004F00026960FB6F894DEBF0FBECDBFDF91CF9129
:100500001F910F91FF90EF90DF90CF90BF90AF9031
:100510009F9008954E9F90014F9F300D5E9F300D2C
:100520001124275E394C632F620F4FE7649F612DC2
:10053000112445E058E0249FC001259F900D349F71
:10054000900D1124875E994C90930F0180930E01BA
:10055000890F8C8360586D838FEF8E83BE016F5F30
:100560007F4FCE0104960E94F8103981F801208156
:10057000230F08F42FEF20833A812181230F08F401
:100580002FEFF80121833B812281230F08F42FEF05
:1005900022830E94E5146093AE017093AF018093B3
:1005A000B0019093B10194CF8F929F92AF92BF927E
:1005B000CF92DF92EF92FF920F931F93CF93DF932F
:1005C000EC01E881F98195B1916085B18E7F85B9A3
:1005D00038852D81D32ED21ADD82AD84AA81BB81CC
:1005E0002B859A848C84EC80FE807F81198509900C
:1005F000D881C02D0981002331F0402F0D2D400FEF
:1006000008F44FEF01C040E0042F029F012D112498
:10061000C0E04C2F5C2F6C2F002CEA01CC2E4C2D0F
:100620005D2F002C95B907FF85B960814427889418
:1006300085B961116E0D002C95B906FF85B908F4D6
:100640006FEF8894002C85B990FC460F002C95B96B
:1006500005FF85B94795889491FC460F85B9479564
:100660008894002C95B904FF85B992FC460F4795F4
:10067000889485B993FC460F002C95B903FF85B982
:100680004795889494FC460F85B947958894002C2B
:1006900095B902FF85B995FC460F4795889485B9B1
:1006A00096FC460F002C95B901FF85B947958894B3
:1006B00097FC460F85B947958894002C95B900FFA3
:1006C00085B9E194E70E00C085B9042F002C002CF9
:1006D00095B907FF85B962814427889485B961116E
:1006E0006F0D002C95B906FF85B908F46FEF88945B
:1006F000002C85B980FC460F002C95B905FF85B903
:100700004795889481FC460F85B947958894002CBD
:1007100095B904FF85B982FC460F4795889485B941
:1007200083FC460F002C95B903FF85B94795889443
:1007300084FC460F85B947958894002C95B902FF33
:1007400085B985FC460F4795889485B986FC460F88
:10075000002C95B901FF85B94795889487FC460F11
:1007600085B947958894002C95B900FF85B9EA0DA5
:10077000F11D8894042F85B9F194F10E002C95B9E0
:1007800007FF85B961814427889485B961116D0D92
:10079000002C95B906FF85B908F46FEF8894002CFA
:1007A00085B920FD460F002C95B905FF85B9479501
:1007B000889421FD460F85B947958894002C95B9FA
:1007C00004FF85B922FD460F4795889485B923FD1E
:1007D000460F002C95B903FF85B94795889424FDF1
:1007E000460F85B947958894002C95B902FF85B9C5
:1007F00025FD460F4795889485B926FD460F002CA8
:1008000095B901FF85B94795889427FD460F85B9AD
:1008100047958894002C95B900FF85B9D194D30EE3
:10082000042F002C85B9119709F0FBCEDF91CF91F1
:100830001F910F91FF90EF90DF90CF90BF90AF90FE
:100840009F908F900895FF920F931F93CF93DF9304
:10085000EC01809176018F5F982F977090937601CD
:1008600080FD02C080E001C080E891FD806494704A
:1008700009F0806250E1F52EF80E20E030E000E053
:1008800011E0FE01E20FF31F6285662331F070E094
:10089000C8010E94F91E6F5F01C060E067834F2DA1
:1008A000469F412D11244483662311F061506783D4
:1008B0002F5F3F4F2330310521F7DF91CF911F91FB
:1008C0000F91FF900895AF92BF92CF92DF92EF9277
:1008D000FF920F931F93CF93DF93CDB7DEB72E9781
:1008E0000FB6F894DEBF0FBECDBF6C015A01F901FF
:1008F000DC011C968C917A8369835C834B839081A5
:100900009B8791819C8792819D87813029F4CE01BC
:1009100001960E94230406C01A86198618861F8233
:100920001E821D8289819A818E0D911D9A838983F1
:10093000002319F083E08E0D01C080E08E870E94B5
:10094000F114F60127853089621B730B6A3071053B
:10095000B0F3F894CE0101960E94D40220EF30E06B
:10096000D5010E94631FA3E09695879577956795BB
:10097000AA95D1F740E050E02AE9A29E412DB29E0F
:10098000400D511D11248A0120E030E0000F111F9D
:10099000221F331F060F171F281F391F093EF3E0C0
:1009A0001F0721053105A8F1B901A801485E534090
:1009B00061097109E2E07695679557954795EA9543
:1009C000D1F780E090E027E0429F812D529F800D7B
:1009D000911D11242091B20130E0240F351F280F02
:1009E000391F8091B3039091B403A091B503B091E6
:1009F000B603432F5527840F951FA11DB11D80936A
:100A0000B3039093B403A093B503B093B6032093BC
:100A1000B20178940E94F114D60150967C936E93A3
:100A20001F972E960FB6F894DEBF0FBECDBFDF9195
:100A3000CF911F910F91FF90EF90DF90CF90BF90DB
:100A4000AF900895EF92FF920F93E12CF12C00E00C
:100A50000E9463040F91FF90EF900895EF92FF9230
:100A60000F93E12CF12C01E00E9463040F91FF90A1
:100A7000EF900895EF92FF920F93CF93DF9300D002
:100A80001F92CDB7DEB7AB0119821A821B82E12C0F
:100A9000F12C00E09E012F5F3F4FB9010E946304DB
:100AA0000F900F900F90DF91CF910F91FF90EF90EB
:100AB0000895CF93CFB7F8948091B601811127C0E4
:100AC000E5E2F1E08491E6E0F1E09491E82FF0E0D6
:100AD000EE0FFF1FE15BFE4FA591B4918C9189232E
:100AE00021F461E081E10E944B1661E081E10E9406
:100AF00012168CB580618CBD8CB580648CBD61E0B4
:100B00008FE00E94121661E080E10E94121680912F
:100B1000B6018F5F8093B601CFBFCF91089526E3D2
:100B200031E0FC01318320830895089526E331E00C
:100B3000FC01318320830C94C016FF920F931F9306
:100B4000CF93DF93CDB7DEB76E970FB6F894DEBFC5
:100B50000FBECDBF8C01F62E61E08DE00E94121613
:100B600060E085E10E94121660E084E00E941216A7
:100B700060E083E10E94121661E085E00E94121697
:100B800061E08EE10E94121622E530E041E16AE068
:100B900070E0CE0101960E94530C85E1FE01319672
:100BA000D80101900D928A95E1F7CE0101960E943D
:100BB000440A68E0CE0101960E946E078B81F8011D
:100BC000878B8C819D81918F808F8E819F81938F68
:100BD000828F88859985958F848F8A859B85AC8542
:100BE000BD85868F978FA0A3B1A38E859F85A88989
:100BF000B98982A393A3A4A3B5A38A899B89AC894D
:100C0000BD8986A397A3A0A7B1A74E895F89688DE8
:100C1000798D42A753A764A775A78A8D86A78B8D68
:100C200087A78C8D80AB8D8D81AB8E8D82ABC801FB
:100C30000E94580AC8010E94DC0A6F2DC8010E9458
:100C40007B0C40E06EE1CE0101960E94BC0C8EE16F
:100C5000FE013196D801D49601900D928A95E1F764
:100C600041E06EE1CE0101960E94BC0CD801AE5A63
:100C7000BF4F8EE1FE01319601900D928A95E1F70A
:100C800042E06EE1CE0101960E94BC0CD801A05951
:100C9000BF4F8EE1FE01319601900D928A95E1F7EA
:100CA00043E06EE1CE0101960E94BC0CD801A25730
:100CB000BF4F8EE1FE01319601900D928A95E1F7CA
:100CC00046E06EE1CE0101960E94BC0CD801A4550D
:100CD000BF4F8EE1FE01319601900D928A95E1F7AA
:100CE00049E06EE1CE0101960E94BC0CD801A653EA
:100CF000BF4F8EE1FE01319601900D928A95E1F78A
:100D00004AE06EE1CE0101960E94BC0CD801A851C8
:100D1000BF4F8EE1FE01319601900D928A95E1F769
:100D20004CE06EE1CE0101960E94BC0CD801AA5F96
:100D3000BE4F8EE1FE01319601900D928A95E1F74A
:100D400068E1C80145960E94E4096E960FB6F894D2
:100D5000DEBF0FBECDBFDF91CF911F910F91FF90EE
:100D6000089585E10E94811621E0892B09F420E095
:100D7000822F089587E10C94A415CF93DF9387EB1E
:100D800091E00E942D0A8CEC91E00E945C07CBEE72
:100D9000D1E040E060E0CE010E94BC0C6E9682E0A3
:100DA000CB3DD807B1F7DF91CF91089586E391E06D
:100DB0009093CD018093CC0187EB91E00C94440A91
:100DC00026E331E0FC0131832083089526E331E0FE
:100DD000FC01318320830C94C0160F931F93CF9393
:100DE000DF938C01EB0188E2FB0111928A95E9F710
:100DF0004BE050E060E471E0CE010E94A8201B8629
:100E000041E050E060E070E04C875D876E877F874F
:100E1000F801058916892789308D088B198B2A8B53
:100E20003B8B4C8B5D8B6E8B7F8B1CA21DA21EA2FD
:100E30001FA2188E198E1A8E1B8E1C8E1D8E1E8E52
:100E40001F8E18A219A21AA21BA2DF91CF911F9187
:100E50000F910895DC01ED91FC910190F081E02D5E
:100E600009942091B501222399F03FB7F89420917D
:100E7000B501213059F42DB32093B3014DB3209126
:100E8000B401209524232DBB3FBF02C03093B30192
:100E90008CBD9DBD08958091B501882361F09FB7F9
:100EA000F8942091B5018091B301213019F48DBBE4
:100EB0009FBF08958FBF0895FC018BE491E091835B
:100EC00080834FEF5FEFBA01458B568B678B708F36
:100ED0008FEF828F838F848F858F0895FC01262F5B
:100EE0008BE491E0918380834FEF5FEFBA01458BF4
:100EF000568B678B708F228F8FEF838F848F858FB8
:100F00000895AF92BF92DF92EF92FF920F931F93DB
:100F1000CF93DF931F92CDB7DEB75C01D62EFC01D5
:100F2000858D8F3F39F46EBD00000DB407FEFDCFF7
:100F30008EB52AC007E010E040E0EE24E394F12CE7
:100F4000440F60E0F501858D49830E944B1697019F
:100F5000002E01C0220F0A94EAF76D2D6223F501DD
:100F6000838D0E944B1661E0F501858D0E944B1622
:100F7000F501848D0E9481164981892B09F0416019
:100F800001501109E8F6842F0F90DF91CF911F9146
:100F90000F91FF90EF90DF90BF90AF9008950F9367
:100FA0001F93CF93DF93EC01062F142F8A8D8F3F71
:100FB000B9F4698D82EF92E00E946A12602F82EF8D
:100FC00092E00E941112612F82EF92E00E941112B2
:100FD00082EF92E0DF91CF911F910F910C948912D3
:100FE0008D8D8F3F21F481E590E00E94310760E014
:100FF0008A8D0E944B16602F6F77CE010E94810769
:10100000612FCE010E94810761E08A8D0E944B16FC
:101010008D8D8F3F31F4DF91CF911F910F910C9403
:101020004B07DF91CF911F910F9108951F93CF939D
:10103000DF93EC01162F8A8D8F3F11F5898D682F74
:10104000772767FD709582EF92E00E947412612FFE
:1010500082EF92E00E94111282EF92E00E948912C8
:10106000698D772767FD709541E050E082EF92E04F
:101070000E94671282EF92E00E94C111182F1EC0D9
:101080008D8D8F3F21F481E590E00E94310760E073
:101090008A8D0E944B16612F6068CE010E948107E5
:1010A00060E0CE010E948107182F61E08A8D0E94C6
:1010B0004B168D8D8F3F11F40E944B07812FDF91CE
:1010C000CF911F91089563E20E94160890E034E0EA
:1010D000959587953A95E1F7837099270895CF9272
:1010E000DF92EF92FF92CF93DF93EC018A8D8F3FD7
:1010F00009F056C0698D772767FD709582EF92E001
:101100000E94741268EA70E082EF92E00E942A075F
:1011100082EF92E00E948912698D772767FD7095B2
:1011200046E050E082EF92E00E94671282EF92E088
:101130000E94C1119C838B8382EF92E00E94C111B7
:1011400020E030E0382F8B819C81822B932B9C8375
:101150008B8382EF92E00E94C1119E838D8382EF88
:1011600092E00E94C11120E030E0382F8D819E81F5
:10117000822B932B9E838D8382EF92E00E94C1117C
:1011800098878F8382EF92E00E94C11120E030E0C7
:10119000382F8F819885822B932B98878F8348C017
:1011A0008D8D8F3F21F481E590E00E94310760E052
:1011B0008A8D0E944B1668EECE010E9481076FEF68
:1011C000CE010E94810790E09C838B836FEFCE015C
:1011D0000E9481072B813C81382B3C832B836FEF4E
:1011E000CE010E94810790E09E838D836FEFCE0138
:1011F0000E9481072D813E81382B3E832D836FEF26
:10120000CE010E94810790E098878F836FEFCE0117
:101210000E9481072F813885382B38872F8361E022
:101220008A8D0E944B168D8D8F3F11F40E944B07C3
:10123000CE010E946308833049F0823051F0813042
:1012400059F0882361F061E070E00BC065E575E05E
:1012500008C060E070E105C06EEF7FE102C06CEF96
:101260007FE380E090E00E94E41D6B017C016B81D4
:101270007C81882777FD8095982F0E94E61DA70125
:1012800096010E947C1D69877A878B879C876D8178
:101290007E81882777FD8095982F0E94E61DA70103
:1012A00096010E947C1D6D877E878F87988B6F814A
:1012B0007885882777FD8095982F0E94E61DA701E5
:1012C00096010E947C1D698B7A8B8B8B9C8BDF91A6
:1012D000CF91FF90EF90DF90CF9008950F931F93E1
:1012E000CF93DF938C01EB0184E2FB0111928A958D
:1012F000E9F784E290E0A0E0B0E088839983AA83D4
:10130000BB83F80185899689A789B08D8C839D83DD
:10131000AE83BF8381E090E0A0E0B0E0888799874A
:10132000AA87BB87188A198A1A8A1B8AC8010E9451
:101330006F082AE038EE4CE151E4F80161857285CE
:10134000838594850E94721E6C8B7D8B8E8B9F8B08
:101350002AE038EE4CE151E4F80165857685878511
:1013600090890E94721E688F798F8A8F9B8F2AE0E6
:1013700038EE4CE151E4F8016189728983899489DE
:101380000E94721E6C8F7D8F8E8F9F8FDF91CF9109
:101390001F910F9108950F931F93CF93DF93EC014B
:1013A0008B0160E20E941608482F4F7054E0000F36
:1013B000111F5A95E1F7402B60E2CE01DF91CF91EA
:1013C0001F910F910C94CF07CF93DF93EC01698F9E
:1013D0008A8D8F3F29F482EF92E00E94501218C04C
:1013E00061E00E944B1661E08A8D0E9412168D8D7D
:1013F0008F3F19F40E9459050BC061E00E9412163C
:1014000061E08B8D0E94121660E08C8D0E94121696
:101410006FE0CE010E9416088333D9F447E060E202
:10142000CE010E94CF0767E070E0CE010E94CB0999
:1014300048E863E2CE010E94CF0740E162E2CE01BC
:101440000E94CF0740E86FE1CE010E94CF0781E004
:1014500001C080E0DF91CF910895FC0181E080839D
:10146000118213821282158214829FEF9683178253
:10147000118610868287138692E094878587168668
:101480001786108A118A0895CF93DF93EC0188851F
:101490009985009711F00E940D208E8187FD05C06F
:1014A00060E0DF91CF910C941216DF91CF910895F7
:1014B000CF93DF93EC018E8187FD07C061E00E942E
:1014C000121660E08E810E944B1681E08983DF91C5
:1014D000CF910895EF92FF920F931F93CF93DF93D5
:1014E000EC017B0188859985009711F00E940D2001
:1014F0009D858A85981303C083E090E002C084E054
:1015000090E08E9D80018F9D100D9E9D100D1124E9
:101510001D830C83C8010E94751F998788870097D7
:1015200041F0A80160E070E00E94A120FB82EA8205
:1015300004C01D821C821B821A82DF91CF911F91F1
:101540000F91FF90EF900895FC0121E09585828531
:10155000981320E0CB0136E0969587953A95E1F710
:10156000482F43704587CB0154E0969587955A954F
:10157000E1F7382F33703287CB0196958795969592
:10158000879583708387862F8370848781E06F3F80
:10159000710511F008F080E0808380859185892BAA
:1015A00051F091E0431390E0921729F0628173812A
:1015B000CF010C946A0A0895CF92DF92EF92FF92C6
:1015C0000F931F93CF93DF93CDB7DEB729970FB655
:1015D000F894DEBF0FBECDBF8C01DC0118968D9153
:1015E0009C911997892B09F41DC10E94F114F801EF
:1015F000C684D784E088F1886C197D098E099F091B
:10160000623371058105910580F3F8948481958199
:101610009A838983A085B1857D01EFEFEE1AFE0ADA
:101620008C918987D8018C9152960D90BC91A02DF8
:10163000882309F4BDC01D82AB32B10509F059C041
:101640009BB1F8018489982B98879BB18095892359
:101650008F838F818E83898587FF02C088858E83E3
:1016600058856F8149853E812D8189819A81D70175
:101670005BB9262F3BB900C046FD252F6BB900C0D2
:101680005BB9362F2BB900C045FD352F6BB900C0B3
:101690005BB9262F3BB900C044FD252F6BB900C0B4
:1016A0005BB9362F2BB900C043FD352F6BB900C095
:1016B0005BB9262F3BB900C042FD252F6BB900C096
:1016C0005BB9362F2BB900C041FD352F6BB900C077
:1016D0005BB9262F3BB900C040FD252F6BB90197A0
:1016E0005BB9362F2BB94D9147FD352F6BB901F6FC
:1016F0005BC0959709F08CC095B1F8018489982B4F
:10170000988795B1809589238F838F818E83898572
:1017100087FF02C088858E8358856F8149853E8109
:101720002D8189819A81D70155B9262F35B900C0FD
:1017300046FD252F65B900C055B9362F25B900C023
:1017400045FD352F65B900C055B9262F35B900C004
:1017500044FD252F65B900C055B9362F25B900C005
:1017600043FD352F65B900C055B9262F35B900C0E6
:1017700042FD252F65B900C055B9362F25B900C0E7
:1017800041FD352F65B900C055B9262F35B900C0C8
:1017900040FD252F65B9019755B9362F25B94D91D3
:1017A00047FD352F65B901F649873E832D832EC04D
:1017B0009C91F8018489982B98879C918095892326
:1017C0008F838F818C8388E08B8358856F814985D7
:1017D0003B812C8189819A81F7015C9347FD252FFC
:1017E0002C93262F3A9531F0441F6C9300C000C013
:1017F00000C0F3CF6C93000038E04191019769F786
:10180000F801B38BA28B49873B832C839A8389830E
:1018100078940E94F114D8011E966D937D938D9358
:101820009C93519729960FB6F894DEBF0FBECDBF9B
:10183000DF91CF911F910F91FF90EF90DF90CF90AC
:1018400008951F93CF93DF93EC01162F898188238E
:1018500031F08E8187FD03C060E00E9412161E8366
:101860008981882341F061E0812F0E94121660E097
:10187000812F0E944B16812F90E0FC01EC5EFE4F01
:10188000E491F0E0EE0FFF1FEF5BFE4F25913491E6
:101890003B8B2A8BFC01EB50FF4F84918C8BDF91AB
:1018A000CF911F910895EF92FF920F931F93CF93C3
:1018B000DF931F92CDB7DEB77C018B01FC01118253
:1018C00017821186108616861786108A118AB9012A
:1018D00049830E94A40AB801C7010E946A0A49818B
:1018E000642FC7010F90DF91CF911F910F91FF904F
:1018F000EF900C94210CFF920F931F93CF93DF93E3
:10190000EC01FF24F394F60E2F81F21679F108858D
:1019100019852150B9F06F3F59F430E040E050E0B4
:101920006FEF7FEF80E090E00E942F1FB9010CC0A5
:101930008F2D90E0982F88270197622F70E00E94EA
:10194000E51E02C060E070E0F8018C819D81AF016E
:10195000401B510B4817590740F44081469FC00176
:10196000479F900D11249193F0CFFF82DF91CF918B
:101970001F910F91FF900895EF92FF920F931F9385
:10198000CF93DF93EC01E62EF42E21E030E0398393
:10199000288326E331E03F832E8300EF1AEB24E017
:1019A00030E0088719872A873B8700E21EE420E0A1
:1019B00030E00C871D872E873F878EE1861720F445
:1019C0002FEF3FEF398328838EE18F1520F42FEF1F
:1019D0003FEF3983288361E08E2D0E94121660E06C
:1019E0008F2D0E94121660E08E2D0E944B166E2DD8
:1019F00070E0FB01EB50FF4FE491E88FFB01EC5EE0
:101A0000FE4FE491F0E0EE0FFF1FED5CFE4F2591DD
:101A100034913A8F298F4F2D50E0FA01EB50FF4F50
:101A2000E491EB8FFA01EC5EFE4FE491F0E0EE0FF3
:101A3000FF1FED5CFE4F859194919D8F8C8F4FEF32
:101A40005FEF6FEF7FE04A835B836C837D830E944F
:101A5000E514688B798B8A8B9B8BDF91CF911F91DB
:101A60000F91FF90EF9008958FEF9FEF9093DC021E
:101A70008093DB0208951F920F920FB60F921124EC
:101A80000F900FBE0F901F901895FA01D901603486
:101A90008FE178071CF46115710539F489E090E055
:101AA0009183808380E49FE158C0603A8FE078079B
:101AB0003CF088E090E09183808380EA9FE04DC015
:101AC000603D87E078073CF087E090E09183808379
:101AD00080ED97E042C0683E83E078073CF086E006
:101AE00090E09183808388EE93E037C0643F81E08B
:101AF00078073CF085E090E09183808384EF91E06B
:101B00002CC06A3F71053CF084E090E091838083B3
:101B10008AEF90E022C0683771053CF083E090E0E6
:101B20009183808388E790E018C06C3371053CF0A6
:101B300082E090E0918380838CE390E00EC06E3170
:101B400071053CF081E090E0918380838EE190E02C
:101B500004C0118210828FE090E08D939C930895D1
:101B60000F931F93CF93DF9300D000D0CDB7DEB794
:101B70008C019E012F5F3F4FAE014D5F5F4F0E9472
:101B8000450D8B8183FF02C090E201C090E0877019
:101B9000892BF89494B7977F94BF909160009861D7
:101BA00090936000809360008091600080648093D7
:101BB0006000789483B7817F846083BF83B781603E
:101BC00083BF889583B78E7F83BF83B78E7F83BFA4
:101BD000F801808191818F3FFFEF9F0789F083FF9C
:101BE00002C028E201C028E08770822B28E130E0A3
:101BF0000FB6F894A895209360000FBE8093600004
:101C000089819A810F900F900F900F90DF91CF9163
:101C10001F910F91089511240895CF93DF93EC0144
:101C20002881269F212D28832981269F212D2983E4
:101C30002A81269F212D2A830E940B0ECE01DF913F
:101C4000CF910895CF92DF92EF92FF920F931F935F
:101C5000CF93DF931F92CDB7DEB77B018C01C12CF0
:101C6000D12CCE14DF0461F0642FC80149830E9497
:101C70000D0E8FEFC81AD80A0D5F1F4F4981F1CFA3
:101C80000F90DF91CF911F910F91FF90EF90DF9018
:101C9000CF90089540950C94220E8F929F92AF9210
:101CA000BF92EF92FF920F931F93CF93DF93EC01BC
:101CB000188219821A824423B9F1E0E0F0E08B0126
:101CC0000A5F1F4F7B0189E0E80EF11C842E912CE6
:101CD000A12CB12CD801AE0FBF1F2C91D701AE0F94
:101CE000BF1F6C912223E1F06623D1F030E040E089
:101CF00050E02F5F3F4F4F4F5F4F70E080E090E02C
:101D00006F5F7F4F8F4F9F4F0E94D51E9B01AC018D
:101D1000C501B4010E94D51EDE01AE0FBF1F8C931A
:101D20003196E330F105B1F6CE01DF91CF911F91ED
:101D30000F91FF90EF90BF90AF909F908F9008957C
:101D4000CF93DF93C091E902D091EA02209791F0FE
:101D50008A819B81009751F02D853E85A901440F12
:101D6000551F420F531F60E00E94AE110C80DD81B1
:101D7000C02DECCFDF91CF910895CF92DF92EF92FB
:101D8000FF92CF93DF93EC018091E1029091E20208
:101D90009C012F5F3F4F3093E2022093E1028617B0
:101DA00097079CF10E94E5149B01AC01E091E102D0
:101DB000F091E20288EE93E0E89FB001E99F700D98
:101DC000F89F700D1124882777FD8095982FC0907B
:101DD000DD02D090DE02E090DF02F090E0022C19EC
:101DE0003D094E095F090E940D1F3A832983109215
:101DF000E2021092E1020E94E5146093DD0270930A
:101E0000DE028093DF029093E002DF91CF91FF909A
:101E1000EF90DF90CF900895AF92BF92CF92DF9274
:101E2000EF92FF920F931F93CF93DF9300D01F92F7
:101E3000CDB7DEB78C01B62EF80183819481A581E0
:101E4000B681892B8A2B8B2BD1F00E94F114C09084
:101E5000E302D090E402E090E502F090E6026C1913
:101E60007D098E099F09D8011396CD90DD90ED90E4
:101E7000FC9016976C157D058E059F05E8F20E9473
:101E8000F1146093E3027093E4028093E50290936F
:101E9000E602E090E902F090EA02E114F10451F167
:101EA000F701A484D80111968D919C9112978436E4
:101EB000910508F41486D701ED91FC91C280D3807E
:101EC0004B2DB701CE0101960E944D0EF7014585BD
:101ED0005685628173819E012F5F3F4FC701F601D6
:101EE0000995D7011C96AC921C971496ED90FC9026
:101EF0001597D3CF69E170E0C8010E94BD0E0F9025
:101F00000F900F90DF91CF911F910F91FF90EF9065
:101F1000DF90CF90BF90AF9008958F929F92AF9235
:101F2000BF92CF92DF92EF92FF92CF93DF93EC01BB
:101F30006A017B010E94E5144B015C010E94E514DB
:101F4000681979098A099B096C157D058E059F051D
:101F500058F461E070E080E090E00E941415688120
:101F6000CE010E940C0FEACFDF91CF91FF90EF904E
:101F7000DF90CF90BF90AF909F908F9008958F92F9
:101F80009F92AF92BF92CF92DF92EF92FF920F9308
:101F90001F93CF93DF9300D01F92CDB7DEB78C0194
:101FA0007B01D42EF80183819481A581B681892B90
:101FB0008A2B8B2BD1F00E94F1148090E302909039
:101FC000E402A090E502B090E602681979098A0956
:101FD0009B09D80113968D909D90AD90BC9016975B
:101FE000681579058A059B05E8F20E94F114609353
:101FF000E3027093E4028093E5029093E602A090DE
:10200000E902B090EA02A114B10449F1F501C484D7
:10201000D80111968D919C9112978436910508F400
:102020001486D501ED91FC91808091804D2DB501F4
:10203000CE0101960E944D0EF501458556859E0103
:102040002F5F3F4FB701C501F4010995D5011C96DB
:10205000CC921C971496AD90BC901597D4CF69E1A3
:1020600070E0C8010E94BD0E0F900F900F90DF919D
:10207000CF911F910F91FF90EF90DF90CF90BF9085
:10208000AF909F908F9008950F931F93CF93DF93FE
:1020900000D01F92CDB7DEB78C01662349F01982BC
:1020A0001A821B8240E0BE016F5F7F4F0E94BF0F0C
:1020B000C8010E94A00E0F900F900F90DF91CF915A
:1020C0001F910F910895CF92DF92EF92FF920F939D
:1020D0001F93CF93DF93EC014423F1F06115710559
:1020E00081F19B0140E050E060E472E48FE090E019
:1020F0000E942F1FCB80DC80ED80FE8089019A0139
:102100000C151D052E053F0510F4970186010B8364
:102110001C832D833E8315C06115710571F09B01F1
:1021200040E050E060E472E48FE090E00E942F1FF6
:102130002B833C834D835E8304C01B821C821D82E3
:102140001E82DF91CF911F910F91FF90EF90DF9052
:10215000CF900895CF92DF92EF92FF920F931F934B
:10216000CF93DF93EC016B018A01790112161306FC
:102170001CF07A0100E010E0E881F9810480F5812B
:10218000E02DCE010995C801880F991F800F911F7E
:102190008C0D9D1D9B838A83FE86ED86E881F981E7
:1021A0000084F185E02DCE01099541E0BC018BEE64
:1021B00092E00E946310CE01DF91CF911F910F91A9
:1021C000FF90EF90DF90CF9008958FEF8093EB0218
:1021D0001092ED021092EC020895FC01208122235E
:1021E00021F0269F212D09F02F5FFC012083089507
:1021F000FF920F931F93CF93DF9300D000D0CDB702
:10220000DEB7FC018B014081F1805281842F8F71F8
:10221000880F880F880F282F35E5239F212D112443
:10222000342F3074942F907247FD25C031110EC0A9
:10223000911106C0822F80958B832A8319823FC01B
:102240008BEA8B832B5A2A83198239C091110DC0D6
:10225000382F4AEA349F312D11249BEA931B9B832C
:1022600025552A83198280E02AC01B8280E0822FB4
:1022700080958A8312C0311112C091110BC01B824C
:10228000282F3AEA239F212D11248BEA821B8A836F
:102290002B5A03C02B831A822095298310C09111D9
:1022A00006C085E5820F8B831A828BEA06C08BEA13
:1022B000820F8B831A8280E085E5821B89832FEF52
:1022C000F21601F16F2DCE0103965C830E94ED1092
:1022D0006F2DCE0102960E94ED106F2DCE0101965A
:1022E0000E94ED1011246F2D6095669F612D1124C1
:1022F0008B81860F8B838A81860F8A838981860FE3
:1023000089835C815F3FC9F0F12C2F2D552321F08B
:10231000559F212D09F02F5FF22E622FCE010396DB
:102320000E94ED106F2DCE0102960E94ED106F2DD0
:10233000CE0101960E94ED1011248B81F80180835B
:102340008A818183898182830F900F900F900F90F3
:10235000DF91CF911F910F91FF900895DC0140FF15
:1023600003C001C06D936D934250E0F75040D0F729
:1023700008958091220390E020912303821B91090C
:1023800008952091230380912203281750F4E22F0F
:10239000F0E0EC5DFC4F808190E02F5F2093230301
:1023A00008958FEF9FEF0895E0912303809122031A
:1023B000E81730F4F0E0EC5DFC4F808190E0089588
:1023C0008FEF9FEF08950895CF92DF92EF92FF92E3
:1023D0000F931F93CF93DF937C01CB018A01209150
:1023E000FE02222389F0EB016B01C40ED51ECC1531
:1023F000DD0569F06991D701ED91FC910190F081C3
:10240000E02DC7010995F3CF642F0E944513C80141
:10241000DF91CF911F910F91FF90EF90DF90CF90C0
:102420000895CF93DF931F92CDB7DEB769832091D4
:10243000FE022223D1F02091FF02203240F021E061
:1024400030E0FC013383228380E090E015C080916E
:102450000003E82FF0E0EF5FFC4F998190838F5FDE
:10246000809300038093FF0205C061E0CE010196D6
:102470000E94451381E090E00F90DF91CF91089585
:10248000FC011382128248EE53E060E070E0448366
:1024900055836683778389E591E0918380830895EE
:1024A0001092230310922203109200031092FF0255
:1024B0000C949012862F413208F040E264E273E0FF
:1024C0000E94AE121092230380932203089521E00C
:1024D0000C945A1281E08093FE02609321031092C3
:1024E00000031092FF0208950C946A120F93062FB6
:1024F00021E04091FF0261E073E0809121030E949E
:10250000F212109200031092FF021092FE020F913D
:10251000089561E00C94761282EF92E00C944012E0
:102520001092B10381E08093AF031092AE0361E09B
:1025300082E00E944B1661E083E00E944B16E9EBBB
:10254000F0E080818E7F808380818D7F808380E238
:102550008093B80085E48093BC000895413208F070
:102560003FC09091B1039111FCCF91E09093B103E2
:102570002093AF032FEF2093440310928903240F7D
:10258000209388039093B0039091B003880F892B18
:102590008093B0038091AE03813041F41092AE037A
:1025A0008091B0038093BB0085EC01C085EE8093E1
:1025B000BC008091B1038130E1F3809189038417DD
:1025C00010F4409189032AE833E0FB01D9018A2FF6
:1025D000821B841718F48D918193F9CF842F08956D
:1025E00080E008950F93413208F046C09091B10306
:1025F0009111FCCF92E09093B1030093AF039FEF52
:10260000909344031092890340938803FB016AE886
:1026100073E0DB019A2F961B941718F491919D9308
:10262000F9CF1092B0039091B003880F892B80935B
:10263000B0038091AE03813041F41092AE038091DB
:10264000B0038093BB0085EC01C085EE8093BC0095
:10265000222321F08091B1038230E1F38091440381
:102660008F3F61F080914403803251F080914403A8
:10267000803341F483E007C081E005C080E003C0FF
:1026800082E001C084E00F910895613298F42091B6
:10269000B103243089F460936603FC0188E693E07B
:1026A000DC012A2F281B261718F421912D93F9CF2E
:1026B00080E0089581E0089582E0089585ED80939B
:1026C000BC008091BC0084FDFCCF1092B103089542
:1026D00085EC8093BC001092B10308951F920F9275
:1026E0000FB60F9211242F933F934F935F936F93E5
:1026F0007F938F939F93AF93BF93EF93FF938091BB
:10270000B900887F803609F49CC068F5883209F4E6
:102710005BC090F4803109F454C038F4882309F484
:10272000F5C0883009F44DC0F5C0883109F44CC0BB
:10273000803209F45DC0EEC0803409F468C048F40A
:10274000803309F455C0883309F0E4C08093440312
:10275000A8C0803509F44FC0883509F45DC08834BD
:1027600009F0D8C0D5C0883909F4C6C0A8F48837A4
:1027700009F467C038F4883609F463C0803709F477
:1027800060C0C8C0883809F4B7C0803909F45FC098
:10279000803809F0BFC05BC0803B09F485C038F4C5
:1027A000803A09F466C0883A09F47EC0B3C0803C20
:1027B00009F4A6C0883C09F4A3C0883B09F489C089
:1027C000A9C08091B00310C09091890380918803C3
:1027D000981770F5E091890381E08E0F809389034B
:1027E000F0E0E657FC4F80818093BB0085EC85C00C
:1027F000809344038DC0E091890381E08E0F809324
:1028000089038091BB00F0E0E657FC4F80839091F4
:102810008903809188036DC0E091890381E08E0F68
:10282000809389038091BB00F0E0E657FC4F8083E2
:102830008091AF0381116CC081E08093AE0384EA84
:1028400060C083E08093B10310924503CFCF8091A5
:102850004503803208F050C0E091450381E08E0FBF
:10286000809345038091BB00F0E0EA5BFC4F8083DE
:10287000BDCF80914503803230F4E0914503F0E014
:10288000EA5BFC4F10820E945E136091450370E08A
:10289000E091AA03F091AB0386E493E009951092CE
:1028A00045030E94681336C084E08093B103109200
:1028B000670310926603E091AC03F091AD030995B4
:1028C00080916603811105C081E0809366031092B8
:1028D0006803E091670381E08E0F80936703F0E067
:1028E000E859FC4F80818093BB00909167038091F1
:1028F0006603981708F47ACF85E88093BC000AC075
:1029000085EC8093BC001092B10304C01092440384
:102910000E945E13FF91EF91BF91AF919F918F91B4
:102920007F916F915F914F913F912F910F900FBECB
:102930000F901F9018951F920F920FB60F921124AF
:102940002F933F938F939F93AF93BF938091B30344
:102950009091B403A091B503B091B6033091B20346
:1029600026E0230F2D3720F40296A11DB11D05C0CE
:1029700029E8230F0396A11DB11D2093B203809374
:10298000B3039093B403A093B503B093B6038091BF
:10299000B7039091B803A091B903B091BA0301961F
:1029A000A11DB11D8093B7039093B803A093B90301
:1029B000B093BA03BF91AF919F918F913F912F91A7
:1029C0000F900FBE0F901F9018952FB7F89460913D
:1029D000B3037091B4038091B5039091B6032FBFF8
:1029E00008953FB7F8948091B7039091B803A091F0
:1029F000B903B091BA0326B5A89B05C02F3F19F0C3
:102A00000196A11DB11D3FBF6627782F892F9A2FF0
:102A1000620F711D811D911D43E0660F771F881F96
:102A2000991F4A95D1F708958F929F92AF92BF92C6
:102A3000CF92DF92EF92FF926B017C010E94F11422
:102A40004B015C01C114D104E104F104F1F00E94D6
:102A5000D21B0E94F114681979098A099B09683E02
:102A600073408105910570F321E0C21AD108E10895
:102A7000F10888EE880E83E0981EA11CB11CC114D9
:102A8000D104E104F10429F7DDCFFF90EF90DF904E
:102A9000CF90BF90AF909F908F900895789484B519
:102AA000826084BD84B5816084BD85B5826085BD4A
:102AB00085B5816085BDEEE6F0E080818160808330
:102AC000E1E8F0E010828081826080838081816013
:102AD0008083E0E8F0E0808181608083E1E9F0E0DC
:102AE000808182608083808181608083E0E9F0E082
:102AF000808181608083E1ECF0E08081846080836C
:102B0000808182608083808181608083E3ECF0E05B
:102B1000808181608083E0ECF0E08081826080834E
:102B2000E2ECF0E0808181608083EAE7F0E0808180
:102B30008460808380818260808380818E7F8083B7
:102B40008081806880830895823108F08251E82F67
:102B5000F0E0E653FF4FE49180917B00E3FB2227F6
:102B600020F930E095E0220F331F9A95E1F78F7D31
:102B7000822B80937B00E7708091100120E4829F7C
:102B8000C0011124E82BE0937C0080917A008064DE
:102B900080937A0080917A0086FDFCCF8091780046
:102BA0002091790090E0922B089590E0FC013197FC
:102BB000EF30F105B0F5EA5AFF4F0C944E1F8091AB
:102BC00080008F7703C0809180008F7D809380008C
:102BD000089580918000877FF9CF84B58F7702C0F8
:102BE00084B58F7D84BD0895809190008F7707C054
:102BF000809190008F7D03C080919000877F8093AB
:102C0000900008958091C0008F7703C08091C0002C
:102C10008F7D8093C00008958091C200877F80934C
:102C2000C2000895CF93DF9390E0FC01EB50FF4F7B
:102C30002491FC01EC5EFE4F8491882349F190E0E1
:102C4000880F991FFC01E15BFE4FA591B4918F5B4A
:102C50009E4FFC01C591D4919FB7611108C0F894B3
:102C60008C91209582238C93888182230AC06230C4
:102C700051F4F8948C91322F309583238C93888172
:102C8000822B888304C0F8948C91822B8C939FBFF5
:102C9000DF91CF9108950F931F93CF93DF931F92EE
:102CA000CDB7DEB7282F30E0F901EA52FF4F84910B
:102CB000F901EB50FF4F1491F901EC5EFE4F0491C6
:102CC0000023C9F0882321F069830E94D51569810A
:102CD000E02FF0E0EE0FFF1FEF5BFE4FA591B491E8
:102CE0009FB7F8948C91611103C01095812301C0A6
:102CF000812B8C939FBF0F90DF91CF911F910F91EC
:102D00000895CF93DF93282F30E0F901EA52FF4F67
:102D10008491F901EB50FF4FD491F901EC5EFE4F25
:102D2000C491CC2391F081110E94D515EC2FF0E0D5
:102D3000EE0FFF1FED5CFE4FA591B4912C912D235A
:102D400081E090E021F480E002C080E090E0DF913B
:102D5000CF9108950E949C2008950E944E150E94D4
:102D6000AC1682EC93E00E94701B0E942701C0E029
:102D7000D0E00E9499012097E1F30E940000F9CF72
:102D80000C940D208230A1F028F4882341F081308A
:102D900049F00895833091F08430B1F00895109295
:102DA0006E00089580916F008D7F80936F0008956D
:102DB000809170008D7F80937000089580917100E4
:102DC0008D7F809371000895809172008F7B809336
:102DD000720008951F920F920FB60F9211242F9335
:102DE0003F934F935F936F937F938F939F93AF9393
:102DF000BF93EF93FF938091BE039091BF03A09187
:102E0000C003B091C103892B8A2B8B2B51F1909178
:102E1000BB03E091BC03F091BD03808189278083CF
:102E20008091BE039091BF03A091C003B091C103F4
:102E3000181619061A061B062CF58091BE039091F0
:102E4000BF03A091C003B091C1030197A109B109CB
:102E50008093BE039093BF03A093C003B093C103BC
:102E600011C083E00E94C2162091BB03E091BC0315
:102E7000F091BD03808190E030E020953095822371
:102E800093238083FF91EF91BF91AF919F918F9199
:102E90007F916F915F914F913F912F910F900FBE56
:102EA0000F901F9018954091C6035091C703209131
:102EB000C4033091C50342175307B4F49091E8005E
:102EC0009570E1F39091E80092FD19C08093F100B4
:102ED0008091C6039091C70301968F739927892B20
:102EE00019F48EEF8093E8008091C6039091C70398
:102EF00001969093C7038093C60381E0089580E014
:102F00000895CF92DF92EF92FF920F931F93CF938A
:102F1000DF931F92CDB7DEB7082F162FF42E862F22
:102F2000880F8E5F99830E94531783E00E94531786
:102F3000E02EC02E9981D92E8C2D8E19811798F4F0
:102F4000F601F7FE02C0849101C080810E945317F0
:102F5000082F80E00E9453178023FFEFCF1ADF0A6B
:102F60008111EACF01C081E00F90DF91CF911F91D5
:102F70000F91FF90EF90DF90CF9008958091D70050
:102F800081608093D70080EA8093D80089B58F7ED6
:102F900089BD89B5826089BD09B400FEFDCF61E0BD
:102FA00070E080E090E00E9414158091D8008F7C42
:102FB00080618093D8008091E000807F8093E00062
:102FC0000895CF93DF931F92CDB7DEB71982CE015C
:102FD00001960E94301C0E94681DBE016F5F7F4FEA
:102FE0000E94E11C89810F90DF91CF9108952FB746
:102FF000FC012083F89467706093E9000895CF93F3
:10300000DF931F92CDB7DEB7682FCE0101960E94E5
:10301000F7178091F20099819FBF0F90DF91CF91B8
:103020000895FF920F931F93CF93DF9300D0CDB7F6
:10303000DEB7F62E8A019091CA03992311F057FF4B
:1030400003C08FEF9FEF2AC0682FCE0101967A83CD
:103050000E94F7178091F20090E0A8017A81801712
:1030600091070CF4AC01EF2DF72FF40E84E6FE1659
:1030700031F08093CB039091F1009193F8CF4115FB
:10308000510521F08091F200882321F089818FBFC2
:10309000CA0104C08BE68093E800F8CF0F900F9030
:1030A000DF91CF911F910F91FF900895CF93DF9300
:1030B0001F92CDB7DEB741E050E0BE016F5F7F4F9A
:1030C0000E941118019719F4898190E002C08FEFD6
:1030D0009FEF0F90DF91CF910895CF93DF931F92D1
:1030E000CDB7DEB7682FCE0101960E94F7179091F9
:1030F000E800892F807295FF04C09091F20080E46F
:10310000891B99819FBF0F90DF91CF9108956F9296
:103110007F928F929F92AF92BF92CF92DF92EF9267
:10312000FF920F931F93CF93DF931F92CDB7DEB71C
:10313000782E7B01C42EB52E8091CA03882369F0B6
:10314000042F152F8AEFD82E872D8072982E9AE3A0
:10315000A92E872D8074882E11C08FEF9FEF56C047
:10316000872D0E946D18682E81110CC0DA94A9F386
:1031700061E070E080E090E00E94141501151105F7
:1031800079F73BC0282F30E0021713070CF4602EAC
:10319000672DCE0101960E94F7178091E80085FF08
:1031A00029C0262D30E0021B130B992039F06A94B8
:1031B0008FEF6816B1F01092F100F9CFF701862D6C
:1031C00077FE07C0815058F094919093F1003196AA
:1031D000F9CF815020F091919093F100FACFE20E57
:1031E000F31E8091E80085FF0EC00115110511F452
:1031F000811009C089818FBFC1CF84E68093CC0341
:103200008C2D9B2D03C0A092E800F4CF0F90DF918E
:10321000CF911F910F91FF90EF90DF90CF90BF90D3
:10322000AF909F908F907F906F9008951092E900DB
:103230001092C7031092C6039093C5038093C403F2
:103240000895CF92DF92FF920F931F93CF93DF9356
:1032500000D0CDB7DEB7F82E8A016B01011511053C
:10326000B1F0F601F7FE02C0849101C0808149836C
:103270005A830E94531701501109FFEFCF1ADF0A3A
:1032800049815A818111EACF8FEF9FEF01C0CA01B6
:103290000F900F90DF91CF911F910F91FF90DF90D2
:1032A000CF900895CF93DF939B01A4E6BBEF211548
:1032B0003105F9F0A9012134310514F040E450E062
:1032C000E091E800E2FFFCCFFB01E21BF30BE80F0B
:1032D000F91FCE2FC40FCE1729F0D091F100D08363
:1032E0003196F9CFA093CB03B093E800241B350BA4
:1032F000DECFCB01DF91CF9108951F920F920FB6D1
:103300000F921124DF92EF92FF920F931F932F934E
:103310003F934F935F936F937F938F939F93AF935D
:10332000BF93EF93FF93CF93DF93CDB7DEB76C9747
:10333000DEBFCDBF1092E9008091E80083FF2EC16F
:10334000FE0175968F01AE01435E5F4F9F012F5FB7
:103350003F4F8091F10080832417350711F0F90168
:10336000F5CF84E68093CB0382EF8093E8005D89FC
:1033700057FF05C08091E80080FFFCCF03C08EEFAF
:103380008093E800852F807609F0EFC04E898F8901
:10339000D88C41110CC0503829F48091C903809316
:1033A000F10002C01092F1001092F100F0C0282F3D
:1033B00030E03D29413051F45111E9C0213031054F
:1033C00009F0E5C08091C9038D7F0BC0433061F4E3
:1033D0005111DDC02130310509F0D9C08091C903F8
:1033E00082608093C903D3C0453041F49091E800D6
:1033F00090FFFCCF80688093E300C9C0463009F09D
:103400008BC0EB8CFC8C22E0D2122CC080E090E0D0
:103410000E9416190E94E11799E08E010F5F1F4F5D
:10342000F801292F11922A95E9F79983DA8291E020
:103430009E8390EA98879AEF99872091C6033091EE
:10344000C703275F3F4F3C832B838D83C7010E94B7
:10345000161949E050E0B80180E00E9421190E944D
:10346000E11795C0C7010E9416190E94681DB80196
:103470000E940A1D009719F00CF089C08CC081E0F1
:10348000D8120EC08B8D9C8D089719F481E0809323
:10349000C3038091C30381112FC06FE671E031C077
:1034A000E3E0DE1278C08F89882349F1823029F465
:1034B00040E862E18AE891E01CC0813029F440E8EC
:1034C00068E081E891E015C0833009F064C00E9493
:1034D000681D8E010F5F1F4FB8010E94291DF80162
:1034E00001900020E9F73197E01BF10B40E06E2FCF
:1034F000C8010E94811749C06DE571E002C06DE905
:1035000071E06115710509F446C0FB01449150E07A
:1035100080E80E9421193BC04730E9F1483021F48E
:1035200081E08093F10033C0493089F5537099F5FB
:10353000E2E1F1E081E021E036E39081992361F05E
:103540008093E9002093EB0091919093EC003093ED
:10355000ED008F5F873089F78EE78093EA00109245
:10356000EA008F898093CA0312C08B8D9C8D0E94C4
:103570001619898D811104C0C8010E943B1C05C029
:103580000E94681DB8010E94481D882321F08EEF1B
:103590008093E80003C081E28093EB006C960FB645
:1035A000F894DEBF0FBECDBFDF91CF91FF91EF91B9
:1035B000BF91AF919F918F917F916F915F914F914B
:1035C0003F912F911F910F91FF90EF90DF900F90FF
:1035D0000FBE0F901F9018958093E9008091F20024
:1035E000882319F08AE38093E80008951F920F92D0
:1035F0000FB60F9211242F933F934F935F936F93C6
:103600007F938F939F93AF93BF93CF93EF93FF934A
:10361000C091E1008091E100837F8093E10080937D
:10362000E100C3FF0FC01092E90081E08093EB003E
:103630001092EC0082E38093ED001092CA0388E0C0
:103640008093F000C2FF15C083E00E94EC1A8091C5
:10365000CC03882329F08091CC0381508093CC0344
:103660008091CB03882329F08091CB0381508093F4
:10367000CB03C4FF10C08091E2008E7E81608093F6
:10368000E2008091E1008F7E8093E1008091C80389
:103690008E7E806111C0C0FF11C08091E2008E7EDD
:1036A00080618093E2008091E1008E7E8093E10052
:1036B0008091C8038E7E81608093C803FF91EF9153
:1036C000CF91BF91AF919F918F917F916F915F91BA
:1036D0004F913F912F910F900FBE0F901F90189513
:1036E0001092CA031092C9031092C8030E94BE1719
:1036F0008091E1008E7E8093E1008DE08093E20076
:10370000EEEFFFE7859194918B3F9C4D19F481E09A
:1037100080931D0408954F925F926F927F92AF92B3
:10372000BF92CF92DF92EF92FF920F931F93CF93AE
:10373000DF93CDB7DEB729013A01621B730B840B0F
:10374000950B29893A894B895C892A193B094C09CF
:103750005D09298B3A8B4B8B5C8B9B01AC01698992
:103760007A898B899C890E94D51EE418F508060980
:103770001709A80197010E942F1F2A0D3B1D4C1D00
:103780005D1DCA01B901DF91CF911F910F91FF908B
:10379000EF90DF90CF90BF90AF907F906F905F9051
:1037A0004F9008950895CF93DF931F92CDB7DEB762
:1037B0006983DC01ED91FC910280F381E02D41E011
:1037C00050E0BE016F5F7F4F09950F90DF91CF9161
:1037D0000895CF93DF93EC018C859D8597FF05C0FD
:1037E00082E00E9456189D878C878C859D85DF918D
:1037F000CF91089583E00C94EC1AFC0184859585A3
:1038000097FD06C082E00E94FF1790E001960895A0
:1038100082E00E94FF1790E00895FC018485958561
:1038200097FD05C02FEF3FEF35872487089582E08D
:103830000C945618CF93DF93EC01809123018823D9
:1038400031F083E00E9487181816190634F081E0E1
:1038500090E09B838A8380E090E0DF91CF91089590
:10386000FC0120812E5F208342E450E061EA71E098
:1038700080E80C942119FC0121818081813A59F45E
:10388000213209F04BC047E050E06CE171E080E08C
:103890000E9421195EC0813209F040C0233289F4B0
:1038A000838190E0982F88273281832BA0E0B0E0BD
:1038B0008093180190931901A0931A01B0931B01F2
:1038C0000FC0203239F467E070E08CE191E00E9493
:1038D000521909C0223221F482818093230103C04E
:1038E0002D7F2032B1F580911D04811103C0E0E0ED
:1038F000F8E002C0EEEFFAE080911C0190911D010A
:10390000A0911E01B0911F01803B9440A105B1051B
:1039100011F58091230180FF03C01DC080E0089550
:10392000EE3F2AE0F20731F0808191819093FF0A07
:103930008093FE0A87E797E7918380832BE088E1F5
:1039400090E00FB6F894A895809360000FBE209386
:10395000600081E0089588E10FB6F89480936000DC
:10396000109260000FBEA895EE3F8AE0F80739F08C
:103970008091FE0A9091FF0A91838083EACF109292
:10398000FF0A1092FE0AE5CF1092D0031092CF03E7
:1039900088EE93E0A0E0B0E08093D1039093D2034F
:1039A000A093D303B093D40389E691E09093CE0320
:1039B0008093CD038FEF9FEF9093DA038093D90329
:1039C0000895EF92FF920F931F93CF93DF937B01A4
:1039D000FC01C281D38100E010E0209781F0E881F2
:1039E000F9810280F381E02DB701CE01099597FDA1
:1039F00008C0080F191F0884D985C02DEECFC80153
:103A000002C08FEF9FEFDF91CF911F910F91FF9039
:103A1000EF9008950F931F93CF93DF938B01FC01D9
:103A2000C281D381209771F0E881F9810480F5810A
:103A3000E02DB801CE010995009731F40884D985AD
:103A4000C02DF0CF80E090E0DF91CF911F910F91DA
:103A500008950F931F93CF93DF938B01FC01C281D5
:103A6000D381209771F0E881F9810680F781E02DFC
:103A7000B801CE010995080F111D0884D985C02D04
:103A8000F0CFF8011082DF91CF911F910F9108952F
:103A90000F931F93CF93DF938B01FC01C281D381DE
:103AA000209771F0E881F9810190F081E02DB80153
:103AB000CE010995811106C00884D985C02DF0CFAB
:103AC00080E001C081E0DF91CF911F910F910895B7
:103AD0008091220481110DC082E080931E0484E055
:103AE00080931F04109221041092200481E080939F
:103AF00022048EE194E008950CD0BAC0B2D040F018
:103B0000A9D030F021F45F3F19F09BC05111E4C0FF
:103B10009EC0BFD098F39923C9F35523B1F3951BE9
:103B2000550BBB27AA2762177307840738F09F5FDE
:103B30005F4F220F331F441FAA1FA9F333D00E2E4D
:103B40003AF0E0E830D091505040E695001CCAF7BA
:103B500029D0FE2F27D0660F771F881FBB1F26177F
:103B600037074807AB07B0E809F0BB0B802DBF0152
:103B7000FF2793585F4F2AF09E3F510568F061C0C0
:103B8000ABC05F3FECF3983EDCF386957795679585
:103B9000B795F7959F5FC9F7880F911D9695879503
:103BA00097F90895E1E0660F771F881FBB1F621722
:103BB00073078407BA0720F0621B730B840BBA0BE0
:103BC000EE1F88F7E0950895E89409C097FB3EF44E
:103BD00090958095709561957F4F8F4F9F4F99235A
:103BE000A9F0F92F96E9BB279395F69587957795D8
:103BF0006795B795F111F8CFFAF4BB0F11F460FF98
:103C00001BC06F5F7F4F8F4F9F4F16C0882311F0EF
:103C100096E911C0772321F09EE8872F762F05C003
:103C2000662371F096E8862F70E060E02AF09A959E
:103C3000660F771F881FDAF7880F9695879597F993
:103C4000089597F99F6780E870E060E008959FEF1E
:103C500080EC089500240A94161617061806090623
:103C6000089500240A9412161306140605060895F2
:103C7000092E0394000C11F4882352F0BB0F40F47A
:103C8000BF2B11F460FF04C06F5F7F4F8F4F9F4FBA
:103C9000089557FD9058440F551F59F05F3F71F03C
:103CA0004795880F97FB991F61F09F3F79F08795A3
:103CB0000895121613061406551FF2CF4695F1DF2C
:103CC00008C0161617061806991FF1CF86957105BC
:103CD000610508940895E894BB2766277727CB01F0
:103CE00097F908950BD0C4CFB5DF28F0BADF18F0EC
:103CF000952309F0A6CFABCF1124EECFCADFA0F3F6
:103D0000959FD1F3950F50E0551F629FF001729F70
:103D1000BB27F00DB11D639FAA27F00DB11DAA1F8F
:103D2000649F6627B00DA11D661F829F2227B00DDC
:103D3000A11D621F739FB00DA11D621F839FA00D67
:103D4000611D221F749F3327A00D611D231F849FB7
:103D5000600D211D822F762F6A2F11249F5750400E
:103D60008AF0E1F088234AF0EE0FFF1FBB1F661FA9
:103D7000771F881F91505040A9F79E3F510570F062
:103D800060CFAACF5F3FECF3983EDCF38695779542
:103D90006795B795F795E7959F5FC1F7FE2B880F5D
:103DA000911D9695879597F90895DB018F939F93C1
:103DB0000E946A1FBF91AF91A29F800D911DA39F8A
:103DC000900DB29F900D11240895AA1BBB1B51E1C9
:103DD00007C0AA1FBB1FA617B70710F0A61BB70B7B
:103DE000881F991F5A95A9F780959095BC01CD0120
:103DF000089597FB072E16F4009407D077FD09D09D
:103E00000E94E51E07FC05D03EF4909581959F4FDA
:103E10000895709561957F4F0895A1E21A2EAA1B0F
:103E2000BB1BFD010DC0AA1FBB1FEE1FFF1FA2176A
:103E3000B307E407F50720F0A21BB30BE40BF50B67
:103E4000661F771F881F991F1A9469F760957095F0
:103E5000809590959B01AC01BD01CF010895052E81
:103E600097FB1EF400940E94461F57FD07D00E9446
:103E70000D1F07FC03D04EF40C94461F509540953F
:103E8000309521953F4F4F4F5F4F08959095809506
:103E9000709561957F4F8F4F9F4F0895EE0FFF1FD5
:103EA0000590F491E02D0994A29FB001B39FC00149
:103EB000A39F700D811D1124911DB29F700D811D56
:103EC0001124911D08950E94541FB7FF0895821B6D
:103ED000930B08950E94541FA59F900DB49F900DC1
:103EE000A49F800D911D11240895CF93DF938230FC
:103EF000910510F482E090E0E0912C04F0912D0403
:103F000020E030E0A0E0B0E0309739F1408151810D
:103F100048175907B8F04817590771F482819381FF
:103F2000109729F013969C938E9312972CC0909320
:103F30002D0480932C0427C02115310531F0421740
:103F4000530718F0A901DB0101C0EF019A01BD017F
:103F5000DF010280F381E02DD7CF21153105F9F083
:103F6000281B390B2430310580F48A819B8161152F
:103F7000710521F0FB019383828304C090932D048B
:103F800080932C04FE01329644C0FE01E20FF31F21
:103F90008193919322503109398328833AC020912B
:103FA0002A0430912B04232B41F4209102013091FB
:103FB000030130932B0420932A04209100013091B7
:103FC00001012115310541F42DB73EB7409104019F
:103FD00050910501241B350BE0912A04F0912B042C
:103FE000E217F307A0F42E1B3F0B2817390778F0D0
:103FF000AC014E5F5F4F2417350748F04E0F5F1F2F
:1040000050932B0440932A048193919302C0E0E0E3
:10401000F0E0CF01DF91CF910895CF93DF93009728
:1040200009F487C0FC01329713821282C0912C04DC
:10403000D0912D04209781F420813181280F391FE0
:1040400080912A0490912B048217930779F5F093BD
:104050002B04E0932A046DC0DE0120E030E0AE17AF
:10406000BF0750F412964D915C9113979D01411535
:10407000510509F1DA01F3CFB383A2834081518165
:10408000840F951F8A179B0771F48D919C9111974E
:10409000840F951F02969183808312968D919C9137
:1040A0001397938382832115310529F4F0932D040E
:1040B000E0932C043EC0D9011396FC93EE93129723
:1040C0004D915D91A40FB51FEA17FB0779F480812C
:1040D0009181840F951F0296D90111969C938E931E
:1040E0008281938113969C938E931297E0E0F0E087
:1040F0008A819B81009719F0FE01EC01F9CFCE0176
:10410000029628813981820F931F20912A043091D1
:104110002B042817390769F4309729F410922D04DD
:1041200010922C0402C013821282D0932B04C093ED
:104130002A04DF91CF91089581E090E0F8940C94E7
:10414000B720DC0101C06D9341505040E0F7089565
:10415000FB01DC014150504048F001900D920020DD
:10416000C9F701C01D9241505040E0F7089511E099
:10417000CEEED1E004C0FE010E94501F2296C03F47
:08418000D107C9F7F894FFCF45
:1041880000002E0480000100000032008A02390578
:104198000100C18081000000FFFFFFFF00E1000077
:1041A800000000000000000022052E0525013A0548
:1041B8002201000000008F0596059505AA16AA168B
:1041C8004C49533344480000000000E006E60695D9
:1041D800056E09ED06000000001112E411B911C1C5
:1041E80011D411E31100000000D31B1A1CFD1B0D94
:0641F8001CE91BFA1B008C
:00000001FF
