:100000000C9427010C944F010C944F010C944F0158
:100010000C944F010C944F010C944F010C944F0120
:100020000C944F010C944F010C94C7210C944E205A
:100030000C94390F0C944F010C944F010C944F0108
:100040000C944F010C944F010C944F010C944F01F0
:100050000C944F010C944F010C944F010C947618A2
:100060000C944F010C944F010C944F010C944F01D0
:100070000C944F010C944F010C944F010C944F01C0
:100080000C94BB1D0C944F010C944F010C944F0128
:100090000C9449170C944F010C944F010C944F0190
:1000A0000C944F010C944F010C944F01C819CB19BB
:1000B000BA19BE19C419EC19EC19EC19CF19D319D6
:1000C000D719DD19E119EC19E71908000000BE92F3
:1000D0002449123EABAAAA2ABECDCCCC4C3E00008D
:1000E0000080BEABAAAAAA3E00000000BF0000002C
:1000F000803F0000000000084178D3BB4387D11344
:100100003D190E3CC3BD4282AD2B3E68EC8276BEEB
:10011000D98FE1A93E4C80EFFFBE01C4FF7F3F00B5
:1001200000000000070605040100080A0B0C0D0979
:100130000000000200090F0000030401000C000091
:1001400000000000000000000000000000000004AB
:1001500008020110408040102040804080080204C6
:100160000180402010020110801020404020040433
:100170000404040304050202020204030202020250
:100180000606060606060404020202040400000035
:10019000002300260029002C002F0000000000256D
:1001A0000028002B002E0031000000000024002752
:1001B000002A002D003000080B0002020201000995
:1001C00004000001020200000524001001052401C2
:1001D000010104240206052406000107058103101D
:1001E000004009040100020A000000070502024065
:1001F00000000705830240000012010002EF020127
:10020000409A231180000101020301120100020043
:100210000000409A23118000010102030141646142
:100220006672756974004369726375697420506CF5
:10023000617967726F756E64000403090400B80683
:1002400090082E0F320F9B1467168D1BAB081124DC
:100250001FBECFEFDAE0DEBFCDBF11E0A0E0B1E01E
:10026000EAE8FFE402C005900D92A43DB107D9F77A
:1002700025E0A4EDB1E001C01D92A238B207E1F77C
:1002800012E0CCE4D2E004C02297FE010E94512685
:10029000CE33D107C9F70E94AB1B0C94B8270C943E
:1002A000000080E991E00895209A08950F931F932C
:1002B000CF93DF93CDB7DEB7E0970FB6F894DEBFEC
:1002C0000FBECDBF80914C028823A1F08FE095E056
:1002D0000E947E1B8823D1F340E855E260E070E085
:1002E0008FE095E00E94781B68E271E08FE095E076
:1002F0000E94E31B64E182E592E00E94240701E290
:1003000012E02EE132E044E252E060E170E0CE0122
:1003100001960E94E71040E350E0BE016F5F7F4FFF
:100320008EEE91E00E947D1568EB7BE080E090E02E
:100330000E94EF188091E601811145C01092D8010A
:100340001092D7018FEF8093DB018093DC018093C3
:10035000DD018093DE018093DF018093E00181E085
:100360008093E1011092E3011092E2011092DA0110
:100370001092D90180913D0490913E04892B31F473
:1003800085ED91E090933E0480933D04E0913B0421
:10039000F0913C04309721F085ED91E095838483C2
:1003A00085ED91E090933C0480933B041092E5012D
:1003B0001092E40186E791E09093D6018093D501F5
:1003C00081E08093E60120E030E04AE050E06AE21C
:1003D00072E085ED91E00E946014FC0180EB868361
:1003E0008FEF8783808780E480933F040E94C0184A
:1003F000609348027093490280934A0290934B02A3
:10040000E0960FB6F894DEBF0FBECDBFDF91CF915F
:100410001F910F9108952F923F924F925F926F928A
:100420007F928F929F92AF92BF92CF92DF92EF9284
:10043000FF920F931F93CF93DF93CDB7DEB72A9729
:100440000FB6F894DEBF0FBECDBF82E592E00E94EA
:100450003808811112C060E08FE394E00E94FA1323
:1004600060913F048FE394E00E94C21268EE73E053
:100470008FE294E00E94AE0FE8CF4AE06AE070E0BD
:100480008AE292E00E94761180914C02882351F01A
:1004900019821A828FEF8B836AE272E0CE01019695
:1004A0000E94AE140E94C018409048025090490229
:1004B00060904A0270904B02641975098609970989
:1004C0004090100150901101612C712C4616570676
:1004D0006806790608F054C182E592E00E9441085E
:1004E000BC0180E090E01F921F921F922FEF2F938C
:1004F000A12CB12C6501EE24EA9413E0F12E00E06A
:1005000010E020E030E0A9010E945C220F900F90E3
:100510000F900F906A3071054CF04B016F3F7105E1
:1005200041F03CF088248A94912C03C05AE0852E37
:10053000912C20910A0130910B0144E6342E329E19
:10054000C001339E900D11249C0140E050E02F83A8
:10055000388749875A8780910C0190910D01389E08
:100560002001399E500C1124612C712C82E592E0FF
:100570000E947F0820E030E048EC52E40E943C25D5
:100580000E9410241F921F921F9222242A942F92BD
:10059000A12CB12C6501EF80F88409851A85A3018F
:1005A00092010E945C220F900F900F900F9097FD88
:1005B00076C020910A0130910B01329EC001339E1A
:1005C000900D11249C0140E050E02F83388749872B
:1005D0005A8780910C0190910D01389E2001399E1F
:1005E000500C1124612C712C82E592E00E947F084E
:1005F00020E030E048EC52E40E943C250E941024A8
:100600001F921F921F922F92EF80F88409851A85FE
:10061000A30192010E945C220F900F900F900F9007
:10062000613F710581059105E4F520910A01309142
:100630000B01329EC001339E900D11249C0140E0BD
:1006400050E02F83388749875A8780910C01909119
:100650000D01389E2001399E500C1124612C712C03
:1006600082E592E00E947F0820E030E048EC52E40E
:100670000E943C250E9410241F921F921F922F92CD
:10068000EF80F88409851A85A30192010E945C22FB
:10069000762E672E0F900F900F900F9005C0712C43
:1006A00002C030EF732E612C80923F0401E010E015
:1006B0002FEF472D6EEE71E0CE0101960E94791169
:1006C0008981809327028A81809328028B8180937D
:1006D000290267E272E08FE394E00E945D1280914C
:1006E0004C02882301F16CE471E08FE095E00E94F8
:1006F000D61B82E592E00E947F08AB01BC0122E09C
:1007000030E08FE095E00E94911D69E571E08FE097
:1007100095E00E94D61B4AE050E0672D762D8FE0D1
:1007200095E00E948E1C8091120190911301E5E0EA
:10073000F8E08E9FA0018F9F500D9E9F500D1124B9
:10074000475E594C50931301409312019A01A9E05E
:10075000B0E00E94552601968C01000F111F080F72
:10076000191F065D1D4FD8018C91811109C011968A
:100770008C911197811104C012968C91882349F1B4
:1007800060913F048FE394E00E94C21240910E01F9
:1007900050910F0160E070E08FE394E00E944313FA
:1007A0002A960FB6F894DEBF0FBECDBFDF91CF9172
:1007B0001F910F91FF90EF90DF90CF90BF90AF907F
:1007C0009F908F907F906F905F904F903F902F9071
:1007D00008954E9F90014F9F300D5E9F300D112464
:1007E000275E394C632F620F4FE7649F612D112400
:1007F00045E058E0249FC001259F900D349F900D47
:100800001124875E994C9093130180931201890FF4
:100810008C8360586D838FEF8E83BE016F5F7F4F37
:10082000CE0104960E94AE143981F8012081230F75
:1008300008F42FEF20833A812181230F08F42FEF52
:10084000F80121833B812281230F08F42FEF2283BB
:100850000E94C018609348027093490280934A0234
:1008600090934B028DCF8F929F92AF92BF92CF9277
:10087000DF92EF92FF920F931F93CF93DF93EC01E0
:10088000E881F98195B1916085B18E7F85B9388510
:100890002D81D32ED21ADD82AD84AA81BB812B8516
:1008A0009A848C84EC80FE807F8119850990D881A0
:1008B000C02D0981002331F0402F0D2D400F08F489
:1008C0004FEF01C040E0042F029F012D1124C0E032
:1008D0004C2F5C2F6C2F002CEA01CC2E4C2D5D2F61
:1008E000002C95B907FF85B960814427889485B9A4
:1008F00061116E0D002C95B906FF85B908F46FEFF4
:100900008894002C85B990FC460F002C95B905FF02
:1009100085B94795889491FC460F85B94795889489
:10092000002C95B904FF85B992FC460F4795889431
:1009300085B993FC460F002C95B903FF85B94795FF
:10094000889494FC460F85B947958894002C95B9F6
:1009500002FF85B995FC460F4795889485B996FCAA
:10096000460F002C95B901FF85B94795889497FCEF
:10097000460F85B947958894002C95B900FF85B935
:10098000E194E70E00C085B9042F002C002C95B926
:1009900007FF85B962814427889485B961116F0D7D
:1009A000002C95B906FF85B908F46FEF8894002CE8
:1009B00085B980FC460F002C95B905FF85B9479590
:1009C000889481FC460F85B947958894002C95B989
:1009D00004FF85B982FC460F4795889485B983FC4E
:1009E000460F002C95B903FF85B94795889484FC80
:1009F000460F85B947958894002C95B902FF85B9B3
:100A000085FC460F4795889485B986FC460F002CD7
:100A100095B901FF85B94795889487FC460F85B93C
:100A200047958894002C95B900FF85B9EA0DF11D12
:100A30008894042F85B9F194F10E002C95B907FF25
:100A400085B961814427889485B961116D0D002CA9
:100A500095B906FF85B908F46FEF8894002C85B925
:100A600020FD460F002C95B905FF85B94795889460
:100A700021FD460F85B947958894002C95B904FF50
:100A800085B922FD460F4795889485B923FD460F09
:100A9000002C95B903FF85B94795889424FD460F2E
:100AA00085B947958894002C95B902FF85B925FD35
:100AB000460F4795889485B926FD460F002C95B9B9
:100AC00001FF85B94795889427FD460F85B947955D
:100AD0008894002C95B900FF85B9D194D30E042FCA
:100AE000002C85B9119709F0FBCEDF91CF911F91B2
:100AF0000F91FF90EF90DF90CF90BF90AF909F90BD
:100B00008F900895FF920F931F93CF93DF93EC0183
:100B10008091D4018F5F982F97709093D40180FDBE
:100B200002C080E001C080E891FD8064947009F00B
:100B30008062F0E1FF2EF80E20E030E000E011E0EE
:100B4000FE01E20FF31F6285662331F070E0C801F9
:100B50000E94FA256F5F01C060E067834F2D469FBA
:100B6000412D11244483662311F0615067832F5F68
:100B70003F4F2330310521F7DF91CF911F910F9126
:100B8000FF900895AF92BF92CF92DF92EF92FF92C3
:100B90000F931F93CF93DF93CDB7DEB72E970FB68A
:100BA000F894DEBF0FBECDBF6C015A01F901DC0124
:100BB0001C968C917A8369835C834B8390819B879D
:100BC00091819C8792819D87813029F4CE01019685
:100BD0000E94820506C01A86198618861F821E8208
:100BE0001D8289819A818E0D911D9A8389830023AC
:100BF00019F083E08E0D01C080E08E870E94CC1832
:100C0000F60127853089621B730B6A307105B0F3DA
:100C1000F894CE0101960E94330420EF30E0D50114
:100C20000E94642603E096958795779567950A95C7
:100C3000D1F740E050E02AE9A29E412DB29E400D3E
:100C4000511D11248A0120E030E0000F111F221FE6
:100C5000331F060F171F281F391F093EF3E01F0718
:100C600021053105A8F1B901A801485E5340610989
:100C70007109A2E07695679557954795AA95D1F7A2
:100C800080E090E027E0429F812D529F800D911DD2
:100C9000112420914D0230E0240F351F280F391FF9
:100CA0008091070590910805A0910905B0910A056A
:100CB000432F5527840F951FA11DB11D8093070554
:100CC00090930805A0930905B0930A0520934D025F
:100CD00078940E94CC18D60150967C936E931F97FF
:100CE0002E960FB6F894DEBF0FBECDBFDF91CF9129
:100CF0001F910F91FF90EF90DF90CF90BF90AF903A
:100D00000895EF92FF920F93E12CF12C00E00E94E6
:100D1000C2050F91FF90EF900895EF92FF920F930D
:100D2000E12CF12C01E00E94C2050F91FF90EF90A1
:100D30000895EF92FF920F93CF93DF9300D01F920D
:100D4000CDB7DEB7AB0119821A821B82E12CF12CE0
:100D500000E09E012F5F3F4FB9010E94C2050F9036
:100D60000F900F90DF91CF910F91FF90EF9008952A
:100D70001F93CF93DF9300D01F92CDB7DEB780EAE9
:100D800089831FEF1A831B8364E272E0CE01019610
:100D90000E94AE1419821A831B8361E272E0CE01B5
:100DA00001960E94AE1410931E0210931F0210931E
:100DB00020020F900F900F90DF91CF911F91089517
:100DC000CF93CFB7F89480915102811127C0EFE7FC
:100DD000F1E08491E0E6F1E09491E82FF0E0EE0F8D
:100DE000FF1FE755FE4FA591B4918C91892321F403
:100DF00061E081E10E94261A61E081E10E94ED1923
:100E00008CB580618CBD8CB580648CBD61E08FE059
:100E10000E94ED1961E080E10E94ED19809151027C
:100E20008F5F80935102CFBFCF91089524E831E0C6
:100E3000FC01318320830895089524E831E0FC010A
:100E4000318320830C94BE1BFF920F931F93CF938B
:100E5000DF93CDB7DEB76E970FB6F894DEBF0FBE47
:100E6000CDBF8C01F62E61E08DE00E94ED1960E0AF
:100E700085E10E94ED1960E084E00E94ED1960E0D8
:100E800083E10E94ED1961E085E00E94ED1961E0C7
:100E90008EE10E94ED1922E530E041E16AE070E068
:100EA000CE0101960E94280E85E1FE013196D801FF
:100EB00001900D928A95E1F7CE0101960E94190CDE
:100EC00068E0CE0101960E9443098B81F801878B6F
:100ED0008C819D81918F808F8E819F81938F828F56
:100EE00088859985958F848F8A859B85AC85BD85FE
:100EF000868F978FA0A3B1A38E859F85A889B98976
:100F000082A393A3A4A3B5A38A899B89AC89BD8935
:100F100086A397A3A0A7B1A74E895F89688D798D15
:100F200042A753A764A775A78A8D86A78B8D87A72D
:100F30008C8D80AB8D8D81AB8E8D82ABC8010E9474
:100F40002D0CC8010E94B10C6F2DC8010E94500EDB
:100F500040E06EE1CE0101960E94910E8EE1FE010D
:100F60003196D801D59601900D928A95E1F741E02E
:100F70006EE1CE0101960E94910ED801AD5ABF4F8D
:100F80008EE1FE01319601900D928A95E1F742E0E3
:100F90006EE1CE0101960E94910ED801AF58BF4F6D
:100FA0008EE1FE01319601900D928A95E1F743E0C2
:100FB0006EE1CE0101960E94910ED801A157BF4F5C
:100FC0008EE1FE01319601900D928A95E1F746E09F
:100FD0006EE1CE0101960E94910ED801A355BF4F3C
:100FE0008EE1FE01319601900D928A95E1F749E07C
:100FF0006EE1CE0101960E94910ED801A553BF4F1C
:101000008EE1FE01319601900D928A95E1F74AE05A
:101010006EE1CE0101960E94910ED801A751BF4FFB
:101020008EE1FE01319601900D928A95E1F74CE038
:101030006EE1CE0101960E94910ED801A95FBE4FCC
:101040008EE1FE01319601900D928A95E1F768E1FB
:10105000C80145960E94B90B6E960FB6F894DEBF94
:101060000FBECDBFDF91CF911F910F91FF900895DB
:1010700085E10E945C1A21E0892B09F420E0822F8F
:10108000089587E10C947F1982E10E947F19BC01C9
:10109000882777FD8095982F0E9443249B01AC01FF
:1010A00060EF78E18CE19BE40E94A82320E030E42B
:1010B0004CE156E40E943F2320E030E44CE156E44A
:1010C0000E94A8230E94FC2420E030EE46E755E46D
:1010D0000E94A8232FE03FEC4BE55BE30E944023F6
:1010E0009B01AC0160E070E080E89FE30E94A823D0
:1010F00023E333E948E853E40E943F23089582E55F
:1011000092E00E94440826E636E646EE5FE30E943F
:101110003C2520E030E040E052E40E944023089566
:10112000CF93DF9382E592E00E94020C87E692E083
:101130000E94310910928602C7E8D2E040E060E0E8
:10114000CE010E94910E6E9683E0C737D807B1F7A3
:10115000DF91CF91089584E891E0909368028093A5
:10116000670282E592E00C94190C24E831E0FC015E
:1011700031832083089524E831E0FC01318320830A
:101180000C94BE1B0F931F93CF93DF938C01EB0145
:1011900088E2FB0111928A95E9F74BE050E06EE896
:1011A00071E0CE010E94A9271B8641E050E060E07B
:1011B00070E04C875D876E877F87F8010589168907
:1011C0002789308D088B198B2A8B3B8B4C8B5D8B41
:1011D0006E8B7F8B1CA21DA21EA21FA2188E198EC1
:1011E0001A8E1B8E1C8E1D8E1E8E1F8E18A219A28B
:1011F0001AA21BA2DF91CF911F910F910895DC01DC
:10120000ED91FC910190F081E02D09942091500224
:10121000222399F03FB7F89420915002213059F4DD
:101220002DB320934E024DB320914F0220952423DD
:101230002DBB3FBF02C030934E028CBD9DBD0895B3
:1012400080915002882361F09FB7F894209150025A
:1012500080914E02213019F48DBB9FBF08958FBF3E
:101260000895FC0189E991E0918380834FEF5FEF5E
:10127000BA01458B568B678B708F8FEF828F838F70
:10128000848F858F0895FC01262F89E991E0918351
:1012900080834FEF5FEFBA01458B568B678B708F62
:1012A000228F8FEF838F848F858F0895AF92BF92A7
:1012B000DF92EF92FF920F931F93CF93DF931F92D2
:1012C000CDB7DEB75C01D62EFC01858D8F3F39F49A
:1012D0006EBD00000DB407FEFDCF8EB52AC007E03D
:1012E00010E040E0EE24E394F12C440F60E0F501BF
:1012F000858D49830E94261A9701002E01C0220F76
:101300000A94EAF76D2D6223F501838D0E94261A57
:1013100061E0F501858D0E94261AF501848D0E94F9
:101320005C1A4981892B09F0416001501109E8F6E6
:10133000842F0F90DF91CF911F910F91FF90EF902D
:10134000DF90BF90AF9008950F931F93CF93DF93DB
:10135000EC01062F142F8A8D8F3FB9F4698D86E436
:1013600094E00E944516602F86E494E00E94EC15FC
:10137000612F86E494E00E94EC1586E494E0DF910E
:10138000CF911F910F910C9464168D8D8F3F21F496
:1013900081E590E00E94060960E08A8D0E94261A8D
:1013A000602F6F77CE010E945609612FCE010E94F7
:1013B000560961E08A8D0E94261A8D8D8F3F31F487
:1013C000DF91CF911F910F910C942009DF91CF9164
:1013D0001F910F9108951F93CF93DF93EC01162F68
:1013E0008A8D8F3F11F5898D682F772767FD70955E
:1013F00086E494E00E944F16612F86E494E00E94F8
:10140000EC1586E494E00E946416698D772767FDE9
:10141000709541E050E086E494E00E94421686E434
:1014200094E00E949C15182F1EC08D8D8F3F21F4D3
:1014300081E590E00E94060960E08A8D0E94261AEC
:10144000612F6068CE010E94560960E0CE010E94C3
:101450005609182F61E08A8D0E94261A8D8D8F3FC4
:1014600011F40E942009812FDF91CF911F910895DF
:1014700063E20E94EB0990E034E0959587953A95F8
:10148000E1F7837099270895CF92DF92EF92FF9250
:10149000CF93DF93EC018A8D8F3F09F056C0698DA1
:1014A000772767FD709586E494E00E944F1668EAFE
:1014B00070E086E494E00E94FF0886E494E00E94D5
:1014C0006416698D772767FD709546E050E086E4E5
:1014D00094E00E94421686E494E00E949C159C834E
:1014E0008B8386E494E00E949C1520E030E0382F46
:1014F0008B819C81822B932B9C838B8386E494E04D
:101500000E949C159E838D8386E494E00E949C1526
:1015100020E030E0382F8D819E81822B932B9E839B
:101520008D8386E494E00E949C1598878F8386E4DF
:1015300094E00E949C1520E030E0382F8F81988540
:10154000822B932B98878F8348C08D8D8F3F21F4FA
:1015500081E590E00E94060960E08A8D0E94261ACB
:1015600068EECE010E9456096FEFCE010E94560927
:1015700090E09C838B836FEFCE010E9456092B81F4
:101580003C81382B3C832B836FEFCE010E945609A0
:1015900090E09E838D836FEFCE010E9456092D81CE
:1015A0003E81382B3E832D836FEFCE010E9456097A
:1015B00090E098878F836FEFCE010E9456092F81AC
:1015C0003885382B38872F8361E08A8D0E94261A50
:1015D0008D8D8F3F11F40E942009CE010E94380AA0
:1015E000833049F0823051F0813059F0882361F026
:1015F00061E070E00BC065E575E008C060E070E197
:1016000005C06EEF7FE102C06CEF7FE380E090E009
:101610000E9441246B017C016B817C81882777FDCE
:101620008095982F0E944324A70196010E94A82329
:1016300069877A878B879C876D817E81882777FD74
:101640008095982F0E944324A70196010E94A82309
:101650006D877E878F87988B6F817885882777FD48
:101660008095982F0E944324A70196010E94A823E9
:10167000698B7A8B8B8B9C8BDF91CF91FF90EF9056
:10168000DF90CF9008950F931F93CF93DF938C013A
:10169000EB0184E2FB0111928A95E9F784E290E084
:1016A000A0E0B0E088839983AA83BB83F801858991
:1016B0009689A789B08D8C839D83AE83BF8381E09B
:1016C00090E0A0E0B0E088879987AA87BB87188A56
:1016D000198A1A8A1B8AC8010E94440A2AE038EE35
:1016E0004CE151E4F80161857285838594850E94FF
:1016F0003C256C8B7D8B8E8B9F8B2AE038EE4CE1EA
:1017000051E4F80165857685878590890E943C259E
:10171000688F798F8A8F9B8F2AE038EE4CE151E4F5
:10172000F80161897289838994890E943C256C8FB4
:101730007D8F8E8F9F8FDF91CF911F910F91089595
:101740000F931F93CF93DF93EC018B0160E20E9414
:10175000EB09482F4F7054E0000F111F5A95E1F725
:10176000402B60E2CE01DF91CF911F910F910C943D
:10177000A409CF93DF93EC01698F8A8D8F3F29F401
:1017800086E494E00E942B1618C061E00E94261A9D
:1017900061E08A8D0E94ED198D8D8F3F19F40E94B2
:1017A000E0060BC061E00E94ED1961E08B8D0E94A4
:1017B000ED1960E08C8D0E94ED196FE0CE010E9462
:1017C000EB098333D9F447E060E2CE010E94A4091B
:1017D00067E070E0CE010E94A00B48E863E2CE0112
:1017E0000E94A40940E162E2CE010E94A40940E8FF
:1017F0006FE1CE010E94A40981E001C080E0DF9189
:10180000CF910895FC0181E08083118213821282BE
:10181000158214829FEF9683178211861086828725
:10182000138692E09487858716861786108A118A18
:101830000895CF93DF93EC0188859985009711F087
:101840000E940E278E8187FD05C060E0DF91CF9159
:101850000C94ED19DF91CF910895CF93DF93EC01B4
:101860008E8187FD07C061E00E94ED1960E08E81E6
:101870000E94261A81E08983DF91CF910895EF922B
:10188000FF920F931F93CF93DF93EC017B01888529
:101890009985009711F00E940E279D858A859813DF
:1018A00003C083E090E002C084E090E08E9D800160
:1018B0008F9D100D9E9D100D11241D830C83C8015A
:1018C0000E94762699878887009741F0A80160E0FA
:1018D00070E00E94A227FB82EA8204C01D821C8263
:1018E0001B821A82DF91CF911F910F91FF90EF9091
:1018F0000895FC0121E095858285981320E0CB01B5
:1019000036E0969587953A95E1F7482F43704587DD
:10191000CB0154E0969587955A95E1F7382F3370AF
:101920003287CB01969587959695879583708387A7
:10193000862F8370848781E06F3F710511F008F076
:1019400080E0808380859185892B51F091E043135D
:1019500090E0921729F062817381CF010C943F0CC3
:101960000895CF92DF92EF92FF920F931F93CF9340
:10197000DF93CDB7DEB729970FB6F894DEBF0FBE61
:10198000CDBF8C01DC0118968D919C911997892B04
:1019900009F41DC10E94CC18F801C684D784E088E0
:1019A000F1886C197D098E099F09623371058105E3
:1019B000910580F3F894848195819A838983A08529
:1019C000B1857D01EFEFEE1AFE0A8C918987D8016F
:1019D0008C9152960D90BC91A02D882309F4BDC026
:1019E0001D82AB32B10509F059C09BB1F801848961
:1019F000982B98879BB1809589238F838F818E83C5
:101A0000898587FF02C088858E8358856F814985C7
:101A10003E812D8189819A81D7015BB9262F3BB9FF
:101A200000C046FD252F6BB900C05BB9362F2BB91E
:101A300000C045FD352F6BB900C05BB9262F3BB9FF
:101A400000C044FD252F6BB900C05BB9362F2BB900
:101A500000C043FD352F6BB900C05BB9262F3BB9E1
:101A600000C042FD252F6BB900C05BB9362F2BB9E2
:101A700000C041FD352F6BB900C05BB9262F3BB9C3
:101A800000C040FD252F6BB901975BB9362F2BB9EC
:101A90004D9147FD352F6BB901F65BC0959709F065
:101AA0008CC095B1F8018489982B988795B1809561
:101AB00089238F838F818E83898587FF02C08885E4
:101AC0008E8358856F8149853E812D8189819A81D8
:101AD000D70155B9262F35B900C046FD252F65B968
:101AE00000C055B9362F25B900C045FD352F65B961
:101AF00000C055B9262F35B900C044FD252F65B962
:101B000000C055B9362F25B900C043FD352F65B942
:101B100000C055B9262F35B900C042FD252F65B943
:101B200000C055B9362F25B900C041FD352F65B924
:101B300000C055B9262F35B900C040FD252F65B925
:101B4000019755B9362F25B94D9147FD352F65B908
:101B500001F649873E832D832EC09C91F80184892C
:101B6000982B98879C91809589238F838F818C8374
:101B700088E08B8358856F8149853B812C818981E1
:101B80009A81F7015C9347FD252F2C93262F3A95D8
:101B900031F0441F6C9300C000C000C0F3CF6C93C1
:101BA000000038E04191019769F7F801B38BA28BEF
:101BB00049873B832C839A83898378940E94CC182D
:101BC000D8011E966D937D938D939C935197299682
:101BD0000FB6F894DEBF0FBECDBFDF91CF911F913E
:101BE0000F91FF90EF90DF90CF9008951F93CF93C8
:101BF000DF93EC01162F8981882331F08E8187FDD8
:101C000003C060E00E94ED191E838981882341F0A2
:101C100061E0812F0E94ED1960E0812F0E94261A59
:101C2000812F90E0FC01E259FE4FE491F0E0EE0FCD
:101C3000FF1FE556FE4F259134913B8B2A8BFC010B
:101C4000E15BFE4F84918C8BDF91CF911F910895C2
:101C5000EF92FF920F931F93CF93DF931F92CDB715
:101C6000DEB77C018B01FC01118217821186108680
:101C700016861786108A118AB90149830E94790C49
:101C8000B801C7010E943F0C4981642FC7010F9022
:101C9000DF91CF911F910F91FF90EF900C94F60D73
:101CA000FF920F931F93CF93DF93EC01FF24F394E4
:101CB000F60E2F81F21679F1088519852150B9F0B9
:101CC0006F3F59F430E040E050E06FEF7FEF80E08D
:101CD00090E00E943026B9010CC08F2D90E0982F23
:101CE00088270197622F70E00E94E62502C060E01D
:101CF00070E0F8018C819D81AF01401B510B4817AA
:101D0000590740F44081469FC001479F900D112420
:101D10009193F0CFFF82DF91CF911F910F91FF90B0
:101D20000895EF92FF920F931F93CF93DF93EC01EF
:101D3000E62EF42E21E030E03983288326E331E0DB
:101D40003F832E8300EF1AEB24E030E008871987E9
:101D50002A873B8700E21EE420E030E00C871D87E5
:101D60002E873F878EE1861720F42FEF3FEF3983D0
:101D700028838EE18F1520F42FEF3FEF39832883DE
:101D800061E08E2D0E94ED1960E08F2D0E94ED190B
:101D900060E08E2D0E94261A6E2D70E0FB01E15B43
:101DA000FE4FE491E88FFB01E259FE4FE491F0E031
:101DB000EE0FFF1FE357FE4F259134913A8F298F85
:101DC0004F2D50E0FA01E15BFE4FE491EB8FFA01F9
:101DD000E259FE4FE491F0E0EE0FFF1FE357FE4F94
:101DE000859194919D8F8C8F4FEF5FEF6FEF7FE028
:101DF0004A835B836C837D830E94C018688B798BD8
:101E00008A8B9B8BDF91CF911F910F91FF90EF9069
:101E10000895FC0115821682178280E090E0DF01B0
:101E2000A80FB91F18961C92019680349105B9F736
:101E3000DF01A85BBF4F1C9211961D921C92EF54BC
:101E4000FF4F0190F081E02D309709F0099408953B
:101E5000FC011282148213820C94090F87E793E02D
:101E60000C94280F8FEF9FEF9093300480932F04F2
:101E700008951F920F920FB60F9211240F900FBE6C
:101E80000F901F901895FA01D90160348FE17807FF
:101E90001CF46115710539F489E090E09183808329
:101EA00080E49FE158C0603A8FE078073CF088E01A
:101EB00090E09183808380EA9FE04DC0603D87E0A1
:101EC00078073CF087E090E09183808380ED97E095
:101ED00042C0683E83E078073CF086E090E0918362
:101EE000808388EE93E037C0643F81E078073CF060
:101EF00085E090E09183808384EF91E02CC06A3F7D
:101F000071053CF084E090E0918380838AEF90E05B
:101F100022C0683771053CF083E090E091838083B4
:101F200088E790E018C06C3371053CF082E090E0E7
:101F3000918380838CE390E00EC06E3171053CF09C
:101F400081E090E0918380838EE190E004C0118273
:101F500010828FE090E08D939C9308950F931F93D0
:101F6000CF93DF9300D000D0CDB7DEB78C019E01B8
:101F70002F5F3F4FAE014D5F5F4F0E94430F8B813C
:101F800083FF02C090E201C090E08770892BF89433
:101F900094B7977F94BF9091600098619093600090
:101FA00080936000809160008064809360007894EA
:101FB00083B7817F846083BF83B7816083BF889547
:101FC00083B78E7F83BF83B78E7F83BFF801808105
:101FD00091818F3FFFEF9F0789F083FF02C028E2C6
:101FE00001C028E08770822B28E130E00FB6F8941A
:101FF000A895209360000FBE8093600089819A812C
:102000000F900F900F900F90DF91CF911F910F9134
:102010000895FC012081222321F0269F212D09F023
:102020002F5FFC012083089511240895FF920F93E0
:102030001F93CF93DF93EB018A01F22E622F0E9450
:1020400009106F2DCE010E9409106F2DC8010E944A
:102050000910DF91CF911F910F91FF900C941410F4
:10206000CF93DF93EC012881269F212D288329819E
:10207000269F212D29832A81269F212D2A830E9494
:102080001410CE01DF91CF9108955F926F927F92ED
:102090008F929F92AF92BF92CF92DF92EF92FF9278
:1020A0000F931F93CF93DF933C01FB01DA01E8010B
:1020B00026173707C0F4488199818A815C9158833B
:1020C00011965C911197598312965C9112975A83DD
:1020D0004C9311969C93119712968C9312978F2F75
:1020E000F901262F382F8C90912C888190E0881947
:1020F00099099695982F8827979587951196AC9072
:102100001197B12CE980F12CEA18FB08F694FE2C0B
:10211000EE24F794E7941296CC90D12CCA81D0E0AB
:10212000CC19DD09D695DC2FCC27D795C795A90109
:102130004E1B5F0B19F0542E452F03C055245394AA
:1021400040E0652D742F0E94FA258B01C701652D93
:10215000742F0E94FA257B01CE01652D742F0E94F9
:10216000FA25000F111FEE0CFF1C660F771F982C2D
:102170008824BA2CAA24DC2CCC24CF01880F991FE8
:102180008E0F9F1F860D971D03962E173F0778F021
:10219000DC0113979C921196BC921196DC92800EF2
:1021A000911EAE0CBF1CC60ED71E3196EDCFDF912F
:1021B000CF911F910F91FF90EF90DF90CF90BF9044
:1021C000AF909F908F907F906F905F9008956F92E7
:1021D0007F928F929F92AF92BF92CF92DF92EF92B7
:1021E000FF920F931F93CF93DF9300D000D000D0C6
:1021F000CDB7DEB75C013B01FA01790168014B0103
:1022000096948794D9018C91898311968C9111971A
:102210008A8312968C918B8380818C8381818D83BC
:1022200082818E838E010F5F1F4F9401AE014C5F40
:102230005F4F60E070E0C5010E944510F6018081AB
:10224000898381818A8382818B83D7018C918C835E
:1022500011968C9111978D8312968C918E83930198
:1022600021503109AE014C5F5F4FB401C5010E949E
:10227000451026960FB6F894DEBF0FBECDBFDF9196
:10228000CF911F910F91FF90EF90DF90CF90BF9073
:10229000AF909F908F907F906F900895CF92DF9234
:1022A000EF92FF920F931F93CF93DF931F92CDB7BF
:1022B000DEB77B018C01C12CD12CCE14DF0461F080
:1022C000642FC80149830E9430108FEFC81AD80AC2
:1022D0000D5F1F4F4981F1CF0F90DF91CF911F917B
:1022E0000F91FF90EF90DF90CF90089540950C9460
:1022F0004E11CF92DF920F931F93CF93DF9300D0B5
:1023000000D01F92CDB7DEB76C01842F90E034E08F
:10231000959587953A95E1F74F70DB01FC01EE0F3B
:10232000FF1FE80FF91FE60FF71F70817B836181A4
:102330006A8332813983442309F42FC0012B09F4C5
:102340002CC08F3011F0DF0113964295407F542F3F
:102350005195759F712D7B83659F612D6A83359F94
:10236000312D39833C9111960C91119712961C9145
:10237000349F312D049F012D149F112D2C833D83FB
:102380000E9414108B813D81830F8B838A81800F83
:102390008A838981810F89832C812F3F51F0AE017F
:1023A0004F5F5F4FBE016E5F7F4FCE0103960E946D
:1023B000161089819A812B81F60120839183828373
:1023C000C6010F900F900F900F900F90DF91CF915B
:1023D0001F910F91DF90CF9008958F929F92AF92AF
:1023E000BF92EF92FF920F931F93CF93DF93EC0175
:1023F000188219821A824423B9F1E0E0F0E08B01DF
:102400000A5F1F4F7B0189E0E80EF11C842E912C9E
:10241000A12CB12CD801AE0FBF1F2C91D701AE0F4C
:10242000BF1F6C912223E1F06623D1F030E040E041
:1024300050E02F5F3F4F4F4F5F4F70E080E090E0E4
:102440006F5F7F4F8F4F9F4F0E94D6259B01AC013E
:10245000C501B4010E94D625DE01AE0FBF1F8C93CB
:102460003196E330F105B1F6CE01DF91CF911F91A6
:102470000F91FF90EF90BF90AF909F908F90089535
:10248000CF93DF93C0913D04D0913E04209791F00B
:102490008A819B81009751F02D853E85A901440FCB
:1024A000551F420F531F60E00E9464150C80DD81B0
:1024B000C02DECCFDF91CF910895DB01E0913D0479
:1024C000F0913E04309771F02C9111969C911197E8
:1024D00012968C9112972187928783870480F581C9
:1024E000E02DF0CF0895CF92DF92EF92FF92CF933D
:1024F000DF93EC0180913504909136049C012F5FAD
:102500003F4F3093360420933504861797079CF18C
:102510000E94C0189B01AC01E0913504F091360493
:1025200088EE93E0E89FB001E99F700DF89F700D71
:102530001124882777FD8095982FC0903104D09082
:102540003204E0903304F09034042C193D094E0914
:102550005F090E940E263A83298310923604109256
:1025600035040E94C0186093310470933204809344
:10257000330490933404DF91CF91FF90EF90DF907C
:10258000CF900895AF92BF92CF92DF92EF92FF92D9
:102590000F931F93CF93DF9300D01F92CDB7DEB779
:1025A0008C01B62EF80183819481A581B681892B97
:1025B0008A2B8B2BD1F00E94CC18C0903704D0907E
:1025C0003804E0903904F0903A046C197D098E09C2
:1025D0009F09D8011396CD90DD90ED90FC90169751
:1025E0006C157D058E059F05E8F20E94CC1860935E
:1025F0003704709338048093390490933A04E09040
:102600003D04F0903E04E114F10451F1F701A4847B
:10261000D80111968D919C9112978436910508F4FA
:102620001486D701ED91FC91C280D3804B2DB70168
:10263000CE0101960E94ED11F70145855685628114
:1026400073819E012F5F3F4FC701F6010995D701A6
:102650001C96AC921C971496ED90FC901597D3CFD6
:1026600069E170E0C8010E9473120F900F900F9003
:10267000DF91CF911F910F91FF90EF90DF90CF905E
:10268000BF90AF9008958F929F92AF92BF92CF92DA
:10269000DF92EF92FF92CF93DF93EC016A017B010F
:1026A0000E94C0184B015C010E94C018681979098A
:1026B0008A099B096C157D058E059F0558F461E01C
:1026C00070E080E090E00E94EF186881CE010E94E7
:1026D000C212EACFDF91CF91FF90EF90DF90CF90C1
:1026E000BF90AF909F908F9008958F929F92AF92DE
:1026F000BF92CF92DF92EF92FF920F931F93CF93EF
:10270000DF9300D01F92CDB7DEB78C017B01D42EB2
:10271000F80183819481A581B681892B8A2B8B2B2B
:10272000D1F00E94CC188090370490903804A0908B
:102730003904B0903A04681979098A099B09D801CB
:1027400013968D909D90AD90BC9016976815790565
:102750008A059B05E8F20E94CC18609337047093B9
:1027600038048093390490933A04A0903D04B090CB
:102770003E04A114B10449F1F501C484D8011196B5
:102780008D919C9112978436910508F41486D50199
:10279000ED91FC91808091804D2DB501CE01019687
:1027A0000E94ED11F501458556859E012F5F3F4F33
:1027B000B701C501F4010995D5011C96CC921C976F
:1027C0001496AD90BC901597D4CF69E170E0C80124
:1027D0000E9473120F900F900F90DF91CF911F9175
:1027E0000F91FF90EF90DF90CF90BF90AF909F90B0
:1027F0008F9008950F931F93CF93DF9300D01F9274
:10280000CDB7DEB78C01662349F019821A821B828C
:1028100040E0BE016F5F7F4F0E947513C8010E94A8
:1028200040120F900F900F90DF91CF911F910F9159
:102830000895CF92DF92EF92FF920F931F93CF9361
:10284000DF93EC014423F1F06115710581F19B01E7
:1028500040E050E060E472E48FE090E00E943026B7
:10286000CB80DC80ED80FE8089019A010C151D056E
:102870002E053F0510F4970186010B831C832D83E1
:102880003E8315C06115710571F09B0140E050E079
:1028900060E472E48FE090E00E9430262B833C835A
:1028A0004D835E8304C01B821C821D821E82DF91C9
:1028B000CF911F910F91FF90EF90DF90CF900895EF
:1028C000CF92DF92EF92FF920F931F93CF93DF93FC
:1028D000EC016B018A017901121613061CF07A01D2
:1028E00000E010E0E881F9810480F581E02DCE015F
:1028F0000995C801880F991F800F911F8C0D9D1D90
:102900009B838A83FE86ED86E881F9810084F185C8
:10291000E02DCE01099541E0BC018FE394E00E94D7
:102920001914CE01DF91CF911F910F91FF90EF907D
:10293000DF90CF9008958FEF80933F041092410471
:10294000109240040895FC012081222321F0269F4B
:10295000212D09F02F5FFC0120830895FF920F9332
:102960001F93CF93DF9300D000D0CDB7DEB7FC012B
:102970008B014081F1805281842F8F71880F880FE5
:10298000880F282F35E5239F212D1124342F3074F3
:10299000942F907247FD25C031110EC0911106C0D1
:1029A000822F80958B832A8319823FC08BEA8B8389
:1029B0002B5A2A83198239C091110DC0382F4AEA47
:1029C000349F312D11249BEA931B9B8325552A8329
:1029D000198280E02AC01B8280E0822F80958A8342
:1029E00012C0311112C091110BC01B82282F3AEA7C
:1029F000239F212D11248BEA821B8A832B5A03C02B
:102A00002B831A822095298310C0911106C085E579
:102A1000820F8B831A828BEA06C08BEA820F8B832C
:102A20001A8280E085E5821B89832FEFF21601F17F
:102A30006F2DCE0103965C830E94A3146F2DCE01EF
:102A400002960E94A3146F2DCE0101960E94A3143A
:102A500011246F2D6095669F612D11248B81860F47
:102A60008B838A81860F8A838981860F89835C8123
:102A70005F3FC9F0F12C2F2D552321F0559F212DBB
:102A800009F02F5FF22E622FCE0103960E94A3144D
:102A90006F2DCE0102960E94A3146F2DCE010196D8
:102AA0000E94A31411248B81F80180838A81818381
:102AB000898182830F900F900F900F90DF91CF91BB
:102AC0001F910F91FF900895DC0140FF03C001C0EA
:102AD0006D936D934250E0F75040D0F70895FB019D
:102AE000DC0140FF05C002C001900D9201900D92E3
:102AF0004250D0F75040C0F708958617970710F45A
:102B00000C946F15840F951F640F751FFB01DC017A
:102B100040FF05C002C002900E9202900E924250F9
:102B2000D0F75040C0F708958091760490E020914E
:102B30007704821B9109089520917704809176048F
:102B4000281750F4E22FF0E0E858FB4F808190E026
:102B50002F5F2093770408958FEF9FEF0895E09102
:102B6000770480917604E81730F4F0E0E858FB4FE2
:102B7000808190E008958FEF9FEF08950895CF92A0
:102B8000DF92EF92FF920F931F93CF93DF937C011D
:102B9000CB018A0120915204222389F0EB016B01C1
:102BA000C40ED51ECC15DD0569F06991D701ED91F4
:102BB000FC910190F081E02DC7010995F3CF642FBE
:102BC0000E942017C801DF91CF911F910F91FF90B4
:102BD000EF90DF90CF900895CF93DF931F92CDB702
:102BE000DEB76983209152042223D1F0209153044F
:102BF000203240F021E030E0FC013383228380E08A
:102C000090E015C080915404E82FF0E0EB5AFB4FA0
:102C1000998190838F5F809354048093530405C0FF
:102C200061E0CE0101960E94201781E090E00F90B4
:102C3000DF91CF910895FC011382128248EE53E098
:102C400060E070E0448355836683778387EA91E090
:102C500091838083089510927704109276041092E5
:102C60005404109253040C946B16862F413208F0D2
:102C700040E268E774E00E9489161092770480931E
:102C80007604089521E00C94351681E08093520477
:102C900060937504109254041092530408950C9498
:102CA00045160F93062F21E04091530465E574E02B
:102CB000809175040E94CD16109254041092530412
:102CC000109252040F91089561E00C94511686E41D
:102CD00094E00C941B161092050581E08093030587
:102CE0001092020561E082E00E94261A61E083E012
:102CF0000E94261AE9EBF0E080818E7F808380813C
:102D00008D7F808380E28093B80085E48093BC004F
:102D10000895413208F03FC0909105059111FCCF14
:102D200091E090930505209303052FEF20939804DD
:102D30001092DD04240F2093DC04909304059091FD
:102D40000405880F892B809304058091020581304A
:102D500041F410920205809104058093BB0085EC3C
:102D600001C085EE8093BC00809105058130E1F3C0
:102D70008091DD04841710F44091DD042EED34E0E1
:102D8000FB01D9018A2F821B841718F48D9181933E
:102D9000F9CF842F089580E008950F93413208F011
:102DA00046C0909105059111FCCF92E090930505E6
:102DB000009303059FEF909398041092DD044093D5
:102DC000DC04FB016EED74E0DB019A2F961B941777
:102DD00018F491919D93F9CF1092040590910405F8
:102DE000880F892B8093040580910205813041F47E
:102DF00010920205809104058093BB0085EC01C010
:102E000085EE8093BC00222321F08091050582305D
:102E1000E1F3809198048F3F61F0809198048032B3
:102E200051F080919804803341F483E007C081E041
:102E300005C080E003C082E001C084E00F910895E6
:102E4000613298F420910505243089F46093BA0426
:102E5000FC018CEB94E0DC012A2F281B261718F4C8
:102E600021912D93F9CF80E0089581E0089582E0CB
:102E7000089585ED8093BC008091BC0084FDFCCF5B
:102E800010920505089585EC8093BC00109205050D
:102E900008951F920F920FB60F9211242F933F9314
:102EA0004F935F936F937F938F939F93AF93BF9352
:102EB000EF93FF938091B900887F803609F49CC01E
:102EC00068F5883209F45BC090F4803109F454C08D
:102ED00038F4882309F4F5C0883009F44DC0F5C0F2
:102EE000883109F44CC0803209F45DC0EEC08034F2
:102EF00009F468C048F4803309F455C0883309F0F8
:102F0000E4C080939804A8C0803509F44FC0883588
:102F100009F45DC0883409F0D8C0D5C0883909F4F7
:102F2000C6C0A8F4883709F467C038F4883609F4B5
:102F300063C0803709F460C0C8C0883809F4B7C0DE
:102F4000803909F45FC0803809F0BFC05BC0803BA6
:102F500009F485C038F4803A09F466C0883A09F467
:102F60007EC0B3C0803C09F4A6C0883C09F4A3C06D
:102F7000883B09F489C0A9C08091040510C09091D4
:102F8000DD048091DC04981770F5E091DD0481E0A8
:102F90008E0F8093DD04F0E0E252FB4F808180933E
:102FA000BB0085EC85C0809398048DC0E091DD0462
:102FB00081E08E0F8093DD048091BB00F0E0E2524F
:102FC000FB4F80839091DD048091DC046DC0E09123
:102FD000DD0481E08E0F8093DD048091BB00F0E082
:102FE000E252FB4F80838091030581116CC081E028
:102FF0008093020584EA60C083E080930505109207
:103000009904CFCF80919904803208F050C0E091AC
:10301000990481E08E0F809399048091BB00F0E0C9
:10302000E656FB4F8083BDCF80919904803230F407
:10303000E0919904F0E0E656FB4F10820E943917A8
:103040006091990470E0E091FE04F091FF048AE938
:1030500094E00995109299040E94431736C084E0C9
:10306000809305051092BB041092BA04E09100050C
:10307000F091010509958091BA04811105C081E0A4
:103080008093BA041092BC04E091BB0481E08E0FDF
:103090008093BB04F0E0E454FB4F80818093BB003D
:1030A0009091BB048091BA04981708F47ACF85E810
:1030B0008093BC000AC085EC8093BC00109205058B
:1030C00004C0109298040E943917FF91EF91BF91AC
:1030D000AF919F918F917F916F915F914F913F91B0
:1030E0002F910F900FBE0F901F9018951F920F9267
:1030F0000FB60F9211242F933F938F939F93AF930B
:10310000BF938091070590910805A0910905B091A2
:103110000A053091060526E0230F2D3720F402968C
:10312000A11DB11D05C029E8230F0396A11DB11DE6
:10313000209306058093070590930805A093090541
:10314000B0930A0580910B0590910C05A0910D0597
:10315000B0910E050196A11DB11D80930B059093B2
:103160000C05A0930D05B0930E05BF91AF919F91F3
:103170008F913F912F910F900FBE0F901F90189538
:103180002FB7F894609107057091080580910905A3
:1031900090910A052FBF08953FB7F89480910B05D1
:1031A00090910C05A0910D05B0910E0526B5A89B38
:1031B00005C02F3F19F00196A11DB11D3FBF662725
:1031C000782F892F9A2F620F711D811D911D43E069
:1031D000660F771F881F991F4A95D1F708958F9220
:1031E0009F92AF92BF92CF92DF92EF92FF926B01CC
:1031F0007C010E94CC184B015C01C114D104E10494
:10320000F104F1F00E94A3220E94CC1868197909F8
:103210008A099B09683E73408105910570F321E09E
:10322000C21AD108E108F10888EE880E83E0981EE2
:10323000A11CB11CC114D104E104F10429F7DDCFB4
:10324000FF90EF90DF90CF90BF90AF909F908F90C6
:103250000895789484B5826084BD84B5816084BD0E
:1032600085B5826085BD85B5816085BDEEE6F0E0FF
:10327000808181608083E1E8F0E01082808182605B
:103280008083808181608083E0E8F0E080818160DC
:103290008083E1E9F0E080818260808380818160C9
:1032A0008083E0E9F0E0808181608083E1ECF0E000
:1032B000808184608083808182608083808181605E
:1032C0008083E3ECF0E0808181608083E0ECF0E0DB
:1032D000808182608083E2ECF0E080818160808385
:1032E000EAE7F0E08081846080838081826080836F
:1032F00080818E7F80838081806880830895823181
:1033000008F08251E82FF0E0EC5DFE4FE4918091EF
:103310007B00E3FB222720F930E095E0220F331FEA
:103320009A95E1F78F7D822B80937B00E7708091E7
:10333000140120E4829FC0011124E82BE0937C005B
:1033400080917A00806480937A0080917A0086FD73
:10335000FCCF809178002091790090E0922B089525
:1033600090E0FC013197EF30F105B0F5EA5AFF4FDC
:103370000C944F26809180008F7703C0809180004D
:103380008F7D80938000089580918000877FF9CFA2
:1033900084B58F7702C084B58F7D84BD08958091F8
:1033A00090008F7707C0809190008F7D03C080913F
:1033B0009000877F8093900008958091C0008F7760
:1033C00003C08091C0008F7D8093C00008958091DC
:1033D000C200877F8093C2000895CF93DF9390E06F
:1033E000FC01E15BFE4F2491FC01E259FE4F849108
:1033F000882349F190E0880F991FFC01E755FE4FA3
:10340000A591B49185569E4FFC01C591D4919FB76B
:10341000611108C0F8948C91209582238C93888147
:1034200082230AC0623051F4F8948C91322F309587
:1034300083238C938881822B888304C0F8948C9199
:10344000822B8C939FBFDF91CF9108950F931F9391
:10345000CF93DF931F92CDB7DEB7282F30E0F9016D
:10346000E05DFE4F8491F901E15BFE4F1491F9019B
:10347000E259FE4F04910023C9F0882321F06983AB
:103480000E94B0196981E02FF0E0EE0FFF1FE556B2
:10349000FE4FA591B4919FB7F8948C91611103C030
:1034A0001095812301C0812B8C939FBF0F90DF91DA
:1034B000CF911F910F910895CF93DF93282F30E084
:1034C000F901E05DFE4F8491F901E15BFE4FD4917B
:1034D000F901E259FE4FC491CC2391F081110E9471
:1034E000B019EC2FF0E0EE0FFF1FE357FE4FA59150
:1034F000B4912C912D2381E090E021F480E002C072
:1035000080E090E0DF91CF9108950E949D27CF93B6
:10351000DF931F92CDB7DEB76983DC01ED91FC919B
:103520000280F381E02D41E050E0BE016F5F7F4FEC
:1035300009950F90DF91CF910895CF93DF93EC0120
:103540008C859D8597FF05C082E00E94271F9D877F
:103550008C878C859D85DF91CF91089583E00C94B5
:10356000BD21FC018485958597FD06C082E00E94FF
:10357000D01E90E00196089582E00E94D01E90E057
:103580000895FC018485958597FD05C02FEF3FEFD9
:1035900035872487089582E00C94271FCF93DF930B
:1035A000EC0180912001882331F083E00E94581FB4
:1035B0001816190634F081E090E09B838A8380E03E
:1035C00090E0DF91CF910895FC0120812E5F208350
:1035D00042E450E067EB71E080E80C94F21FFC01DC
:1035E00021818081813A59F4213209F04BC047E0B2
:1035F00050E069E171E080E00E94F21F5EC081321C
:1036000009F040C0233289F4838190E0982F882705
:103610003281832BA0E0B0E08093150190931601D6
:10362000A0931701B09318010FC0203239F467E05E
:1036300070E089E191E00E94232009C0223221F448
:1036400082818093200103C02D7F2032B1F58091CB
:103650005F05811103C0E0E0F8E002C0EEEFFAE0A0
:103660008091190190911A01A0911B01B0911C0148
:10367000803B9440A105B10511F58091200180FFA8
:1036800003C01DC080E00895EE3F2AE0F20731F04C
:10369000808191819093FF0A8093FE0A87E797E7E4
:1036A000918380832BE088E190E00FB6F894A89591
:1036B000809360000FBE2093600081E0089588E150
:1036C0000FB6F89480936000109260000FBEA8952A
:1036D000EE3F8AE0F80739F08091FE0A9091FF0AE8
:1036E00091838083EACF1092FF0A1092FE0AE5CF01
:1036F0002FEF3FEFFC01358724870895CF93C091CA
:1037000020016AE070E080E090E00E94EF1881E024
:10371000C11101C080E0CF9108951092120510925E
:10372000110588EE93E0A0E0B0E08093130590933C
:103730001405A0931505B093160587EB91E09093BF
:10374000100580930F058FEF9FEF90931C058093DA
:103750001B05089508950E9429190E94AA1B87E657
:1037600095E00E9441220E945601C0E0D0E00E94F4
:103770000B022097E1F30E940000F9CF0C940E2772
:103780006115710581F0DB010D900020E9F7AD01B5
:1037900041505109461B570BDC01ED91FC91028011
:1037A000F381E02D099480E090E008950C94C01B13
:1037B000DC01ED91FC910190F081E02D099463EC26
:1037C00071E00C94C01B0F931F93CF93DF93EC0118
:1037D0000E94C01B8C01CE010E94DF1B800F911F35
:1037E000DF91CF911F910F9108958F929F92AF9289
:1037F000BF92DF92EF92FF920F931F93CF93DF93CD
:10380000CDB7DEB7A1970FB6F894DEBF0FBECDBF20
:103810007C01F42FD52ECB0119A2223008F42AE026
:103820008E010F5D1F4F822E912CA12CB12C6F2F7A
:103830007D2DA50194010E940E26F22FD32ECA01E0
:10384000015011096A3014F4E0E301C0E7E3E60F28
:10385000D801EC93232B242B252B49F7B801C70162
:103860000E94C01BA1960FB6F894DEBF0FBECDBF5D
:10387000DF91CF911F910F91FF90EF90DF90BF905C
:10388000AF909F908F900895CF92DF92EF92FF922A
:103890000F931F93CF93DF93EC016A017B012115F6
:1038A000310579F4E881F9810190F081E02D642FF0
:1038B000DF91CF911F910F91FF90EF90DF90CF900C
:1038C00009942A303105E9F477FF1AC06DE20E94AD
:1038D000D81B8C0144275527BA014C195D096E0984
:1038E0007F092AE0CE010E94F51B800F911FDF9116
:1038F000CF911F910F91FF90EF90DF90CF9008959F
:103900002AE0B701A601CE01DF91CF911F910F915F
:10391000FF90EF90DF90CF900C94F51B0F931F93C7
:10392000CF93DF93EC019A01AB01662757FD6095B9
:10393000762F0E94441C8C01CE010E94DF1B800F59
:10394000911FDF91CF911F910F9108954F925F9238
:103950006F927F928F929F92AF92BF92CF92DF929F
:10396000EF92FF920F931F93CF93DF93EC016A01C5
:103970007B01B22E9A01AB01C701B6010E949F25BF
:10398000882319F066EC71E027C026013701E8941E
:1039900077F82FEF3FEF4FE75FE7C301B2010E94D7
:1039A0009F2581110DC02FEF3FEF4FE75FE7C30168
:1039B000B2010E94A42318161CF46AEC71E00CC03A
:1039C0002FEF3FEF4FE75FE4C701B6010E94F324FA
:1039D0001816ACF46EEC71E0CE01DF91CF911F911F
:1039E0000F91FF90EF90DF90CF90BF90AF909F909E
:1039F0008F907F906F905F904F900C94C01B2FEF33
:103A00003FEF4FE75FECC701B6010E94A42387FD9B
:103A1000E1CF20E030E0A901C701B6010E94A42354
:103A200087FF0AC06DE2CE010E94D81B8C01F7FA15
:103A3000F094F7F8F09402C000E010E0A12C60E0F0
:103A400070E080E09FE3AB1441F020E030E040E222
:103A500051E40E94A823A394F6CF9B01AC01C701B7
:103A6000B6010E9440236B017C010E9415242B01AA
:103A70003C010E9441249B01AC01C701B6010E9498
:103A80003F236B017C012AE0B301A201CE010E9419
:103A9000F51B080F191FBB2039F062ED71E0CE0154
:103AA0000E94C01B080F191F7B2C772041F120E0DA
:103AB00030E040E251E4C701B6010E943C256B01B1
:103AC0007C010E9410244B01AA2497FCA094BA2CDC
:103AD0002AE030E0B501A401CE010E94441C080F89
:103AE000191FC501B4010E9443249B01AC01C70109
:103AF000B6010E943F236B017C017A94D6CFC801A6
:103B0000DF91CF911F910F91FF90EF90DF90CF90B9
:103B1000BF90AF909F908F907F906F905F904F90ED
:103B200008950C94A61C8230A1F028F4882341F05B
:103B3000813049F00895833091F08430B1F00895D8
:103B400010926E00089580916F008D7F80936F00BA
:103B50000895809170008D7F80937000089580910A
:103B600071008D7F809371000895809172008F7B2A
:103B70008093720008951F920F920FB60F92112436
:103B80002F933F934F935F936F937F938F939F9365
:103B9000AF93BF93EF93FF9380916305909164057A
:103BA000A0916505B0916605892B8A2B8B2B51F16D
:103BB00090916005E0916105F0916205808189270F
:103BC00080838091630590916405A0916505B09113
:103BD0006605181619061A061B062CF58091630552
:103BE00090916405A0916505B09166050197A109C2
:103BF000B1098093630590936405A0936505B09324
:103C0000660511C083E00E94931D20916005E0913C
:103C10006105F0916205808190E030E0209530955B
:103C2000822393238083FF91EF91BF91AF919F9166
:103C30008F917F916F915F914F913F912F910F9055
:103C40000FBE0F901F90189540916B0550916C0519
:103C50002091690530916A0542175307B4F4909199
:103C6000E8009570E1F39091E80092FD19C080930F
:103C7000F10080916B0590916C0501968F739927E7
:103C8000892B19F48EEF8093E80080916B05909159
:103C90006C05019690936C0580936B0581E0089507
:103CA00080E00895CF92DF92EF92FF920F931F93DF
:103CB000CF93DF931F92CDB7DEB7082F162FF42EC8
:103CC000862F880F8E5F99830E94241E83E00E94B6
:103CD000241EE02EC02E9981D92E8C2D8E1981178D
:103CE00098F4F601F7FE02C0849101C080810E9421
:103CF000241E082F80E00E94241E8023FFEFCF1A8D
:103D0000DF0A8111EACF01C081E00F90DF91CF91EE
:103D10001F910F91FF90EF90DF90CF9008958091C9
:103D2000D70081608093D70080EA8093D80089B55E
:103D30008F7E89BD89B5826089BD09B400FEFDCF43
:103D400061E070E080E090E00E94EF188091D80080
:103D50008F7C80618093D8008091E000807F809389
:103D6000E0000895CF93DF931F92CDB7DEB719829D
:103D7000CE0101960E94E41A0E942B23BE016F5FC0
:103D80007F4F0E94A42289810F90DF91CF910895E7
:103D90002FB7FC012083F89467706093E9000895C1
:103DA000CF93DF931F92CDB7DEB7682FCE01019678
:103DB0000E94C81E8091F20099819FBF0F90DF91F1
:103DC000CF910895FF920F931F93CF93DF9300D06D
:103DD000CDB7DEB7F62E8A0190916F05992311F0C9
:103DE00057FF03C08FEF9FEF2AC0682FCE010196C7
:103DF0007A830E94C81E8091F20090E0A8017A8127
:103E0000801791070CF4AC01EF2DF72FF40E84E628
:103E1000FE1631F0809370059091F1009193F8CFE8
:103E20004115510521F08091F200882321F089810C
:103E30008FBFCA0104C08BE68093E800F8CF0F90D3
:103E40000F90DF91CF911F910F91FF900895CF9325
:103E5000DF931F92CDB7DEB741E050E0BE016F5F48
:103E60007F4F0E94E21E019719F4898190E002C001
:103E70008FEF9FEF0F90DF91CF910895CF93DF9356
:103E80001F92CDB7DEB7682FCE0101960E94C81EE3
:103E90009091E800892F807295FF04C09091F20004
:103EA00080E4891B99819FBF0F90DF91CF91089586
:103EB0006F927F928F929F92AF92BF92CF92DF923A
:103EC000EF92FF920F931F93CF93DF931F92CDB783
:103ED000DEB7782E7B01C42EB52E80916F05882326
:103EE00069F0042F152F8AEFD82E872D8072982E17
:103EF0009AE3A92E872D8074882E11C08FEF9FEF33
:103F000056C0872D0E943E1F682E81110CC0DA9486
:103F1000A9F361E070E080E090E00E94EF180115E5
:103F2000110579F73BC0282F30E0021713070CF476
:103F3000602E672DCE0101960E94C81E8091E80078
:103F400085FF29C0262D30E0021B130B992039F084
:103F50006A948FEF6816B1F01092F100F9CFF70173
:103F6000862D77FE07C0815058F094919093F10010
:103F70003196F9CF815020F091919093F100FACFD2
:103F8000E20EF31E8091E80085FF0EC001151105B9
:103F900011F4811009C089818FBFC1CF84E680935D
:103FA00071058C2D9B2D03C0A092E800F4CF0F90DB
:103FB000DF91CF911F910F91FF90EF90DF90CF9005
:103FC000BF90AF909F908F907F906F9008951092C8
:103FD000E90010926C0510926B0590936A0580932E
:103FE00069050895CF92DF92FF920F931F93CF93AD
:103FF000DF9300D0CDB7DEB7F82E8A016B01011533
:104000001105B1F0F601F7FE02C0849101C0808174
:1040100049835A830E94241E01501109FFEFCF1AD1
:10402000DF0A49815A818111EACF8FEF9FEF01C0EA
:10403000CA010F900F90DF91CF911F910F91FF90C8
:10404000DF90CF900895CF93DF939B01A4E6BBEF61
:1040500021153105F9F0A9012134310514F040E4AE
:1040600050E0E091E800E2FFFCCFFB01E21BF30B24
:10407000E80FF91FCE2FC40FCE1729F0D091F10011
:10408000D0833196F9CFA0937005B093E800241B3C
:10409000350BDECFCB01DF91CF9108951F920F92A8
:1040A0000FB60F921124DF92EF92FF920F931F939E
:1040B0002F933F934F935F936F937F938F939F9330
:1040C000AF93BF93EF93FF93CF93DF93CDB7DEB75B
:1040D0006C97DEBFCDBF1092E9008091E80083FFAE
:1040E0002EC1FE0175968F01AE01435E5F4F9F01A9
:1040F0002F5F3F4F8091F10080832417350711F027
:10410000F901F5CF84E68093700582EF8093E80093
:104110005D8957FF05C08091E80080FFFCCF03C098
:104120008EEF8093E800852F807609F0EFC04E89EE
:104130008F89D88C41110CC0503829F480916E05BC
:104140008093F10002C01092F1001092F100F0C0D3
:10415000282F30E03D29413051F45111E9C0213080
:10416000310509F0E5C080916E058D7F0BC04330AD
:1041700061F45111DDC02130310509F0D9C08091C1
:104180006E05826080936E05D3C0453041F49091F6
:10419000E80090FFFCCF80688093E300C9C0463000
:1041A00009F08BC0EB8CFC8C22E0D2122CC080E09A
:1041B00090E00E94E71F0E94B21E99E08E010F5FFF
:1041C0001F4FF801292F11922A95E9F79983DA8276
:1041D00091E09E8390EA98879AEF998720916B05EA
:1041E00030916C05275F3F4F3C832B838D83C70144
:1041F0000E94E71F49E050E0B80180E00E94F21FF2
:104200000E94B21E95C0C7010E94E71F0E942B2387
:10421000B8010E94CD22009719F00CF089C08CC023
:1042200081E0D8120EC08B8D9C8D089719F481E027
:10423000809368058091680581112FC06BE072E062
:1042400031C0E3E0DE1278C08F89882349F18230E3
:1042500029F440E862E186E292E01CC0813029F452
:1042600040E868E08DE192E015C0833009F064C059
:104270000E942B238E010F5F1F4FB8010E94EC227A
:10428000F80101900020E9F73197E01BF10B40E0C5
:104290006E2FC8010E94521E49C069EF71E002C032
:1042A00069E372E06115710509F446C0FB014491B0
:1042B00050E080E80E94F21F3BC04730E9F14830EF
:1042C00021F481E08093F10033C0493089F55370C7
:1042D00099F5E2E2F1E081E021E036E39081992373
:1042E00061F08093E9002093EB0091919093EC00B2
:1042F0003093ED008F5F873089F78EE78093EA0077
:104300001092EA008F8980936F0512C08B8D9C8D6F
:104310000E94E71F898D811104C0C8010E94EF1A15
:1043200005C00E942B23B8010E940B23882321F093
:104330008EEF8093E80003C081E28093EB006C96DF
:104340000FB6F894DEBF0FBECDBFDF91CF91FF91C6
:10435000EF91BF91AF919F918F917F916F915F91FD
:104360004F913F912F911F910F91FF90EF90DF9010
:104370000F900FBE0F901F9018958093E9008091C9
:10438000F200882319F08AE38093E80008951F92D1
:104390000F920FB60F9211242F933F934F935F9379
:1043A0006F937F938F939F93AF93BF93CF93EF932D
:1043B000FF93C091E1008091E100837F8093E10051
:1043C0008093E100C3FF0FC01092E90081E0809369
:1043D000EB001092EC0082E38093ED0010926F05E9
:1043E00088E08093F000C2FF15C083E00E94BD21E9
:1043F00080917105882329F0809171058150809307
:10440000710580917005882329F080917005815095
:1044100080937005C4FF10C08091E2008E7E8160A1
:104420008093E2008091E1008F7E8093E100809193
:104430006D058E7E806111C0C0FF11C08091E200C9
:104440008E7E80618093E2008091E1008E7E809379
:10445000E10080916D058E7E816080936D05FF91F6
:10446000EF91CF91BF91AF919F918F917F916F917C
:104470005F914F913F912F910F900FBE0F901F9022
:10448000189510926F0510926E0510926D050E949E
:104490008F1E8091E1008E7E8093E1008DE08093FD
:1044A000E200EEEFFFE7859194918B3F9C4D19F46C
:1044B00081E080935F0508954F925F926F927F92A3
:1044C000AF92BF92CF92DF92EF92FF920F931F9322
:1044D000CF93DF93CDB7DEB729013A01621B730B8F
:1044E000840B950B29893A894B895C892A193B09E8
:1044F0004C095D09298B3A8B4B8B5C8B9B01AC0182
:1045000069897A898B899C890E94D625E418F508E7
:1045100006091709A80197010E9430262A0D3B1DA4
:104520004C1D5D1DCA01B901DF91CF911F910F9103
:10453000FF90EF90DF90CF90BF90AF907F906F9003
:104540005F904F9008950895EF92FF920F931F93FD
:10455000CF93DF937B01FC01C281D38100E010E0A7
:10456000209781F0E881F9810280F381E02DB70185
:10457000CE01099597FD08C0080F191F0884D98539
:10458000C02DEECFC80102C08FEF9FEFDF91CF911A
:104590001F910F91FF90EF9008950F931F93CF936A
:1045A000DF938B01FC01C281D381209771F0E881F8
:1045B000F9810480F581E02DB801CE0109950097BD
:1045C00031F40884D985C02DF0CF80E090E0DF91F0
:1045D000CF911F910F9108950F931F93CF93DF9366
:1045E0008B01FC01C281D381209771F0E881F981B0
:1045F0000680F781E02DB801CE010995080F111D45
:104600000884D985C02DF0CFF8011082DF91CF91B9
:104610001F910F9108950F931F93CF93DF938B01F9
:10462000FC01C281D381209771F0E881F98101906A
:10463000F081E02DB801CE010995811106C00884F2
:10464000D985C02DF0CF80E001C081E0DF91CF910E
:104650001F910F9108958091760581110DC082E020
:104660008093720584E08093730510927505109213
:10467000740581E08093760582E795E008955058AF
:10468000BB27AA270ED075C166D130F06BD120F0C0
:1046900031F49F3F11F41EF45BC10EF4E095E7FB8B
:1046A00051C1E92F77D180F3BA17620773078407E6
:1046B000950718F071F49EF58FC10EF4E0950B2E5E
:1046C000BA2FA02D0B01B90190010C01CA01A00164
:1046D0001124FF27591B99F0593F50F4503E68F1BF
:1046E0001A16F040A22F232F342F4427585FF3CF00
:1046F000469537952795A795F0405395C9F77EF4D1
:104700001F16BA0B620B730B840BBAF09150A1F019
:10471000FF0FBB1F661F771F881FC2F70EC0BA0F9F
:10472000621F731F841F48F4879577956795B79527
:10473000F7959E3F08F0B3CF9395880F08F099271F
:10474000EE0F979587950895D9D008F481E00895E4
:104750000CD00FC107D140F0FED030F021F45F3F04
:1047600019F0F0C0511139C1F3C014D198F3992355
:10477000C9F35523B1F3951B550BBB27AA27621725
:104780007307840738F09F5F5F4F220F331F441F6A
:10479000AA1FA9F333D00E2E3AF0E0E830D09150A2
:1047A0005040E695001CCAF729D0FE2F27D0660F8F
:1047B000771F881FBB1F261737074807AB07B0E8CE
:1047C00009F0BB0B802DBF01FF2793585F4F2AF0E4
:1047D0009E3F510568F0B6C000C15F3FECF3983EC4
:1047E000DCF3869577956795B795F7959F5FC9F741
:1047F000880F911D9695879597F90895E1E0660FCA
:10480000771F881FBB1F621773078407BA0720F042
:10481000621B730B840BBA0BEE1F88F7E0950895AB
:1048200004D06894B111D9C00895BCD088F09F57C6
:1048300090F0B92F9927B751A0F0D1F0660F771FEC
:10484000881F991F1AF0BA95C9F712C0B13081F0CC
:10485000C3D0B1E00895C0C0672F782F8827B85F14
:1048600039F0B93FCCF3869577956795B395D9F72D
:104870003EF490958095709561957F4F8F4F9F4F37
:104880000895E89409C097FB3EF490958095709543
:1048900061957F4F8F4F9F4F9923A9F0F92F96E98C
:1048A000BB279395F695879577956795B795F11101
:1048B000F8CFFAF4BB0F11F460FF1BC06F5F7F4F9E
:1048C0008F4F9F4F16C0882311F096E911C07723B0
:1048D00021F09EE8872F762F05C0662371F096E8B9
:1048E000862F70E060E02AF09A95660F771F881F88
:1048F000DAF7880F9695879597F90895990F00082C
:10490000550FAA0BE0E8FEEF16161706E807F907A1
:10491000C0F012161306E407F50798F0621B730B3C
:10492000840B950B39F40A2661F0232B242B252BBD
:1049300021F408950A2609F4A140A6958FEF811D60
:10494000811D089597F99F6780E870E060E0089501
:104950009FEF80EC089500240A9416161706180697
:104960000906089500240A94121613061406050673
:104970000895092E0394000C11F4882352F0BB0F04
:1049800040F4BF2B11F460FF04C06F5F7F4F8F4F67
:104990009F4F089557FD9058440F551F59F05F3FA2
:1049A00071F04795880F97FB991F61F09F3F79F051
:1049B00087950895121613061406551FF2CF4695D3
:1049C000F1DF08C0161617061806991FF1CF869555
:1049D0007105610508940895E894BB276627772739
:1049E000CB0197F908958ADF08F48FEF08950EF050
:1049F000AAC0AECF6894A6CFD5DFC8F39923D1F370
:104A0000C6F3DF93CF931F930F93FF92C92FDD2738
:104A100088232AF02197660F771F881FDAF720E096
:104A200030E040E85FEB9FE3883920F0803E30F0D3
:104A300021968F7725DEEAECF0E003C021DEE7EF78
:104A4000F0E08FD08B01BE01EC01FB2E6F57710996
:104A50007595771F880B990B16DF28E132E741E344
:104A60005FE316D0AF2D9801AE01FF900F911F911B
:104A7000CF91DF9116DE7DCF0BD07BCF6CDF28F09E
:104A800071DF18F0952309F05DCF62CF1124A5CF17
:104A900081DFA0F3959FD1F3950F50E0551F629FE2
:104AA000F001729FBB27F00DB11D639FAA27F00D87
:104AB000B11DAA1F649F6627B00DA11D661F829FAE
:104AC0002227B00DA11D621F739FB00DA11D621F93
:104AD000839FA00D611D221F749F3327A00D611DB0
:104AE000231F849F600D211D822F762F6A2F112492
:104AF0009F5750408AF0E1F088234AF0EE0FFF1FE5
:104B0000BB1F661F771F881F91505040A9F79E3F1B
:104B1000510570F017CF61CF5F3FECF3983EDCF3A7
:104B2000869577956795B795F795E7959F5FC1F758
:104B3000FE2B880F911D9695879597F90895DEDED7
:104B4000880B990B08959F3F31F0915020F4879581
:104B500077956795B795880F911D9695879597F9E5
:104B60000895DF93CF931F930F93FF92EF92DF92FD
:104B70007B018C01689405C0DA2EEF0189DFFE010C
:104B8000E894A5912591359145915591AEF3EF01AA
:104B900088DDFE019701A801DA9479F7DF90EF90A4
:104BA000FF900F911F91CF91DF910895DB018F93BB
:104BB0009F930E946B26BF91AF91A29F800D911D84
:104BC000A39F900DB29F900D11240895AA1BBB1BAB
:104BD00051E107C0AA1FBB1FA617B70710F0A61BFD
:104BE000B70B881F991F5A95A9F780959095BC011E
:104BF000CD01089597FB072E16F4009407D077FD9A
:104C000009D00E94E62507FC05D03EF490958195D9
:104C10009F4F0895709561957F4F0895A1E21A2ED8
:104C2000AA1BBB1BFD010DC0AA1FBB1FEE1FFF1F50
:104C3000A217B307E407F50720F0A21BB30BE40BA0
:104C4000F50B661F771F881F991F1A9469F76095E7
:104C50007095809590959B01AC01BD01CF010895A1
:104C6000052E97FB1EF400940E94472657FD07D09F
:104C70000E940E2607FC03D04EF40C944726509554
:104C80004095309521953F4F4F4F5F4F0895909538
:104C90008095709561957F4F8F4F9F4F0895EE0FD0
:104CA000FF1F0590F491E02D0994A29FB001B39FDE
:104CB000C001A39F700D811D1124911DB29F700D25
:104CC000811D1124911D08950E945526B7FF089556
:104CD000821B930B08950E945526A59F900DB49FAB
:104CE000900DA49F800D911D11240895CF93DF9303
:104CF0008230910510F482E090E0E0918005F0911F
:104D0000810520E030E0A0E0B0E0309739F140814B
:104D1000518148175907B8F04817590771F4828133
:104D20009381109729F013969C938E9312972CC021
:104D3000909381058093800527C02115310531F0BE
:104D40004217530718F0A901DB0101C0EF019A01D6
:104D5000BD01DF010280F381E02DD7CF21153105A0
:104D6000F9F0281B390B2430310580F48A819B81AE
:104D70006115710521F0FB019383828304C0909338
:104D8000810580938005FE01329644C0FE01E20F4A
:104D9000F31F8193919322503109398328833AC0BC
:104DA00020917E0530917F05232B41F42091020153
:104DB0003091030130937F0520937E0520910001FF
:104DC000309101012115310541F42DB73EB74091D5
:104DD000040150910501241B350BE0917E05F091F3
:104DE0007F05E217F307A0F42E1B3F0B28173907A6
:104DF00078F0AC014E5F5F4F2417350748F04E0F37
:104E00005F1F50937F0540937E058193919302C06D
:104E1000E0E0F0E0CF01DF91CF910895CF93DF93F1
:104E2000009709F487C0FC01329713821282C09167
:104E30008005D0918105209781F420813181280F50
:104E4000391F80917E0590917F058217930779F530
:104E5000F0937F05E0937E056DC0DE0120E030E039
:104E6000AE17BF0750F412964D915C9113979D01B8
:104E70004115510509F1DA01F3CFB383A2834081D3
:104E80005181840F951F8A179B0771F48D919C9116
:104E90001197840F951F02969183808312968D91AE
:104EA0009C911397938382832115310529F4F09304
:104EB0008105E09380053EC0D9011396FC93EE93E3
:104EC00012974D915D91A40FB51FEA17FB0779F476
:104ED00080819181840F951F0296D90111969C9330
:104EE0008E938281938113969C938E931297E0E028
:104EF000F0E08A819B81009719F0FE01EC01F9CF67
:104F0000CE01029628813981820F931F20917E0560
:104F100030917F052817390769F4309729F41092EA
:104F200081051092800502C013821282D0937F0502
:104F3000C0937E05DF91CF91089581E090E0F894D1
:104F40000C94B827DC0101C06D9341505040E0F74C
:104F50000895FB01DC014150504048F001900D9252
:104F60000020C9F701C01D9241505040E0F708955C
:104F700012E0CCE4D2E004C0FE010E945126229649
:0A4F8000CE34D107C9F7F894FFCF33
:104F8A00000082058000010000005A00460032003D
:104F9A008A02390501FFFFFFFF00E100000000005F
:104FAA000000C18081000000436972637569742042
:104FBA00506C617967726F756E642044796E616DA9
:104FCA00696320436F6E66657474690054656D7019
:104FDA00657261747572652000202A462C206D6105
:104FEA00707065642074656D702076616C75653AC1
:104FFA0020000000000081068D0654019906510127
:10500A000000000016071D071C07851A851A4C495F
:10501A00533344480000000000B508BB081C07438E
:10502A000BC20800000000EC15BF1594159C15AFC3
:10503A0015BE1500000000871ACE1AB11AC11A9DB2
:10504A001AAE1A0D0A006E616E00696E66006F76FE
:04505A0066002E00BE
:00000001FF
