:100000000C94F1000C9419010C9419010C94190131
:100010000C9419010C9419010C9419010C941901F8
:100020000C9419010C9419010C948E180C9415174A
:100030000C9419010C9419010C9419010C941901D8
:100040000C9419010C9419010C9419010C941901C8
:100050000C9419010C9419010C9419010C9464125C
:100060000C9419010C9419010C9419010C941901A8
:100070000C9419010C9419010C9419010C94190198
:100080000C9482140C9419010C9419010C9419010C
:100090000C9437110C9419010C9419010C9419014A
:1000A0000C9419010C9419010C94190185138813EF
:1000B00077137B138113A913A913A9138C1390131E
:1000C00094139A139E13A913A413000000020009AD
:1000D0000F0000030401000C0000000000000000FD
:1000E0000000000000000000000408020110408031
:1000F000401020408040800802040180402010020F
:10010000011080102040402004040404040304056E
:1001100002020202040302020202060606060606A4
:100120000404020202040400000000230026002947
:10013000002C002F0000000000250028002B002EBE
:1001400000310000000000240027002A002D0030AC
:100150000012010002EF0201409A23118000010108
:1001600002030112010002000000409A23118000E6
:10017000010102030141646166727569740043699B
:10018000726375697420506C617967726F756E6403
:100190000004030904080B00020202010009040024
:1001A00000010202000005240010010524010101E4
:1001B00004240206052406000107058103100040FF
:1001C00009040100020A00000007050202400000C5
:1001D00007058302400000002906B90E5510151AC4
:1001E000420611241FBECFEFDAE0DEBFCDBF11E023
:1001F000A0E0B1E0EAE2FCE302C005900D92AE3669
:10020000B107D9F724E0AEE6B1E001C01D92A432F7
:10021000B207E1F711E0C0EED1E004C02297FE0181
:100220000E94A11CC83DD107C9F70E9445140C9437
:10023000081E0C94000080E991E00895209A08952A
:1002400064E18FEA91E00E94150568EB7BE080E0B5
:1002500090E00E94DD1280918001811145C01092D2
:100260007201109271018FEF809375018093760176
:1002700080937701809378018093790180937A014C
:1002800081E080937B0110927D0110927C0110929D
:100290007401109273018091DF029091E002892B2A
:1002A00031F48FE691E09093E0028093DF02E091D9
:1002B000DD02F091DE02309721F08FE691E0958328
:1002C00084838FE691E09093DE028093DD021092AA
:1002D0007F0110927E0181E291E090937001809302
:1002E0006F0181E08093800120E030E04AE050E03F
:1002F00068E871E08FE691E00E947E0EFC0180EBE1
:1003000086838FEF8783808780E48093E1020E9459
:10031000AE126093A6017093A7018093A8019093F9
:10032000A90108950F931F93CF93DF9300D000D0BE
:1003300000D0CDB7DEB74AE06AE070E088E891E02F
:100340000E94DF0C0E94AE120091A6011091A7013D
:100350002091A8013091A901601B710B820B930BB6
:10036000009106011091070120E030E00617170701
:100370002807390770F58091080190910901E5E09F
:10038000F8E08E9FA0018F9F500D9E9F500D11246D
:10039000475E594C50930901409308019A01AAE025
:1003A000B0E00E94A51CAA27BB278C01000F111FDB
:1003B000080F191F08571E4FD8018C91811109C0D1
:1003C00011968C911197811104C012968C918823FB
:1003D000C9F06091E10281EE92E00E94840D42E357
:1003E00050E060E070E081EE92E00E94050E2696FB
:1003F0000FB6F894DEBF0FBECDBFDF91CF911F9136
:100400000F9108954E9F90014F9F300D5E9F300DCC
:100410001124275E394C632F620F4FE3649F612DD7
:10042000112445E058E0249FC001259F900D349F82
:10043000900D1124875E994C9093090180930801D7
:10044000890F8C8360546D838FEF8E83BE016F5F45
:100450007F4FCE0104960E94CC0E3981F801208195
:10046000230F08F42FEF20833A812181230F08F412
:100470002FEFF80121833B812281230F08F42FEF16
:1004800022830E94AE126093A6017093A70180930D
:10049000A8019093A9019DCF8F929F92AF92BF9296
:1004A000CF92DF92EF92FF920F931F93CF93DF9340
:1004B000EC01E881F98195B1916085B18E7F85B9B4
:1004C00038852D81D32ED21ADD82AD84AA81BB81DD
:1004D0002B859A848C84EC80FE807F81198509901D
:1004E000D881C02D0981002331F0402F0D2D400F00
:1004F00008F44FEF01C040E0042F029F012D1124AA
:10050000C0E04C2F5C2F6C2F002CEA01CC2E4C2D20
:100510005D2F002C95B907FF85B960814427889429
:1005200085B961116E0D002C95B906FF85B908F4E7
:100530006FEF8894002C85B990FC460F002C95B97C
:1005400005FF85B94795889491FC460F85B9479575
:100550008894002C95B904FF85B992FC460F479505
:10056000889485B993FC460F002C95B903FF85B993
:100570004795889494FC460F85B947958894002C3C
:1005800095B902FF85B995FC460F4795889485B9C2
:1005900096FC460F002C95B901FF85B947958894C4
:1005A00097FC460F85B947958894002C95B900FFB4
:1005B00085B9E194E70E00C085B9042F002C002C0A
:1005C00095B907FF85B962814427889485B961117F
:1005D0006F0D002C95B906FF85B908F46FEF88946C
:1005E000002C85B980FC460F002C95B905FF85B914
:1005F0004795889481FC460F85B947958894002CCF
:1006000095B904FF85B982FC460F4795889485B952
:1006100083FC460F002C95B903FF85B94795889454
:1006200084FC460F85B947958894002C95B902FF44
:1006300085B985FC460F4795889485B986FC460F99
:10064000002C95B901FF85B94795889487FC460F22
:1006500085B947958894002C95B900FF85B9EA0DB6
:10066000F11D8894042F85B9F194F10E002C95B9F1
:1006700007FF85B961814427889485B961116D0DA3
:10068000002C95B906FF85B908F46FEF8894002C0B
:1006900085B920FD460F002C95B905FF85B9479512
:1006A000889421FD460F85B947958894002C95B90B
:1006B00004FF85B922FD460F4795889485B923FD2F
:1006C000460F002C95B903FF85B94795889424FD02
:1006D000460F85B947958894002C95B902FF85B9D6
:1006E00025FD460F4795889485B926FD460F002CB9
:1006F00095B901FF85B94795889427FD460F85B9BF
:1007000047958894002C95B900FF85B9D194D30EF4
:10071000042F002C85B9119709F0FBCEDF91CF9102
:100720001F910F91FF90EF90DF90CF90BF90AF900F
:100730009F908F900895FF920F931F93CF93DF9315
:10074000EC0180916E018F5F982F977090936E01EE
:1007500080FD02C080E001C080E891FD806494705B
:1007600009F0806240E1F42EF80E20E030E000E075
:1007700011E0FE01E20FF31F6285662331F070E0A5
:10078000C8010E944A1C6F5F01C060E067834F2D63
:10079000469F412D11244483662311F061506783E5
:1007A0002F5F3F4F2330310521F7DF91CF911F910C
:1007B0000F91FF900895AF92BF92CF92DF92EF9288
:1007C000FF920F931F93CF93DF93CDB7DEB72E9792
:1007D0000FB6F894DEBF0FBECDBF6C015A01F90110
:1007E000DC011C968C917A8369835C834B839081B6
:1007F0009B8791819C8792819D87813029F4CE01CE
:1008000001960E949B0306C01A86198618861F82CD
:100810001E821D8289819A818E0D911D9A83898302
:10082000002319F083E08E0D01C080E08E870E94C6
:10083000BA12F60127853089621B730B6A30710585
:10084000B0F3F894CE0101960E944C0220EF30E004
:10085000D5010E94B41CA3E096958795779567957E
:10086000AA95D1F740E050E02AE9A29E412DB29E20
:10087000400D511D11248A0120E030E0000F111FAE
:10088000221F331F060F171F281F391F093EF3E0D1
:100890001F0721053105A8F1B901A801485E5340A1
:1008A00061097109E2E07695679557954795EA9554
:1008B000D1F780E090E027E0429F812D529F800D8C
:1008C000911D11242091AA0130E0240F351F280F1B
:1008D000391F8091A9039091AA03A091AB03B09115
:1008E000AC03432F5527840F951FA11DB11D809385
:1008F000A9039093AA03A093AB03B093AC032093F6
:10090000AA0178940E94BA12D60150967C936E93F5
:100910001F972E960FB6F894DEBF0FBECDBFDF91A6
:10092000CF911F910F91FF90EF90DF90CF90BF90EC
:10093000AF900895EF92FF920F93E12CF12C00E01D
:100940000E94DB030F91FF90EF900895EF92FF92CA
:100950000F93E12CF12C01E00E94DB030F91FF903B
:10096000EF900895EF92FF920F93CF93DF9300D013
:100970001F92CDB7DEB7AB0119821A821B82E12C20
:10098000F12C00E09E012F5F3F4FB9010E94DB0375
:100990000F900F900F90DF91CF910F91FF90EF90FC
:1009A0000895CF93CFB7F8948091AE01811127C0FD
:1009B000E9E1F1E08491EAEFF0E09491E82FF0E0D2
:1009C000EE0FFF1FED5BFE4FA591B4918C91892333
:1009D00021F461E081E10E94E31361E081E10E9482
:1009E000AA138CB580618CBD8CB580648CBD61E030
:1009F0008FE00E94AA1361E080E10E94AA13809117
:100A0000AE018F5F8093AE01CFBFCF9108952FE2EB
:100A100031E0FC0131832083089508952FE231E015
:100A2000FC01318320830C945814FF920F931F9381
:100A3000CF93DF93CDB7DEB76E970FB6F894DEBFD6
:100A40000FBECDBF8C01F62E61E08DE00E94AA138F
:100A500060E085E10E94AA1360E084E00E94AA138E
:100A600060E083E10E94AA1361E085E00E94AA137E
:100A700061E08EE10E94AA1322E530E041E16AE0E4
:100A800070E0CE0101960E94BF0B85E1FE01319618
:100A9000D80101900D928A95E1F7CE0101960E944E
:100AA000B00968E0CE0101960E94DA068B81F80158
:100AB000878B8C819D81918F808F8E819F81938F79
:100AC000828F88859985958F848F8A859B85AC8553
:100AD000BD85868F978FA0A3B1A38E859F85A8899A
:100AE000B98982A393A3A4A3B5A38A899B89AC895E
:100AF000BD8986A397A3A0A7B1A74E895F89688DFA
:100B0000798D42A753A764A775A78A8D86A78B8D79
:100B100087A78C8D80AB8D8D81AB8E8D82ABC8010C
:100B20000E94C409C8010E94480A6F2DC8010E9492
:100B3000E70B40E06EE1CE0101960E94280C8EE1A9
:100B4000FE013196D801D49601900D928A95E1F775
:100B500041E06EE1CE0101960E94280CD801AE5A08
:100B6000BF4F8EE1FE01319601900D928A95E1F71B
:100B700042E06EE1CE0101960E94280CD801A059F6
:100B8000BF4F8EE1FE01319601900D928A95E1F7FB
:100B900043E06EE1CE0101960E94280CD801A257D5
:100BA000BF4F8EE1FE01319601900D928A95E1F7DB
:100BB00046E06EE1CE0101960E94280CD801A455B2
:100BC000BF4F8EE1FE01319601900D928A95E1F7BB
:100BD00049E06EE1CE0101960E94280CD801A6538F
:100BE000BF4F8EE1FE01319601900D928A95E1F79B
:100BF0004AE06EE1CE0101960E94280CD801A8516E
:100C0000BF4F8EE1FE01319601900D928A95E1F77A
:100C10004CE06EE1CE0101960E94280CD801AA5F3B
:100C2000BE4F8EE1FE01319601900D928A95E1F75B
:100C300068E1C80145960E9450096E960FB6F89477
:100C4000DEBF0FBECDBFDF91CF911F910F91FF90FF
:100C50000895CF93DF938FEA91E00E94990984EC85
:100C600091E00E94C806C3EED1E040E060E0CE0112
:100C70000E94280C6E9682E0C33DD807B1F7DF9141
:100C8000CF9108958FE291E09093C5018093C401C4
:100C90008FEA91E00C94B0092FE231E0FC0131833E
:100CA000208308952FE231E0FC01318320830C94EE
:100CB00058140F931F93CF93DF938C01EB0188E2BD
:100CC000FB0111928A95E9F74BE050E069E371E08E
:100CD000CE010E94F91D1B8641E050E060E070E00B
:100CE0004C875D876E877F87F8010589168927897C
:100CF000308D088B198B2A8B3B8B4C8B5D8B6E8BCD
:100D00007F8B1CA21DA21EA21FA2188E198E1A8EE6
:100D10001B8E1C8E1D8E1E8E1F8E18A219A21AA24B
:100D20001BA2DF91CF911F910F910895DC01ED91EE
:100D3000FC910190F081E02D09942091AD012223D6
:100D400099F03FB7F8942091AD01213059F42DB3BB
:100D50002093AB014DB32091AC01209524232DBBF2
:100D60003FBF02C03093AB018CBD9DBD0895809103
:100D7000AD01882361F09FB7F8942091AD01809177
:100D8000AB01213019F48DBB9FBF08958FBF08952B
:100D9000FC0184E491E0918380834FEF5FEFBA011F
:100DA000458B568B678B708F8FEF828F838F848FED
:100DB000858F0895FC01262F84E491E09183808340
:100DC0004FEF5FEFBA01458B568B678B708F228F89
:100DD0008FEF838F848F858F0895AF92BF92DF92BC
:100DE000EF92FF920F931F93CF93DF931F92CDB794
:100DF000DEB75C01D62EFC01858D8F3F39F46EBDC8
:100E000000000DB407FEFDCF8EB52AC007E010E04C
:100E100040E0EE24E394F12C440F60E0F501858D71
:100E200049830E94E3139701002E01C0220F0A9408
:100E3000EAF76D2D6223F501838D0E94E31361E0D3
:100E4000F501858D0E94E313F501848D0E9419142C
:100E50004981892B09F0416001501109E8F6842F7E
:100E60000F90DF91CF911F910F91FF90EF90DF9046
:100E7000BF90AF9008950F931F93CF93DF93EC0132
:100E8000062F142F8A8D8F3FB9F4698D88EE92E07A
:100E90000E943310602F88EE92E00E94DA0F612FDB
:100EA00088EE92E00E94DA0F88EE92E0DF91CF9117
:100EB0001F910F910C9452108D8D8F3F21F481E57D
:100EC00090E00E949D0660E08A8D0E94E313602FEF
:100ED0006F77CE010E94ED06612FCE010E94ED06D4
:100EE00061E08A8D0E94E3138D8D8F3F31F4DF9195
:100EF000CF911F910F910C94B706DF91CF911F9165
:100F00000F9108951F93CF93DF93EC01162F8A8DD5
:100F10008F3F11F5898D682F772767FD709588EED3
:100F200092E00E943D10612F88EE92E00E94DA0F5D
:100F300088EE92E00E945210698D772767FD7095C8
:100F400041E050E088EE92E00E94301088EE92E09E
:100F50000E948A0F182F1EC08D8D8F3F21F481E5CE
:100F600090E00E949D0660E08A8D0E94E313612F4D
:100F70006068CE010E94ED0660E0CE010E94ED06A1
:100F8000182F61E08A8D0E94E3138D8D8F3F11F43D
:100F90000E94B706812FDF91CF911F91089563E2E0
:100FA0000E94820790E034E0959587953A95E1F7A5
:100FB000837099270895CF92DF92EF92FF92CF939B
:100FC000DF93EC018A8D8F3F09F056C0698D77273A
:100FD00067FD709588EE92E00E943D1068EA70E02F
:100FE00088EE92E00E94960688EE92E00E945210EF
:100FF000698D772767FD709546E050E088EE92E0B6
:101000000E94301088EE92E00E948A0F9C838B83AE
:1010100088EE92E00E948A0F20E030E0382F8B812A
:101020009C81822B932B9C838B8388EE92E00E9481
:101030008A0F9E838D8388EE92E00E948A0F20E0C3
:1010400030E0382F8D819E81822B932B9E838D8360
:1010500088EE92E00E948A0F98878F8388EE92E054
:101060000E948A0F20E030E0382F8F819885822BF4
:10107000932B98878F8348C08D8D8F3F21F481E516
:1010800090E00E949D0660E08A8D0E94E31368EE66
:10109000CE010E94ED066FEFCE010E94ED0690E0BA
:1010A0009C838B836FEFCE010E94ED062B813C81E8
:1010B000382B3C832B836FEFCE010E94ED0690E02E
:1010C0009E838D836FEFCE010E94ED062D813E81C0
:1010D000382B3E832D836FEFCE010E94ED0690E00A
:1010E00098878F836FEFCE010E94ED062F813885A0
:1010F000382B38872F8361E08A8D0E94E3138D8D12
:101100008F3F11F40E94B706CE010E94CF078330B3
:1011100049F0823051F0813059F0882361F061E06C
:1011200070E00BC065E575E008C060E070E105C0E7
:101130006EEF7FE102C06CEF7FE380E090E00E9401
:10114000351B6B017C016B817C81882777FD809545
:10115000982F0E94371BA70196010E94CD1A69871C
:101160007A878B879C876D817E81882777FD809524
:10117000982F0E94371BA70196010E94CD1A6D87F8
:101180007E878F87988B6F817885882777FD8095FC
:10119000982F0E94371BA70196010E94CD1A698BD8
:1011A0007A8B8B8B9C8BDF91CF91FF90EF90DF90B0
:1011B000CF9008950F931F93CF93DF938C01EB0192
:1011C00084E2FB0111928A95E9F784E290E0A0E0C5
:1011D000B0E088839983AA83BB83F80185899689C7
:1011E000A789B08D8C839D83AE83BF8381E090E01F
:1011F000A0E0B0E088879987AA87BB87188A198AF8
:101200001A8A1B8AC8010E94DB072AE038EE4CE1EB
:1012100051E4F80161857285838594850E94C31B22
:101220006C8B7D8B8E8B9F8B2AE038EE4CE151E4EA
:10123000F80165857685878590890E94C31B688F34
:10124000798F8A8F9B8F2AE038EE4CE151E4F801C8
:1012500061897289838994890E94C31B6C8F7D8FF9
:101260008E8F9F8FDF91CF911F910F9108950F93D4
:101270001F93CF93DF93EC018B0160E20E94820702
:10128000482F4F7054E0000F111F5A95E1F7402B83
:1012900060E2CE01DF91CF911F910F910C943B073B
:1012A000CF93DF93EC01698F8A8D8F3F29F488EE0D
:1012B00092E00E94191018C061E00E94E31361E0FF
:1012C0008A8D0E94AA138D8D8F3F19F40E94D1043C
:1012D0000BC061E00E94AA1361E08B8D0E94AA13EB
:1012E00060E08C8D0E94AA136FE0CE010E948207FD
:1012F0008333D9F447E060E2CE010E943B0767E008
:1013000070E0CE010E94370948E863E2CE010E94F6
:101310003B0740E162E2CE010E943B0740E86FE1FB
:10132000CE010E943B0781E001C080E0DF91CF91B8
:101330000895FC0181E0808311821382128215825C
:1013400014829FEF968317821186108682871386F8
:1013500092E09487858716861786108A118A0895E9
:10136000CF93DF93EC0188859985009711F00E9457
:101370005E1D8E8187FD05C060E0DF91CF910C94EA
:10138000AA13DF91CF910895CF93DF93EC018E8163
:1013900087FD07C061E00E94AA1360E08E810E9471
:1013A000E31381E08983DF91CF910895EF92FF925B
:1013B0000F931F93CF93DF93EC017B018885998571
:1013C000009711F00E945E1D9D858A85981303C0C9
:1013D00083E090E002C084E090E08E9D80018F9DCC
:1013E000100D9E9D100D11241D830C83C8010E94B9
:1013F000C61C99878887009741F0A80160E070E0DB
:101400000E94F21DFB82EA8204C01D821C821B82A4
:101410001A82DF91CF911F910F91FF90EF90089565
:10142000FC0121E095858285981320E0CB0136E010
:10143000969587953A95E1F7482F43704587CB01FC
:1014400054E0969587955A95E1F7382F3370328797
:10145000CB01969587959695879583708387862F80
:101460008370848781E06F3F710511F008F080E0A0
:10147000808380859185892B51F091E0431390E022
:10148000921729F062817381CF010C94D6090895D7
:10149000CF92DF92EF92FF920F931F93CF93DF9340
:1014A000CDB7DEB729970FB6F894DEBF0FBECDBF1C
:1014B0008C01DC0118968D919C911997892B09F468
:1014C0001DC10E94BA12F801C684D784E088F18851
:1014D0006C197D098E099F0962337105810591059B
:1014E00080F3F894848195819A838983A085B1855E
:1014F0007D01EFEFEE1AFE0A8C918987D8018C915D
:1015000052960D90BC91A02D882309F4BDC01D8278
:10151000AB32B10509F059C09BB1F8018489982B11
:1015200098879BB1809589238F838F818E8389854E
:1015300087FF02C088858E8358856F8149853E81EB
:101540002D8189819A81D7015BB9262F3BB900C0D3
:1015500046FD252F6BB900C05BB9362F2BB900C0F3
:1015600045FD352F6BB900C05BB9262F3BB900C0D4
:1015700044FD252F6BB900C05BB9362F2BB900C0D5
:1015800043FD352F6BB900C05BB9262F3BB900C0B6
:1015900042FD252F6BB900C05BB9362F2BB900C0B7
:1015A00041FD352F6BB900C05BB9262F3BB900C098
:1015B00040FD252F6BB901975BB9362F2BB94D91A3
:1015C00047FD352F6BB901F65BC0959709F08CC0CC
:1015D00095B1F8018489982B988795B180958923D6
:1015E0008F838F818E83898587FF02C088858E8354
:1015F00058856F8149853E812D8189819A81D701E6
:1016000055B9262F35B900C046FD252F65B900C054
:1016100055B9362F25B900C045FD352F65B900C035
:1016200055B9262F35B900C044FD252F65B900C036
:1016300055B9362F25B900C043FD352F65B900C017
:1016400055B9262F35B900C042FD252F65B900C018
:1016500055B9362F25B900C041FD352F65B900C0F9
:1016600055B9262F35B900C040FD252F65B9019722
:1016700055B9362F25B94D9147FD352F65B901F67E
:1016800049873E832D832EC09C91F8018489982B35
:1016900098879C91809589238F838F818C8388E0A4
:1016A0008B8358856F8149853B812C8189819A8103
:1016B000F7015C9347FD252F2C93262F3A9531F0A7
:1016C000441F6C9300C000C000C0F3CF6C930000B7
:1016D00038E04191019769F7F801B38BA28B4987F4
:1016E0003B832C839A83898378940E94BA12D80111
:1016F0001E966D937D938D939C93519729960FB66B
:10170000F894DEBF0FBECDBFDF91CF911F910F9137
:10171000FF90EF90DF90CF9008951F93CF93DF93CA
:10172000EC01162F8981882331F08E8187FD03C05B
:1017300060E00E94AA131E838981882341F061E042
:10174000812F0E94AA1360E0812F0E94E313812F52
:1017500090E0FC01E85FFE4FE491F0E0EE0FFF1F28
:10176000EB5CFE4F259134913B8B2A8BFC01E751BA
:10177000FF4F84918C8BDF91CF911F910895EF9251
:10178000FF920F931F93CF93DF931F92CDB7DEB7D6
:101790007C018B01FC01118217821186108616864E
:1017A0001786108A118AB90149830E94100AB8016C
:1017B000C7010E94D6094981642FC7010F90DF91AC
:1017C000CF911F910F91FF90EF900C948D0BFF9292
:1017D0000F931F93CF93DF93EC01FF24F394F60E46
:1017E0002F81F21679F1088519852150B9F06F3FE4
:1017F00059F430E040E050E06FEF7FEF80E090E0A0
:101800000E94801CB9010CC08F2D90E0982F882772
:101810000197622F70E00E94361C02C060E070E009
:10182000F8018C819D81AF01401B510B481759076E
:1018300040F44081469FC001479F900D1124919331
:10184000F0CFFF82DF91CF911F910F91FF9008950C
:10185000EF92FF920F931F93CF93DF93EC01E62E4D
:10186000F42E21E030E03983288326E331E03F8302
:101870002E8300EF1AEB24E030E0088719872A87CF
:101880003B8700E21EE420E030E00C871D872E87B6
:101890003F878EE1861720F42FEF3FEF39832883AF
:1018A0008EE18F1520F42FEF3FEF3983288361E01D
:1018B0008E2D0E94AA1360E08F2D0E94AA1360E073
:1018C0008E2D0E94E3136E2D70E0FB01E751FF4F58
:1018D000E491E88FFB01E85FFE4FE491F0E0EE0F4A
:1018E000FF1FE95DFE4F259134913A8F298F4F2DCF
:1018F00050E0FA01E751FF4FE491EB8FFA01E85F06
:10190000FE4FE491F0E0EE0FFF1FE95DFE4F859181
:1019100094919D8F8C8F4FEF5FEF6FEF7FE04A8345
:101920005B836C837D830E94AE12688B798B8A8B7C
:101930009B8BDF91CF911F910F91FF90EF900895B6
:1019400011240895CF93DF93EC012881269F212D48
:1019500028832981269F212D29832A81269F212DB5
:101960002A830E94A00CCE01DF91CF910895CF92DF
:10197000DF92EF92FF920F931F93CF93DF931F920B
:10198000CDB7DEB77B018C01C12CD12CCE14DF0486
:1019900061F0642FC80149830E94A20C8FEFC81A1E
:1019A000D80A0D5F1F4F4981F1CF0F90DF91CF9182
:1019B0001F910F91FF90EF90DF90CF900895409589
:1019C0000C94B70C8F929F92AF92BF92EF92FF92BE
:1019D0000F931F93CF93DF93EC01188219821A8221
:1019E0004423B9F1E0E0F0E08B010A5F1F4F7B0177
:1019F00089E0E80EF11C842E912CA12CB12CD80189
:101A0000AE0FBF1F2C91D701AE0FBF1F6C912223C9
:101A1000E1F06623D1F030E040E050E02F5F3F4F2F
:101A20004F4F5F4F70E080E090E06F5F7F4F8F4FD0
:101A30009F4F0E94261C9B01AC01C501B4010E946E
:101A4000261CDE01AE0FBF1F8C933196E330F105EB
:101A5000B1F6CE01DF91CF911F910F91FF90EF90E2
:101A6000BF90AF909F908F900895CF92DF92EF92AA
:101A7000FF92CF93DF93EC018091D7029091D8022F
:101A80009C012F5F3F4F3093D8022093D7028617D7
:101A900097079CF10E94AE129B01AC01E091D70226
:101AA000F091D80288EE93E0E89FB001E99F700DB5
:101AB000F89F700D1124882777FD8095982FC0908E
:101AC000D302D090D402E090D502F090D6022C1927
:101AD0003D094E095F090E945E1C3A8329831092DA
:101AE000D8021092D7020E94AE126093D302709374
:101AF000D4028093D5029093D602DF91CF91FF90CC
:101B0000EF90DF90CF900895AF92BF92CF92DF9287
:101B1000EF92FF920F931F93CF93DF9300D01F920A
:101B2000CDB7DEB78C01B62EF80183819481A581F3
:101B3000B681892B8A2B8B2BD1F00E94BA12C090D0
:101B4000D902D090DA02E090DB02F090DC026C194E
:101B50007D098E099F09D8011396CD90DD90ED90F7
:101B6000FC9016976C157D058E059F05E8F20E9486
:101B7000BA126093D9027093DA028093DB029093D9
:101B8000DC02E090DF02F090E002E114F10451F198
:101B9000F701A484D80111968D919C9112978436F7
:101BA000910508F41486D701ED91FC91C280D38091
:101BB0004B2DB701CE0101960E94E20CF70145853D
:101BC0005685628173819E012F5F3F4FC701F601E9
:101BD0000995D7011C96AC921C971496ED90FC9039
:101BE0001597D3CF69E170E0C8010E94350D0F90C1
:101BF0000F900F90DF91CF911F910F91FF90EF9079
:101C0000DF90CF90BF90AF9008958F929F92AF9248
:101C1000BF92CF92DF92EF92FF92CF93DF93EC01CE
:101C20006A017B010E94AE124B015C010E94AE1260
:101C3000681979098A099B096C157D058E059F0530
:101C400058F461E070E080E090E00E94DD1268816D
:101C5000CE010E94840DEACFDF91CF91FF90EF90EB
:101C6000DF90CF90BF90AF909F908F900895CF92CC
:101C7000DF92EF92FF920F931F93CF93DF93EC01CC
:101C80004423F1F06115710581F19B0140E050E0C2
:101C900060E472E48FE090E00E94801CCB80DC80E6
:101CA000ED80FE8089019A010C151D052E053F056A
:101CB00010F4970186010B831C832D833E8315C08E
:101CC0006115710571F09B0140E050E060E472E441
:101CD0008FE090E00E94801C2B833C834D835E83C9
:101CE00004C01B821C821D821E82DF91CF911F9136
:101CF0000F91FF90EF90DF90CF900895CF92DF92F9
:101D0000EF92FF920F931F93CF93DF93EC016B0140
:101D10008A017901121613061CF07A0100E010E026
:101D2000E881F9810480F581E02DCE010995C80193
:101D3000880F991F800F911F8C0D9D1D9B838A8397
:101D4000FE86ED86E881F9810084F185E02DCE01E3
:101D5000099541E0BC0181EE92E00E94370ECE0170
:101D6000DF91CF911F910F91FF90EF90DF90CF9077
:101D700008958FEF8093E1021092E3021092E20245
:101D80000895FC012081222321F0269F212D09F0B6
:101D90002F5FFC0120830895FF920F931F93CF9331
:101DA000DF9300D000D0CDB7DEB7FC018B014081BE
:101DB000F1805281842F8F71880F880F880F282F10
:101DC00035E5239F212D1124342F3074942F9072E8
:101DD00047FD25C031110EC0911106C0822F80959C
:101DE0008B832A8319823FC08BEA8B832B5A2A83E9
:101DF000198239C091110DC0382F4AEA349F312D14
:101E000011249BEA931B9B8325552A83198280E02A
:101E10002AC01B8280E0822F80958A8312C03111F4
:101E200012C091110BC01B82282F3AEA239F212D4B
:101E300011248BEA821B8A832B5A03C02B831A82BC
:101E40002095298310C0911106C085E5820F8B83F0
:101E50001A828BEA06C08BEA820F8B831A8280E09B
:101E600085E5821B89832FEFF21601F16F2DCE01DC
:101E700003965C830E94C10E6F2DCE0102960E94D4
:101E8000C10E6F2DCE0101960E94C10E11246F2D3F
:101E90006095669F612D11248B81860F8B838A81CB
:101EA000860F8A838981860F89835C815F3FC9F0B1
:101EB000F12C2F2D552321F0559F212D09F02F5F57
:101EC000F22E622FCE0103960E94C10E6F2DCE011D
:101ED00002960E94C10E6F2DCE0101960E94C10E86
:101EE00011248B81F80180838A8181838981828397
:101EF0000F900F900F900F90DF91CF911F910F9146
:101F0000FF9008958091180390E020911903821B9F
:101F1000910908952091190380911803281750F40E
:101F2000E22FF0E0E65EFC4F808190E02F5F20938F
:101F3000190308958FEF9FEF0895E09119038091A1
:101F40001803E81730F4F0E0E65EFC4F808190E083
:101F500008958FEF9FEF08950895CF92DF92EF924B
:101F6000FF920F931F93CF93DF937C01CB018A01E4
:101F70002091F402222389F0EB016B01C40ED51EDF
:101F8000CC15DD0569F06991D701ED91FC910190C7
:101F9000F081E02DC7010995F3CF642F0E940E1147
:101FA000C801DF91CF911F910F91FF90EF90DF90CB
:101FB000CF900895CF93DF931F92CDB7DEB769839B
:101FC0002091F4022223D1F02091F502203240F03A
:101FD00021E030E0FC013383228380E090E015C0F3
:101FE0008091F602E82FF0E0E950FD4F998190834F
:101FF0008F5F8093F6028093F50205C061E0CE0109
:1020000001960E940E1181E090E00F90DF91CF9138
:102010000895FC011382128248EE53E060E070E004
:10202000448355836683778382E591E0918380833F
:10203000089510921903109218031092F60210924C
:10204000F5020C945910862F413208F040E26AE103
:1020500073E00E947710109219038093180308957B
:1020600021E00C94231081E08093F4026093170325
:102070001092F6021092F50208950C9433100F930B
:10208000062F21E04091F50267EF72E0809117037F
:102090000E94BB101092F6021092F5021092F40208
:1020A0000F91089561E00C943F1088EE92E00C943B
:1020B00009101092A70381E08093A5031092A40356
:1020C00061E082E00E94E31361E083E00E94E31399
:1020D000E9EBF0E080818E7F808380818D7F80833B
:1020E00080E28093B80085E48093BC00089541327B
:1020F00008F03FC09091A7039111FCCF91E090931D
:10210000A7032093A5032FEF20933A0310927F0398
:10211000240F20937E039093A6039091A603880F2B
:10212000892B8093A6038091A403813041F41092FF
:10213000A4038091A6038093BB0085EC01C085EECB
:102140008093BC008091A7038130E1F380917F03ED
:10215000841710F440917F0320E833E0FB01D9019C
:102160008A2F821B841718F48D918193F9CF842FC5
:10217000089580E008950F93413208F046C0909191
:10218000A7039111FCCF92E09093A7030093A503BE
:102190009FEF90933A0310927F0340937E03FB01DD
:1021A00060E873E0DB019A2F961B941718F4919165
:1021B0009D93F9CF1092A6039091A603880F892BC7
:1021C0008093A6038091A403813041F41092A4036C
:1021D0008091A6038093BB0085EC01C085EE8093BF
:1021E000BC00222321F08091A7038230E1F380918B
:1021F0003A038F3F61F080913A03803251F0809131
:102200003A03803341F483E007C081E005C080E0F9
:1022100003C082E001C084E00F910895613298F418
:102220002091A703243089F460935C03FC018EE5C0
:1022300093E0DC012A2F281B261718F421912D93F7
:10224000F9CF80E0089581E0089582E0089585ED5A
:102250008093BC008091BC0084FDFCCF1092A7034A
:10226000089585EC8093BC001092A70308951F92F7
:102270000F920FB60F9211242F933F934F935F93BA
:102280006F937F938F939F93AF93BF93EF93FF933E
:102290008091B900887F803609F49CC068F5883247
:1022A00009F45BC090F4803109F454C038F48823F9
:1022B00009F4F5C0883009F44DC0F5C0883109F43F
:1022C0004CC0803209F45DC0EEC0803409F468C0AF
:1022D00048F4803309F455C0883309F0E4C0809392
:1022E0003A03A8C0803509F44FC0883509F45DC0B1
:1022F000883409F0D8C0D5C0883909F4C6C0A8F41C
:10230000883709F467C038F4883609F463C0803729
:1023100009F460C0C8C0883809F4B7C0803909F42E
:102320005FC0803809F0BFC05BC0803B09F485C046
:1023300038F4803A09F466C0883A09F47EC0B3C024
:10234000803C09F4A6C0883C09F4A3C0883B09F48A
:1023500089C0A9C08091A60310C090917F0380918D
:102360007E03981770F5E0917F0381E08E0F8093D4
:102370007F03F0E0E058FC4F80818093BB0085EC48
:1023800085C080933A038DC0E0917F0381E08E0F7A
:1023900080937F038091BB00F0E0E058FC4F808386
:1023A00090917F0380917E036DC0E0917F0381E077
:1023B0008E0F80937F038091BB00F0E0E058FC4FCC
:1023C00080838091A50381116CC081E08093A40378
:1023D00084EA60C083E08093A70310923B03CFCFD1
:1023E00080913B03803208F050C0E0913B0381E0D4
:1023F0008E0F80933B038091BB00F0E0E45CFC4FC8
:102400008083BDCF80913B03803230F4E0913B0369
:10241000F0E0E45CFC4F10820E94271160913B03C6
:1024200070E0E091A003F091A1038CE393E00995A3
:1024300010923B030E94311136C084E08093A703C1
:1024400010925D0310925C03E091A203F091A3034C
:10245000099580915C03811105C081E080935C0344
:1024600010925E03E0915D0381E08E0F80935D0327
:10247000F0E0E25AFC4F80818093BB0090915D03B5
:1024800080915C03981708F47ACF85E88093BC00AC
:102490000AC085EC8093BC001092A70304C0109280
:1024A0003A030E942711FF91EF91BF91AF919F9145
:1024B0008F917F916F915F914F913F912F910F90ED
:1024C0000FBE0F901F9018951F920F920FB60F928C
:1024D00011242F933F938F939F93AF93BF9380913A
:1024E000A9039091AA03A091AB03B091AC033091E2
:1024F000A80326E0230F2D3720F40296A11DB11D5D
:1025000005C029E8230F0396A11DB11D2093A80340
:102510008093A9039093AA03A093AB03B093AC0359
:102520008091AD039091AE03A091AF03B091B00341
:102530000196A11DB11D8093AD039093AE03A093AE
:10254000AF03B093B003BF91AF919F918F913F9133
:102550002F910F900FBE0F901F9018952FB7F894E2
:102560006091A9037091AA038091AB039091AC0391
:102570002FBF08953FB7F8948091AD039091AE03BB
:10258000A091AF03B091B00326B5A89B05C02F3F23
:1025900019F00196A11DB11D3FBF6627782F892F25
:1025A0009A2F620F711D811D911D43E0660F771FE9
:1025B000881F991F4A95D1F708958F929F92AF92E5
:1025C000BF92CF92DF92EF92FF926B017C010E944B
:1025D000BA124B015C01C114D104E104F104F1F021
:1025E0000E9423190E94BA12681979098A099B0965
:1025F000683E73408105910570F321E0C21AD1084D
:10260000E108F10888EE880E83E0981EA11CB11C39
:10261000C114D104E104F10429F7DDCFFF90EF905C
:10262000DF90CF90BF90AF909F908F900895789457
:1026300084B5826084BD84B5816084BD85B58260C7
:1026400085BD85B5816085BDEEE6F0E08081816065
:102650008083E1E8F0E01082808182608083808165
:1026600081608083E0E8F0E0808181608083E1E93F
:10267000F0E0808182608083808181608083E0E9F6
:10268000F0E0808181608083E1ECF0E08081846013
:102690008083808182608083808181608083E3EC9D
:1026A000F0E0808181608083E0ECF0E080818260F6
:1026B0008083E2ECF0E0808181608083EAE7F0E0F3
:1026C00080818460808380818260808380818E7F2E
:1026D0008083808180688083089590E0FC01319739
:1026E000EF30F105B0F5EA5AFF4F0C949F1C809132
:1026F00080008F7703C0809180008F7D8093800061
:10270000089580918000877FF9CF84B58F7702C0CC
:1027100084B58F7D84BD0895809190008F7707C028
:10272000809190008F7D03C080919000877F80937F
:10273000900008958091C0008F7703C08091C00001
:102740008F7D8093C00008958091C200877F809321
:10275000C2000895CF93DF9390E0FC01E751FF4F53
:102760002491FC01E85FFE4F8491882349F190E0B9
:10277000880F991FFC01ED5BFE4FA591B4918B5C16
:102780009E4FFC01C591D4919FB7611108C0F89488
:102790008C91209582238C93888182230AC0623099
:1027A00051F4F8948C91322F309583238C93888147
:1027B000822B888304C0F8948C91822B8C939FBFCA
:1027C000DF91CF9108950F931F93CF93DF931F92C3
:1027D000CDB7DEB7282F30E0F901E653FF4F8491E3
:1027E000F901E751FF4F1491F901E85FFE4F0491A1
:1027F0000023C9F0882321F069830E946D13698149
:10280000E02FF0E0EE0FFF1FEB5CFE4FA591B491BF
:102810009FB7F8948C91611103C01095812301C07A
:10282000812B8C939FBF0F90DF91CF911F910F91C0
:102830000895CF93DF93282F30E0F901E653FF4F3F
:102840008491F901E751FF4FD491F901E85FFE4F00
:10285000C491CC2391F081110E946D13EC2FF0E014
:10286000EE0FFF1FE95DFE4FA591B4912C912D2332
:1028700081E090E021F480E002C080E090E0DF9110
:10288000CF9108950E94ED1D08950E9417130E9494
:10289000441488EB93E00E9408190E942001C0E0D4
:1028A000D0E00E9492012097E1F30E940000F9CF4E
:1028B0000C945E1D8230A1F028F4882341F0813011
:1028C00049F00895833091F08430B1F0089510926A
:1028D0006E00089580916F008D7F80936F00089542
:1028E000809170008D7F80937000089580917100B9
:1028F0008D7F809371000895809172008F7B80930B
:10290000720008951F920F920FB60F9211242F9309
:102910003F934F935F936F937F938F939F93AF9367
:10292000BF93EF93FF938091B4039091B503A0916F
:10293000B603B091B703892B8A2B8B2B51F1909161
:10294000B103E091B203F091B303808189278083C2
:102950008091B4039091B503A091B603B091B703F1
:10296000181619061A061B062CF58091B4039091CF
:10297000B503A091B603B091B7030197A109B109BE
:102980008093B4039093B503A093B603B093B703B9
:1029900011C083E00E945A142091B103E091B20368
:1029A000F091B303808190E030E020953095822350
:1029B00093238083FF91EF91BF91AF919F918F916E
:1029C0007F916F915F914F913F912F910F900FBE2B
:1029D0000F901F9018954091BC035091BD0320911A
:1029E000BA033091BB0342175307B4F49091E80047
:1029F0009570E1F39091E80092FD19C08093F10089
:102A00008091BC039091BD0301968F739927892B08
:102A100019F48EEF8093E8008091BC039091BD0380
:102A200001969093BD038093BC0381E0089580E0FC
:102A30000895CF92DF92EF92FF920F931F93CF935F
:102A4000DF931F92CDB7DEB7082F162FF42E862FF7
:102A5000880F8E5F99830E94EB1483E00E94EB1431
:102A6000E02EC02E9981D92E8C2D8E19811798F4C5
:102A7000F601F7FE02C0849101C080810E94EB1430
:102A8000082F80E00E94EB148023FFEFCF1ADF0AAB
:102A90008111EACF01C081E00F90DF91CF911F91AA
:102AA0000F91FF90EF90DF90CF9008958091D70025
:102AB00081608093D70080EA8093D80089B58F7EAB
:102AC00089BD89B5826089BD09B400FEFDCF61E092
:102AD00070E080E090E00E94DD128091D8008F7C51
:102AE00080618093D8008091E000807F8093E00037
:102AF0000895CF93DF931F92CDB7DEB71982CE0131
:102B000001960E9481190E94B91ABE016F5F7F4F22
:102B10000E94321A89810F90DF91CF9108952FB7CB
:102B2000FC012083F89467706093E9000895CF93C7
:102B3000DF931F92CDB7DEB7682FCE0101960E94BA
:102B40008F158091F20099819FBF0F90DF91CF91F7
:102B50000895FF920F931F93CF93DF9300D0CDB7CB
:102B6000DEB7F62E8A019091C003992311F057FF2A
:102B700003C08FEF9FEF2AC0682FCE0101967A83A2
:102B80000E948F158091F20090E0A8017A81801751
:102B900091070CF4AC01EF2DF72FF40E84E6FE162E
:102BA00031F08093C1039091F1009193F8CF4115DA
:102BB000510521F08091F200882321F089818FBF97
:102BC000CA0104C08BE68093E800F8CF0F900F9005
:102BD000DF91CF911F910F91FF900895CF93DF93D5
:102BE0001F92CDB7DEB741E050E0BE016F5F7F4F6F
:102BF0000E94A915019719F4898190E002C08FEF16
:102C00009FEF0F90DF91CF910895CF93DF931F92A5
:102C1000CDB7DEB7682FCE0101960E948F15909137
:102C2000E800892F807295FF04C09091F20080E443
:102C3000891B99819FBF0F90DF91CF9108956F926B
:102C40007F928F929F92AF92BF92CF92DF92EF923C
:102C5000FF920F931F93CF93DF931F92CDB7DEB7F1
:102C6000782E7B01C42EB52E8091C003882369F095
:102C7000042F152F8AEFD82E872D8072982E9AE375
:102C8000A92E872D8074882E11C08FEF9FEF56C01C
:102C9000872D0E940516682E81110CC0DA94A9F3C5
:102CA00061E070E080E090E00E94DD120115110506
:102CB00079F73BC0282F30E0021713070CF4602E81
:102CC000672DCE0101960E948F158091E80085FF47
:102CD00029C0262D30E0021B130B992039F06A948D
:102CE0008FEF6816B1F01092F100F9CFF701862D41
:102CF00077FE07C0815058F094919093F10031967F
:102D0000F9CF815020F091919093F100FACFE20E2B
:102D1000F31E8091E80085FF0EC00115110511F426
:102D2000811009C089818FBFC1CF84E68093C2031F
:102D30008C2D9B2D03C0A092E800F4CF0F90DF9163
:102D4000CF911F910F91FF90EF90DF90CF90BF90A8
:102D5000AF909F908F907F906F9008951092E900B0
:102D60001092BD031092BC039093BB038093BA03EF
:102D70000895CF92DF92FF920F931F93CF93DF932B
:102D800000D0CDB7DEB7F82E8A016B010115110511
:102D9000B1F0F601F7FE02C0849101C08081498341
:102DA0005A830E94EB1401501109FFEFCF1ADF0A7A
:102DB00049815A818111EACF8FEF9FEF01C0CA018B
:102DC0000F900F90DF91CF911F910F91FF90DF90A7
:102DD000CF900895CF93DF939B01A4E6BBEF21151D
:102DE0003105F9F0A9012134310514F040E450E037
:102DF000E091E800E2FFFCCFFB01E21BF30BE80FE0
:102E0000F91FCE2FC40FCE1729F0D091F100D08337
:102E10003196F9CFA093C103B093E800241B350B82
:102E2000DECFCB01DF91CF9108951F920F920FB6A5
:102E30000F921124DF92EF92FF920F931F932F9323
:102E40003F934F935F936F937F938F939F93AF9332
:102E5000BF93EF93FF93CF93DF93CDB7DEB76C971C
:102E6000DEBFCDBF1092E9008091E80083FF2EC144
:102E7000FE0175968F01AE01435E5F4F9F012F5F8C
:102E80003F4F8091F10080832417350711F0F9013D
:102E9000F5CF84E68093C10382EF8093E8005D89DB
:102EA00057FF05C08091E80080FFFCCF03C08EEF84
:102EB0008093E800852F807609F0EFC04E898F89D6
:102EC000D88C41110CC0503829F48091BF038093F5
:102ED000F10002C01092F1001092F100F0C0282F12
:102EE00030E03D29413051F45111E9C02130310524
:102EF00009F0E5C08091BF038D7F0BC0433061F4C2
:102F00005111DDC02130310509F0D9C08091BF03D6
:102F100082608093BF03D3C0453041F49091E800B4
:102F200090FFFCCF80688093E300C9C0463009F071
:102F30008BC0EB8CFC8C22E0D2122CC080E090E0A5
:102F40000E94AE160E94791599E08E010F5F1F4F07
:102F5000F801292F11922A95E9F79983DA8291E0F5
:102F60009E8390EA98879AEF99872091BC033091CD
:102F7000BD03275F3F4F3C832B838D83C7010E9496
:102F8000AE1649E050E0B80180E00E94B9160E94F8
:102F9000791595C0C7010E94AE160E94B91AB801F2
:102FA0000E945B1A009719F00CF089C08CC081E078
:102FB000D8120EC08B8D9C8D089719F481E08093F8
:102FC000B9038091B90381112FC063E671E031C06C
:102FD000E3E0DE1278C08F89882349F1823029F43A
:102FE00040E862E18EE791E01CC0813029F440E8BE
:102FF00068E085E791E015C0833009F064C00E9465
:10300000B91A8E010F5F1F4FB8010E947A1AF8019A
:1030100001900020E9F73197E01BF10B40E06E2FA3
:10302000C8010E94191549C061E571E002C061E95B
:1030300071E06115710509F446C0FB01449150E04F
:1030400080E80E94B9163BC04730E9F1483021F4CE
:1030500081E08093F10033C0493089F5537099F5D0
:10306000EBE0F1E081E021E036E39081992361F02B
:103070008093E9002093EB0091919093EC003093C2
:10308000ED008F5F873089F78EE78093EA0010921A
:10309000EA008F898093C00312C08B8D9C8D0E94A3
:1030A000AE16898D811104C0C8010E948C1905C01B
:1030B0000E94B91AB8010E94991A882321F08EEF54
:1030C0008093E80003C081E28093EB006C960FB61A
:1030D000F894DEBF0FBECDBFDF91CF91FF91EF918E
:1030E000BF91AF919F918F917F916F915F914F9120
:1030F0003F912F911F910F91FF90EF90DF900F90D4
:103100000FBE0F901F9018958093E9008091F200F8
:10311000882319F08AE38093E80008951F920F92A4
:103120000FB60F9211242F933F934F935F936F939A
:103130007F938F939F93AF93BF93CF93EF93FF931F
:10314000C091E1008091E100837F8093E100809352
:10315000E100C3FF0FC01092E90081E08093EB0013
:103160001092EC0082E38093ED001092C00388E09F
:103170008093F000C2FF15C083E00E948418809104
:10318000C203882329F08091C20381508093C20337
:103190008091C103882329F08091C10381508093DD
:1031A000C103C4FF10C08091E2008E7E81608093D5
:1031B000E2008091E1008F7E8093E1008091BE0368
:1031C0008E7E806111C0C0FF11C08091E2008E7EB2
:1031D00080618093E2008091E1008E7E8093E10027
:1031E0008091BE038E7E81608093BE03FF91EF913C
:1031F000CF91BF91AF919F918F917F916F915F918F
:103200004F913F912F910F900FBE0F901F901895E7
:103210001092C0031092BF031092BE030E94561575
:103220008091E1008E7E8093E1008DE08093E2004A
:10323000EEEFFFE7859194918B3F9C4D19F481E06F
:103240008093130408950895CF93DF931F92CDB711
:10325000DEB76983DC01ED91FC910280F381E02D02
:1032600041E050E0BE016F5F7F4F09950F90DF9105
:10327000CF910895CF93DF93EC018C859D8597FFC7
:1032800005C082E00E94EE159D878C878C859D8508
:10329000DF91CF91089583E00C948418FC0184851C
:1032A000958597FD06C082E00E94971590E00196F3
:1032B000089582E00E94971590E00895FC018485AE
:1032C000958597FD05C02FEF3FEF3587248708953B
:1032D00082E00C94EE15CF93DF93EC0180911C01FA
:1032E000882331F083E00E941F161816190634F067
:1032F00081E090E09B838A8380E090E0DF91CF9132
:103300000895FC0120812E5F208342E450E065E9AE
:1033100071E080E80C94B916FC0121818081813A2A
:1033200059F4213209F04BC047E050E065E171E00B
:1033300080E00E94B9165EC0813209F040C023329D
:1033400089F4838190E0982F88273281832BA0E035
:10335000B0E08093110190931201A0931301B093F8
:1033600014010FC0203239F467E070E085E191E08C
:103370000E94EA1609C0223221F4828180931C0146
:1033800003C02D7F2032B1F580911304811103C059
:10339000E0E0F8E002C0EEEFFAE0809115019091D4
:1033A0001601A0911701B0911801803B9440A1052E
:1033B000B10511F580911C0180FF03C01DC080E0A4
:1033C0000895EE3F2AE0F20731F0808191819093D9
:1033D000FF0A8093FE0A87E797E7918380832BE0BB
:1033E00088E190E00FB6F894A895809360000FBE36
:1033F0002093600081E0089588E10FB6F8948093EF
:103400006000109260000FBEA895EE3F8AE0F807BA
:1034100039F08091FE0A9091FF0A91838083EACF70
:103420001092FF0A1092FE0AE5CF1092C603109286
:10343000C50388EE93E0A0E0B0E08093C7039093CB
:10344000C803A093C903B093CA0382E691E09093A6
:10345000C4038093C3038FEF9FEF9093D0038093B7
:10346000CF030895EF92FF920F931F93CF93DF93B3
:103470007B01FC01C281D38100E010E0209781F044
:10348000E881F9810280F381E02DB701CE01099531
:1034900097FD08C0080F191F0884D985C02DEECFED
:1034A000C80102C08FEF9FEFDF91CF911F910F9165
:1034B000FF90EF9008950F931F93CF93DF938B01AD
:1034C000FC01C281D381209771F0E881F9810480E9
:1034D000F581E02DB801CE010995009731F40884FB
:1034E000D985C02DF0CF80E090E0DF91CF911F9182
:1034F0000F9108950F931F93CF93DF938B01FC01DE
:10350000C281D381209771F0E881F9810680F7812B
:10351000E02DB801CE010995080F111D0884D98549
:10352000C02DF0CFF8011082DF91CF911F910F9144
:1035300008950F931F93CF93DF938B01FC01C281FA
:10354000D381209771F0E881F9810190F081E02D1D
:10355000B801CE010995811106C00884D985C02D16
:10356000F0CF80E001C081E0DF91CF911F910F91FA
:1035700008958091180481110DC082E08093140495
:1035800084E080931504109217041092160481E0D1
:103590008093180484E194E008950CD0BAC0B2D0AE
:1035A00040F0A9D030F021F45F3F19F09BC05111D9
:1035B000E4C09EC0BFD098F39923C9F35523B1F35B
:1035C000951B550BBB27AA2762177307840738F092
:1035D0009F5F5F4F220F331F441FAA1FA9F333D0F1
:1035E0000E2E3AF0E0E830D091505040E695001CA5
:1035F000CAF729D0FE2F27D0660F771F881FBB1F61
:10360000261737074807AB07B0E809F0BB0B802D3A
:10361000BF01FF2793585F4F2AF09E3F510568F086
:1036200061C0ABC05F3FECF3983EDCF386957795C5
:103630006795B795F7959F5FC9F7880F911D969588
:10364000879597F90895E1E0660F771F881FBB1FE4
:10365000621773078407BA0720F0621B730B840B91
:10366000BA0BEE1F88F7E0950895E89409C097FB20
:103670003EF490958095709561957F4F8F4F9F4F49
:103680009923A9F0F92F96E9BB279395F69587958D
:1036900077956795B795F111F8CFFAF4BB0F11F450
:1036A00060FF1BC06F5F7F4F8F4F9F4F16C08823F7
:1036B00011F096E911C0772321F09EE8872F762F2D
:1036C00005C0662371F096E8862F70E060E02AF06E
:1036D0009A95660F771F881FDAF7880F969587955A
:1036E00097F9089597F99F6780E870E060E0089582
:1036F0009FEF80EC089500240A941616170618060A
:103700000906089500240A941216130614060506E5
:103710000895092E0394000C11F4882352F0BB0F76
:1037200040F4BF2B11F460FF04C06F5F7F4F8F4FD9
:103730009F4F089557FD9058440F551F59F05F3F14
:1037400071F04795880F97FB991F61F09F3F79F0C3
:1037500087950895121613061406551FF2CF469545
:10376000F1DF08C0161617061806991FF1CF8695C7
:103770007105610508940895E894BB2766277727AB
:10378000CB0197F908950BD0C4CFB5DF28F0BADF8D
:1037900018F0952309F0A6CFABCF1124EECFCADFE6
:1037A000A0F3959FD1F3950F50E0551F629FF00154
:1037B000729FBB27F00DB11D639FAA27F00DB11DAD
:1037C000AA1F649F6627B00DA11D661F829F222736
:1037D000B00DA11D621F739FB00DA11D621F839FBD
:1037E000A00D611D221F749F3327A00D611D231F93
:1037F000849F600D211D822F762F6A2F11249F57E1
:1038000050408AF0E1F088234AF0EE0FFF1FBB1F03
:10381000661F771F881F91505040A9F79E3F5105A2
:1038200070F060CFAACF5F3FECF3983EDCF3869553
:1038300077956795B795F795E7959F5FC1F7FE2B4D
:10384000880F911D9695879597F90895DB018F93C1
:103850009F930E94BB1CBF91AF91A29F800D911DB1
:10386000A39F900DB29F900D11240895AA1BBB1B1E
:1038700051E107C0AA1FBB1FA617B70710F0A61B70
:10388000B70B881F991F5A95A9F780959095BC0191
:10389000CD01089597FB072E16F4009407D077FD0D
:1038A00009D00E94361C07FC05D03EF49095819506
:1038B0009F4F0895709561957F4F0895A1E21A2E4C
:1038C000AA1BBB1BFD010DC0AA1FBB1FEE1FFF1FC4
:1038D000A217B307E407F50720F0A21BB30BE40B14
:1038E000F50B661F771F881F991F1A9469F760955B
:1038F0007095809590959B01AC01BD01CF01089515
:10390000052E97FB1EF400940E94971C57FD07D0CC
:103910000E945E1C07FC03D04EF40C94971C50953B
:103920004095309521953F4F4F4F5F4F08959095AB
:103930008095709561957F4F8F4F9F4F0895EE0F43
:10394000FF1F0590F491E02D0994A29FB001B39F51
:10395000C001A39F700D811D1124911DB29F700D98
:10396000811D1124911D08950E94A51CB7FF089583
:10397000821B930B08950E94A51CA59F900DB49FD8
:10398000900DA49F800D911D11240895CF93DF9376
:103990008230910510F482E090E0E0912204F091F1
:1039A000230420E030E0A0E0B0E0309739F140811E
:1039B000518148175907B8F04817590771F48281A7
:1039C0009381109729F013969C938E9312972CC095
:1039D000909323048093220427C02115310531F0F0
:1039E0004217530718F0A901DB0101C0EF019A014A
:1039F000BD01DF010280F381E02DD7CF2115310514
:103A0000F9F0281B390B2430310580F48A819B8121
:103A10006115710521F0FB019383828304C09093AB
:103A2000230480932204FE01329644C0FE01E20F7B
:103A3000F31F8193919322503109398328833AC02F
:103A40002091200430912104232B41F42091020184
:103A50003091030130932104209320042091000130
:103A6000309101012115310541F42DB73EB7409148
:103A7000040150910501241B350BE0912004F091C5
:103A80002104E217F307A0F42E1B3F0B2817390778
:103A900078F0AC014E5F5F4F2417350748F04E0FAA
:103AA0005F1F50932104409320048193919302C09F
:103AB000E0E0F0E0CF01DF91CF910895CF93DF9365
:103AC000009709F487C0FC01329713821282C091DB
:103AD0002204D0912304209781F420813181280F82
:103AE000391F80912004909121048217930779F562
:103AF000F0932104E09320046DC0DE0120E030E06B
:103B0000AE17BF0750F412964D915C9113979D012B
:103B10004115510509F1DA01F3CFB383A283408146
:103B20005181840F951F8A179B0771F48D919C9189
:103B30001197840F951F02969183808312968D9121
:103B40009C911397938382832115310529F4F09377
:103B50002304E09322043EC0D9011396FC93EE9314
:103B600012974D915D91A40FB51FEA17FB0779F4E9
:103B700080819181840F951F0296D90111969C93A3
:103B80008E938281938113969C938E931297E0E09B
:103B9000F0E08A819B81009719F0FE01EC01F9CFDA
:103BA000CE01029628813981820F931F2091200433
:103BB000309121042817390769F4309729F41092BD
:103BC00023041092220402C013821282D093210493
:103BD000C0932004DF91CF91089581E090E0F894A4
:103BE0000C94081EDC0101C06D9341505040E0F779
:103BF0000895FB01DC014150504048F001900D92C6
:103C00000020C9F701C01D9241505040E0F70895CF
:103C100011E0C0EED1E004C0FE010E94A11C22967A
:0A3C2000C23ED107C9F7F894FFCFA8
:103C2A00000024048000EE02390500C180810000F2
:103C3A0000FFFFFFFF00E10000000000000000009D
:103C4A00009A04A6041E01B2041B0100000000072A
:103C5A00050E050D05421442144C495333444800DD
:103C6A00000000004C0652060D05DA08590600004D
:103C7A000000DA0FAD0F820F8A0F9D0FAC0F000004
:0E3C8A00000024196B194E195E193A194B19D6
:00000001FF
